S00F00006279676765726E2E7372656327
S113000088C00000A6C00000A4C00000A2C0000078
S1130010A0C000009FC000009CC000009AC0000067
S113002098C0000096C0000094C0000092C0000078
S113003090C000008EC000008CC000008AC0000088
S113004088C0000086C0000084C0000082C0000098
S113005080C000007EC000007CC000007AC00000A8
S113006078C0000076C0000074C0000072C00000B8
S113007070C000006EC000006CC000006AC00000C8
S113008068C0000066C0000064C0000062C00000D8
S113009060C000005EC000005CC000005AC00000E8
S11300A058C0000056C0000054C0000052C00000F8
S11300B050C000004EC000004CC000004AC0000008
S11300C048C0000046C0000044C0000042C0000018
S11300D040C000003EC000003CC000003AC0000028
S11300E038C00000084AD73B3BCE016E84BCBFFD3C
S11300F0C12F3D6C74319ABD56833DDA3D00C77FF4
S113010011BED9E4BB4C3E916BAAAABE000000808C
S11301103F0011241FBECFEFD1E2DEBFCDBF00E010
S11301200CBF13E0A0E0B2E0ECE6F4E100E00BBFAA
S113013002C007900D92A833B107D9F723E0A8E3D2
S1130140B3E001C01D92A435B207E1F712D00C94BC
S1130150340A56CF1F920F920FB60F9211248F9329
S113016081E0809338038F910F900FBE0F901F9002
S11301701895CF93DF93CDB7DEB72B970FB6F894CE
S1130180DEBF0FBECDBF16D286E092E09F938F9361
S113019069D51F9284EF8F9384E28F931F9287E334
S11301A092E09F938F935ED587E595E09A87898740
S11301B083E08B878DE0898386E18A8381E28B8368
S11301C02FEF87EA91E6215080409040E1F700C08C
S11301D0000080E0A0D066E676E686E090E4BED13A
S11301E00FB6F894DEBF0FBECDBF01E412E09FEF5F
S11301F020E782E0915020408040E1F700C00000F9
S113020080913803882381F01F930F932BD510928C
S113021038030AD160D140E050E06CE270E083E042
S113022090E051D00F900F909FEF20E782E0915023
S113023020408040E1F700C00000D9CFEF92FF9248
S11302400F931F93CF937C0182E62CD0C82F81E6B5
S113025029D0C295C695C77028E0829FC001112499
S11302608C0F911DF7019187808785E61BD08F70D5
S1130270F70182878285882379F0C0E00C2F10E093
S113028086E68C0F0FD0F701E00FF11F8083CF5F5C
S1130290F70182858C13F2CFCF911F910F91FF90BC
S11302A0EF900895CF93C82F60E087E09DD183E05D
S11302B090D18C2F8ED192D1C82F61E087E094D158
S11302C08C2FCF9108951F93CF93DF93D82F162FA0
S11302D0C42F60E087E088D185E07BD1812F79D17C
S11302E08D2F77D18C2F75D161E087E07DD1DF919F
S11302F0CF911F91089560E087E076D182E592E086
S11303009F938F93AFD480EC64D161E087E06CD18C
S11303100F900F900895CF93DF93C82FECDF8EE0FA
S1130320C1DF807E803861F01F928F938EE592E06A
S11303309F938F9397D40F900F900F900F9032C08C
S11303404C2F4C606FE08EEEBEDF41E06BE28FEF2E
S1130350BADF40E660E680E6B6DF2FEF83EC99E093
S1130360215080409040E1F700C000008EE09ADF09
S1130370D82FD07ECD1759F01F92DF9389E792E0F2
S11303809F938F936FD40F900F900F900F901F92A5
S1130390DF9389E992E09F938F9364D40F900F9039
S11303A00F900F90DF91CF91089588EA92E09F9388
S11303B08F9358D405D18FEB92E09F938F9352D4AF
S11303C080E4A9DF87ED92E09F938F934BD47894D8
S11303D0EC9AEAE6F0E080818260808380818E7FFF
S11303E080838DB180718DB92FEF83EC99E021501A
S11303F080409040E1F700C0000084EE92E09F93BB
S11304008F9330D48EE04EDF1F928F938DEF92E066
S11304109F938F9327D48DB79EB70C960FB6F894FD
S11304209EBF0FBE8DBF08958F929F92AF92BF92D1
S1130430EF92FF921F93CF93DF93CDB7DEB72B9745
S11304400FB6F894DEBF0FBECDBFCE010196F6DE27
S113045081E090E09A87898769810F2EF9E3EF2E76
S1130460F3E0FF2EF02DF70160831A811183062E2D
S1130470000C770B880B990B00D24B015C01612FA8
S1130480110F770B880B990BF8D1A501940103D1B7
S113049020E030E044EB53E4D0D220E030E040E010
S11304A05FE3CBD223EC35EF48E450E44BD1B2D137
S11304B0F701738362832B960FB6F894DEBF0FBEE9
S11304C0CDBFDF91CF911F91FF90EF90BF90AF9080
S11304D09F908F900895E9E3F3E083818F93828165
S11304E08F938181282F082E000C330B3F938F9319
S11304F08081282F082E000C330B3F938F9388E0C4
S113050093E09F938F93AED38DB79EB708960FB6A3
S1130510F8949EBF0FBE8DBF0895259AE1E8F0E0E0
S11305208081887F8083808182608083A0E8B0E0BE
S11305308C9182608C938081886180838C918068A7
S11305408C9380E49CE9909387008093860088EBE9
S11305509BE090938900809388000895CF92DF9266
S1130560EF92FF926B017C0126E636E646E65FE3F6
S113057059D28823D4F026E636E646E050E4C70193
S1130580B601DCD018168CF020E030E040EA51E4EB
S1130590C701B601D7D020E030E44CE157E44DD296
S11305A03ED17093890060938800FF90EF90DF90B4
S11305B0CF90089587E690E044D0F7DEAECF08955B
S11305C084B1876084B9279A8CB581658CBD2F9AD4
S11305D008958EBD0DB407FEFDCF08951EBC0DB465
S11305E007FEFDCF8EB50895662369F045B121E07D
S11305F030E0B90102C0660F771F8A95E2F7CB019C
S1130600842B85B9089545B121E030E0B90102C0D9
S1130610660F771F8A95E2F7CB018095842385B90D
S11306200895E0ECF0E0908195FFFDCF8093C60043
S11306300895E0ECF0E080818823ECF78091C60017
S113064008959093C5008093C40088E18093C1000D
S11306508EE08093C20069E173E081E193E0B8D257
S1130660909349038093480381E293E09F938F938F
S1130670F9D20F900F9008958DD158F080E891E051
S113068009F49EEF8ED128F040E851E059F45EEF72
S113069009C058C1C0C1E92FE0789BD168F3092E85
S11306A0052AC1F3261737074807590738F00E2ED5
S11306B007F8E02569F0E025E0640AC0EF6307F875
S11306C0009407FADB01B9019D01DC01CA01AD0107
S11306D0EF9347D06DD10AD05F91552331F02BEDC4
S11306E03FE049E450FD49EC0FC20895DF93DD2754
S11306F0B92FBF7740E85FE31616170648075B0774
S113070010F4D92F93D19F938F937F936F93F8D144
S1130710E4EEF0E01AD14CD12F913F914F915F91CB
S113072098D1DD2349F09058A2EA2AED3FE049EC44
S11307305FE3D0785D27F9D1DF913AC1D9D008F4CD
S113074081E008950CD034C12CD140F023D130F095
S113075021F45F3F19F0F0C051115EC1F3C039D1EB
S113076098F39923C9F35523B1F3951B550BBB2774
S1130770AA2762177307840738F09F5F5F4F220F21
S1130780331F441FAA1FA9F333D00E2E3AF0E0E81A
S113079030D091505040E695001CCAF729D0FE2F66
S11307A027D0660F771F881FBB1F261737074807F8
S11307B0AB07B0E809F0BB0B802DBF01FF279358AE
S11307C05F4F2AF09E3F510568F0B6C025C15F3FD8
S11307D0ECF3983EDCF3869577956795B795F79596
S11307E09F5FC9F7880F911D9695879597F908958E
S11307F0E1E0660F771F881FBB1F6217730784072A
S1130800BA0720F0621B730B840BBA0BEE1F88F738
S1130810E095089504D06894B111FEC00895E1D024
S113082088F09F5790F0B92F9927B751A0F0D1F0D5
S1130830660F771F881F991F1AF0BA95C9F712C05F
S1130840B13081F0E8D0B1E00895E5C0672F782F8A
S11308508827B85F39F0B93FCCF3869577956795CB
S1130860B395D9F73EF490958095709561957F4F37
S11308708F4F9F4F0895E89409C097FB3EF49095DD
S11308808095709561957F4F8F4F9F4F9923A9F065
S1130890F92F96E9BB279395F695879577956795F4
S11308A0B795F111F8CFFAF4BB0F11F460FF1BC038
S11308B06F5F7F4F8F4F9F4F16C0882311F096E9CB
S11308C011C0772321F09EE8872F762F05C0662379
S11308D071F096E8862F70E060E02AF09A95660F32
S11308E0771F881FDAF7880F9695879597F90895EB
S11308F0990F0008550FAA0BE0E8FEEF161617062D
S1130900E807F907C0F012161306E407F50798F094
S1130910621B730B840B950B39F40A2661F0232BAD
S1130920242B252B21F408950A2609F4A140A69529
S11309308FEF811D811D089597F99F6780E870E00E
S113094060E008959FEF80EC0895DF93CF931F93A9
S11309500F93FF92EF92DF927B018C01689405C0A4
S1130960DA2EEF0176D0FE01E894A5912591359118
S113097045915591AEF3EF01D8D0FE019701A8013E
S1130980DA9479F7DF90EF90FF900F911F91CF9158
S1130990DF91089500240A9416161706180609060E
S11309A0089500240A9412161306140605060895E1
S11309B0092E0394000C11F4882352F0BB0F40F469
S11309C0BF2B11F460FF04C06F5F7F4F8F4F9F4FA9
S11309D0089557FD9058440F551F59F05F3F71F02B
S11309E04795880F97FB991F61F09F3F79F0879592
S11309F00895121613061406551FF2CF4695F1DF1B
S1130A0008C0161617061806991FF1CF86957105AA
S1130A10610508940895E894BB2766277727CB01DE
S1130A2097F9089565DF08F48FEF08959B01AC01F1
S1130A3060E070E080E89FE385CE0BD0B9CFAADFF9
S1130A4028F0AFDF18F0952309F076CF7BCF11247F
S1130A50E3CFBFDFA0F3959FD1F3950F50E0551F6F
S1130A60629FF001729FBB27F00DB11D639FAA27FF
S1130A70F00DB11DAA1F649F6627B00DA11D661F4E
S1130A80829F2227B00DA11D621F739FB00DA11D6F
S1130A90621F839FA00D611D221F749F3327A00D29
S1130AA0611D231F849F600D211D822F762F6A2FC5
S1130AB011249F5750408AF0E1F088234AF0EE0F4A
S1130AC0FF1FBB1F661F771F881F91505040A9F757
S1130AD09E3F510570F030CF9FCF5F3FECF3983EBF
S1130AE0DCF3869577956795B795F795E7959F5FBE
S1130AF0C1F7FE2B880F911D9695879597F9089558
S1130B009B01AC019ACF5058BB27AA270ED050CFD7
S1130B1041DF30F046DF20F031F49F3F11F41EF442
S1130B2011CF0EF4E095E7FB07CFE92F52DF80F3F6
S1130B30BA17620773078407950718F071F49EF5D6
S1130B406ACF0EF4E0950B2EBA2FA02D0B01B9013C
S1130B5090010C01CA01A0011124FF27591B99F02F
S1130B60593F50F4503E68F11A16F040A22F232F3B
S1130B70342F4427585FF3CF469537952795A7958B
S1130B80F0405395C9F77EF41F16BA0B620B730B32
S1130B90840BBAF09150A1F0FF0FBB1F661F771FA3
S1130BA0881FC2F70EC0BA0F621F731F841F48F458
S1130BB0879577956795B795F7959E3F08F0B3CFDE
S1130BC09395880F08F09927EE0F979587950895C8
S1130BD00F931F93CF93DF93009731F46115710541
S1130BE019F480E090E039C08B01EC016EE070E014
S1130BF081E090E047D2FC01892B99F380E883835C
S1130C000115110571F01387028781E883838091B0
S1130C104A0390914B03892B21F4F0934B03E09307
S1130C204A032097C9F0D187C08783818260838378
S1130C3080914C0390914D03892B71F4F0934D03F3
S1130C40E0934C0380914E0390914F03892B21F440
S1130C50F0934F03E0934E03CF01DF91CF911F91A7
S1130C600F910895CF93DF93CDB7DEB7AE014A5FFE
S1130C705F4FFA0161917191AF0180914C039091A2
S1130C804D0303D0DF91CF9108952F923F924F925D
S1130C905F926F927F928F929F92AF92BF92CF9208
S1130CA0DF92EF92FF920F931F93CF93DF93CDB711
S1130CB0DEB72B970FB6F894DEBF0FBECDBF6C0125
S1130CC07B018A01FC0117821682838181FFBFC1E7
S1130CD0CE0101963C01F6019381F70193FD8591C4
S1130CE093FF81917F01882309F4ADC1853239F4E2
S1130CF093FD859193FF81917F01853221F4B601A3
S1130D0090E018D3E8CF912C212C312CFFE1F3157E
S1130D10D8F08B3279F038F4803279F08332A1F450
S1130D20232D20611DC08D3261F0803369F4232DA1
S1130D30216016C0832D8260382EE32DE4603E2EA0
S1130D402AC0F32DF8601DC037FC2DC020ED280FFC
S1130D502A3040F08E32B9F436FC75C1232D20645C
S1130D60322E19C036FE06C08AE0989E200D11244A
S1130D70922E11C0EAE02E9E200D1124222EF32D76
S1130D80F0623F2E08C08C3621F4832D8068382E03
S1130D9002C0883641F4F70193FD859193FF819158
S1130DA07F018111B3CF982F9F7D9554933028F400
S1130DB00C5F1F4F9FE399830DC0833631F0833757
S1130DC071F0833509F055C020C0F8018081898312
S1130DD00E5F1F4F88248394912C530112C0280165
S1130DE0F2E04F0E511CF801A080B18036FE03C022
S1130DF0692D70E002C06FEF7FEFC50190D24C0106
S1130E008201F32DFF773F2E15C0280122E0420E08
S1130E10511CF801A080B18036FE03C0692D70E03A
S1130E2002C06FEF7FEFC50168D24C01F32DF0686B
S1130E303F2E820133FC19C0822D90E0881699065A
S1130E40A0F4B60180E290E075D22A94F5CFF501C2
S1130E5037FC859137FE81915F01B60190E06AD23B
S1130E6021102A9421E0821A91088114910479F7BF
S1130E70E1C0843611F0893639F5F80137FE07C030
S1130E8060817181828193810C5F1F4F08C06081F2
S1130E907181072E000C880B990B0E5F1F4FF32DE9
S1130EA0FF763F2E97FF09C09095809570956195C8
S1130EB07F4F8F4F9F4FF0683F2E2AE030E0A30111
S1130EC075D2882E861844C0853731F4232D2F7EA1
S1130ED0B22E2AE030E025C0932D997FB92E8F36AB
S1130EE0C1F018F4883579F0AEC0803719F088372E
S1130EF021F0A9C0E92FE061BE2EB4FE0DC0FB2D88
S1130F00F460BF2E09C034FE0AC0292F2660B22E19
S1130F1006C028E030E005C020E130E002C020E156
S1130F2032E0F801B7FE07C060817181828193814C
S1130F300C5F1F4F06C06081718180E090E00E5FFE
S1130F401F4FA30133D2882E8618FB2DFF773F2E27
S1130F5036FE0DC0232D2E7FA22E891458F434FEA4
S1130F600BC032FC09C0832D8E7EA82E05C0B82C80
S1130F70A32C03C0B82C01C0B92CA4FE0FC0FE01E1
S1130F80E80DF11D8081803321F49A2D997EA92EDC
S1130F9009C0A2FE06C0B394B39404C08A2D867817
S1130FA009F0B394A3FC10C0A0FE06C0B21480F4F0
S1130FB0280C922C9B180DC0B21458F4B60180E290
S1130FC090E0B8D1B394F8CFB21418F42B1802C03F
S1130FD0982C212CA4FE0FC0B60180E390E0AAD186
S1130FE0A2FE16C0A1FC03C088E790E002C088E519
S1130FF090E0B6010CC08A2D867851F0A1FE02C0A3
S11310008BE201C080E2A7FC8DE2B60190E092D1B0
S1131010891430F4B60180E390E08CD19A94F8CF2F
S11310208A94F301E80DF11D8081B60190E082D12C
S11310308110F6CF222009F44ECEB60180E290E072
S113104079D12A94F7CFF6018681978102C08FEF78
S11310509FEF2B960FB6F894DEBF0FBECDBFDF9186
S1131060CF911F910F91FF90EF90DF90CF90BF90A1
S1131070AF909F908F907F906F905F904F903F9034
S11310802F9008950F931F93CF93DF93869F800132
S1131090879F100D969F100D1124C8010DD0EC01EF
S11310A0009721F0A80160E070E032D1CE01DF9119
S11310B0CF911F910F9108950F931F93CF93DF93B7
S11310C08230910510F482E090E0E0915203F091B7
S11310D0530320E030E0A0E0B0E0309719F1408104
S11310E051810281138148175907C8F08417950765
S11310F069F4109731F012960C93129713961C937F
S113110027C0009352031093530322C021153105C5
S113111019F04217530718F49A01BD01EF01DF01DA
S1131120F801DBCF21153105F9F0281B390B2430E8
S1131130310580F48A819B816115710521F0FB01E1
S11311409383828304C09093530380935203FE01DC
S1131150329644C0FE01E20FF31F81939193225013
S11311603109398328833AC02091500330915103C7
S1131170232B41F420910202309103023093510356
S11311802093500320910002309101022115310572
S113119041F42DB73EB74091040250910502241B3F
S11311A0350BE0915003F0915103E217F307A0F4DB
S11311B02E1B3F0B2817390778F0AC014E5F5F4FA9
S11311C02417350748F04E0F5F1F50935103409387
S11311D050038193919302C0E0E0F0E0CF01DF91EE
S11311E0CF911F910F910895CF93DF93009709F446
S11311F081C0FC01329713821282A0915203B091F4
S11312005303109781F420813181820F931F209121
S11312105003309151032817390751F5F0935103C6
S1131220E093500367C0ED0120E030E0CE17DF0704
S113123040F44A815B819E0141155105F1F0EA01B8
S1131240F5CFD383C28340815181840F951FC81782
S1131250D90759F488819981840F951F0296918347
S113126080838A819B81938382832115310529F4AC
S1131270F0935303E09352033DC0E901FB83EA83F7
S113128049915991C40FD51FEC17FD0761F4808172
S11312909181840F951F0296E90199838883828145
S11312A093819B838A83E0E0F0E012968D919C9178
S11312B01397009719F0FD01DC01F7CF8D919C91F4
S11312C011979D012E5F3F4F820F931F2091500372
S11312D0309151032817390769F4309729F4109293
S11312E053031092520302C013821282B09351032B
S11312F0A0935003DF91CF910895FC0105906150B4
S113130070400110D8F7809590958E0F9F1F089517
S1131310DC0101C06D9341505040E0F70895FC0199
S11313206150704001900110D8F7809590958E0F10
S11313309F1F08950F931F93CF93DF93FB01238186
S113134021FD03C08FEF9FEF2CC022FF16C0468102
S11313505781248135814217530744F4A081B18118
S11313609D012F5F3F4F318320838C9326813781EA
S11313702F5F3F4F3783268314C08B01EC01FB01A1
S11313800084F185E02D1995892BE1F6D801169694
S11313908D919C911797019617969C938E9316970F
S11313A0CE01DF91CF911F910F910895FA01AA27E1
S11313B0283051F1203181F1E8946F936E7F6E5F94
S11313C07F4F8F4F9F4FAF4FB1E03ED0B4E03CD042
S11313D0670F781F891F9A1FA11D680F791F8A1F25
S11313E0911DA11D6A0F711D811D911DA11D20D08C
S11313F009F468943F912AE0269F11243019305D46
S11314003193DEF6CF010895462F4770405D419336
S1131410B3E00FD0C9F7F6CF462F4F70405D4A3383
S113142018F0495D31FD4052419302D0A9F7EACF4B
S1131430B4E0A6959795879577956795BA95C9F77A
S113144000976105710508959B01AC010A2E06946D
S11314505795479537952795BA95C9F7620F731F26
S10F1460841F951FA01D0895F894FFCF71
S113146C0000540320000A0D2D2D2D2D2D2D2D2D76
S113147C2D2D2D2D2D2D2D2D2D2D2D2D2D2D2D2D8C
S113148C2D2D2D2D2D2D2D2D2D2D2D2D2D2D2D0A9F
S113149C0A0A0A0A0A0D006865723A2025690A0DBF
S11314AC004D657373616765207265636569766564
S11314BC640043414E2072657365740A0D004E6FCF
S11314CC7420696E20636F6E666967206D6F646546
S11314DC2C20092025690A0D004E6F7420696E209A
S11314EC636F7272656374206D6F64653A204D6F1F
S11314FC64653A2025690A0D004D6F646520736597
S113150C743A2025690A0D0043616E20636F6E7472
S113151C726F6C6C657220696E6974200A0D0053CD
S113152C5049206D617374657220696E697420640E
S113153C6F6E65200A0D004D6F64657320736574BE
S113154C200A0D00616674657220777269746520D7
S113155C746F2063616E6374726C0A0D0044617461
S113156C613A2025690A0D00583A20256909593A2F
S113157C2025690A0D416E676C653A2025690A0DB0
S113158C00756172742073657475702066696E6978
S10B159C736865640A0D000088
S9030000FC
