S00F00006279676765726E2E7372656327
S1130000D9C00000F7C00000F5C00000F3C0000034
S1130010F1C000000AC10000EDC00000EBC0000008
S1130020E9C00000E7C00000E5C00000E3C0000034
S1130030E1C00000DFC00000DDC00000DBC0000044
S1130040D9C00000D7C00000D5C00000D3C0000054
S1130050D1C00000CFC00000CDC00000CBC0000064
S1130060C9C00000C7C00000C5C00000C3C0000074
S1130070C1C00000BFC00000BDC00000BBC0000084
S1130080B9C00000B8C00000B5C00000B3C0000093
S1130090B1C00000AFC00000ADC000000C94510816
S11300A0A9C00000A7C00000A5C00000A3C00000B4
S11300B0A1C000009FC000009DC000009BC00000C4
S11300C099C0000097C0000095C0000093C00000D4
S11300D091C000008FC000008DC000008BC00000E4
S11300E089C000006F08C108C108C108C108C1085F
S11300F0C108C1086F08C108C108C108C108C10806
S1130100C108C1087108C108C108C108C108C108F3
S1130110C108C108C108C108C108C108C108C10893
S1130120C108C1087108C108C108C108C108C108D3
S1130130C108C108C108C108C108C108C108C10873
S1130140C108C108BD08C108C108C108C108C10867
S1130150C108C1089A08C108C108C108C108C1087A
S1130160C108C108C108C108C108C108C108C10843
S1130170C108C1088E08C108C108C108C108C10866
S1130180C108C108AC08084AD73B3BCE016E84BC09
S1130190BFFDC12F3D6C74319ABD56833DDA3D00DD
S11301A0C77F11BED9E4BB4C3E916BAAAABE000026
S11301B000803F0011241FBECFEFD1E2DEBFCDBFD0
S11301C000E00CBF12E0A0E0B2E0E2EEF0E200E0FA
S11301D00BBF02C007900D92AC34B107D9F722E0EF
S11301E0ACE4B2E001C01D92A439B207E1F72CD00F
S11301F00C946F1005CF1F920F920FB60F9211241B
S11302008F939F9381E080934E028091610290913D
S11302106202019690936202809361029F918F9192
S11302200F900FBE0F901F9018951F920F920FB64C
S11302300F9211248F9381E080934C028F910F9041
S11302400FBE0F901F9018957FD687E092E09F9382
S11302508F930E946D0C0F900F90CDE6D2E0DD24B9
S1130260D3940F2EF5E6EF2EF2E0FF2EF02D04E9E5
S113027010E08FE19EE40197F1F700C0000077D60B
S113028080914C028823F1F0F89410924C0281D1B1
S113029080915802882389F088819981AA81BB8141
S11302A0181619061A061B061CF4D0924D0204C037
S11302B080E058D410924D021CD440E06CE283E0FC
S11302C0F0D1789480914E02882399F2F894F70142
S11302D08081882329F080916C02811101C05FD64E
S11302E0F80111821082F8D280914D0281114DD40F
S11302F08091580281117ED37894BBCF0F931F93C2
S1130300CF938C0187E392E09F938F930E946D0CAF
S113031080914F0290915002019663E070E00E9438
S1130320A70B282F392F80934F02909350020F90E0
S11303300F9021303105D9F02230310569F1232B9A
S113034009F03EC0F801408551854295440F407E36
S113035062E380EEA6D1F801608571857695679594
S1130360769567957695679581E388D129C0F801DC
S1130370408551854295440F407E62E480EE91D1E0
S1130380F80160857185769567957695679576957C
S1130390679581E473D114C0F80140855185429575
S11303A0440F407E62E580EE7CD1F8016085718562
S11303B076956795769567957695679581E55ED18F
S11303C080914F02909150028130910559F0823012
S11303D0910571F0892B89F4F801428565E38FE07A
S11303E060D10BC0F801428565E48FE05AD105C0A5
S11303F0F801428565E58FE054D1F80182858823B0
S113040049F1C0E080914F029091500281309105F2
S113041069F08230910591F0892BB9F4F801EC0F61
S1130420F11D608186E38C0F29D10FC0F801EC0F18
S1130430F11D608186E48C0F21D107C0F801EC0F17
S1130440F11D608186E58C0F19D1CF5FF80182859B
S11304508C13D8CF80914F0245D1CF911F910F912A
S113046008958F929F92AF92BF92EF92FF920F9353
S11304701F93CF93DF93CDB7DEB72B970FB6F894C6
S1130480DEBF0FBECDBFE982FA820B831C832D83AE
S11304903E834F83588769877A878B872981FA80BF
S11304A030E0A8ECB0E00E94DE0B812C912C5401CA
S11304B08A94A50194010E94BA0BDA01C9018456F9
S11304C09109A109B1090DE612E0F8018083918335
S11304D0A283B3832F2D30E0A8ECB0E00E94DE0BA2
S11304E0A50194010E94BA0BDA01C901845691094D
S11304F0A109B109F80184839583A683B7838B810D
S1130500E5E6F2E080839C819183811102C0109220
S11305106C028D810DE512E0F80180838E81818368
S11305206081F180062E000C770B880B990BC9D7DC
S11305304B015C016F2DFF0C770B880B990BC1D716
S1130540A5019401CCD620E030E044EB53E40E94B2
S1130550410B20E030E040E05FE30E94410B23ECDC
S113056035EF48E450E412D779D7F80173836283F6
S11305702B960FB6F894DEBF0FBECDBFDF91CF919F
S11305801F910F91FF90EF90BF90AF909F908F902D
S11305900895EF92FF920F931F93CF93DF93CDB7FC
S11305A0DEB72B970FB6F894DEBF0FBECDBF82E641
S11305B054D0182F81E651D012951695177028E063
S11305C0829FC0011124810F911D9A87898785E636
S11305D044D08F708B878B85882389F010E0E12EBF
S11305E0F12C86E6810F39D0E1E0F0E0EC0FFD1F3D
S11305F0EE0DFF1D80831F5F8B858113F0CF8985EE
S11306009A8582309105B9F018F4019739F018C031
S11306108330910591F0409791F012C0E980FA80FF
S11306200B811C812D813E814F81588569857A8596
S11306308B8517DF05C09AD103C019D201C084D4B9
S11306402B960FB6F894DEBF0FBECDBFDF91CF91CE
S11306501F910F91FF90EF900895CF93C82F60E002
S113066087E0C0D483E0B3D48C2FB1D4B5D4C82FE1
S113067061E087E0B7D48C2FCF910895CF93DF93B7
S1130680D82FC62F60E087E0ADD482E0A0D48D2FB0
S11306909ED48C2F9CD461E087E0A4D4DF91CF91C9
S11306A008951F93CF93DF93D82F162FC42F60E0A4
S11306B087E098D485E08BD4812F89D48D2F87D47B
S11306C08C2F85D461E087E08DD4DF91CF911F9189
S11306D0089560E087E086D480EC79D461E087E017
S11306E081C40895CF93C82F60E087E07BD4C130E4
S11306F039F018F0C23039F008C081E868D405C078
S113070082E865D402C084E862D461E087E06AD4F8
S1130710CF910895CF93C82FDCDF8EE09EDF807EDB
S11307208038C1F44C2F4C606FE08EEEBADF41E0AC
S11307306BE28FEFB6DF40E660E680E6B2DF2FEFD4
S113074083EC99E0215080409040E1F700C0000024
S11307508EE083DFCF91089531D480E0DBDFEC9A23
S1130760EAE6F0E080818260808380818E7F8083EE
S11307708DB180718DB92FEF83EC99E021508040C9
S11307809040E1F700C000008EE067CF08958098A4
S1130790AAE7B0E08C9187608C93ECE7F0E080816D
S11307A08F7D808380818F77808380818064808344
S11307B08C9180688C938FEF9FEF90935A02809373
S11307C059020895ECE7F0E08081807E8083EBE7B6
S11307D0F0E08081877F8083EAE7F0E080818064B5
S11307E08083808184FFFDCF2091780080917900FF
S11307F090E0982F8827820F911D90935A0280933E
S113080059020895E1E0F1E0808180628083808173
S113081088608083808180648083E2E0F1E080816D
S11308208F7D80838AE68A95F1F700C08081806499
S113083080838AE68A95F1F700C080818F7B80836C
S11308408AE68A95F1F700C08081806480838AE615
S11308508A95F1F700C080818062808388E695ECF8
S113086090936802809367020895CF92DF92EF928B
S1130870FF92CF93DF936091670270916802C091F9
S11308805B02D0915C02072E000C880B990B19D6E1
S11308909B01AC0160E070E088E493E477D56B01E0
S11308A07C01BE01DD0F880B990B0BD69B01AC01BB
S11308B0C701B601E6D620E030E048EC52E49BD410
S11308C0CDD57093640260936302DF91CF91FF9062
S11308D0EF90DF90CF900895E2E0F1E080818F7D8A
S11308E080838081877F80838AE68A95F1F700C0C0
S11308F0A6E0B1E08C919081986090839AE69A95F5
S1130900F1F700C02C9190819062908390E0982F31
S11309108827820F911D99232CF090935C02809379
S11309205B0204C090935C0280935B0280915B0243
S113093090915C0218161906BCF4E2E0F1E08081A3
S1130940806480838AE68A95F1F700C080818F7B7A
S113095080839AE69A95F1F700C080818064808351
S11309608AE68A95F1F700C080CF0895CF93DF938C
S1130970109262021092610281E0809358026091A9
S1130980610270916202C9E6D2E0072E000C880B66
S1130990990B97D52DEC3CEC4CE45DE372D663D512
S11309A06A838AE0888383E68983DF91CF910895FF
S11309B0CF93DF93CDB7DEB72B970FB6F894DEBF96
S11309C00FBECDBF81E090E09A87898782E08B8754
S11309D0E9E6F2E08081898382818A83CE010196EF
S11309E08DDC2B960FB6F894DEBF0FBECDBFDF9122
S11309F0CF910895CF92DF92EF92FF92CF93DF933E
S1130A0051D06091610270916202072E000C880B34
S1130A10990B57D52DEC3CEC4CE45DE332D623D551
S1130A2060936B02C0916102D091620270E080E039
S1130A3090E045D56B017C01BE01DD0F880B990B5D
S1130A4040D52DEC3CEC4CE45DE31BD69B01AC01A2
S1130A50C701B60197D488231CF0F894A9DF7894D1
S1130A60DF91CF91FF90EF90DF90CF900895CF93D7
S1130A70DF936091610270916202C9E6D2E0072EB1
S1130A80000C880B990B1DD52DEC3CEC4CE45DE37C
S1130A90F8D5E9D46A838AE0888310925802DF91FA
S1130AA0CF910895CF93DF93C0916102D0916202F8
S1130AB089DEC297A0F4809169028823A9F081504D
S1130AC08093690211C02FEF87EA91E6215080409C
S1130AD09040E1F700C0000075DEC297A0F3D09308
S1130AE06202C093610202C063DFEDCFDF91CF9158
S1130AF0089560915D02062E000C770B880B990B0C
S1130B00E0D420E030E048EC52E476D320E030E05A
S1130B1048E453E43BD429E939E949E95FE3B1D531
S1130B2026E636E646E65FE367D39B01AC0160E068
S1130B3070E080E490E45FD3DBC10895E2E0F1E08B
S1130B408081806180830895882331F0E2E0F1E0C0
S1130B508081826080830895E2E0F1E080818D7F6E
S1130B6080830895CF93DF9300D0CDB7DEB790E5AF
S1130B7099831A828B8363E0CE01019670D20F9021
S1130B800F900F90DF91CF9108954F925F926F92E3
S1130B907F928F929F92AF92BF92CF92DF92EF9209
S1130BA0FF92CF93DF9300D01F92CDB7DEB7809131
S1130BB0710290917202A0917302B091740220911B
S1130BC0630230916402BC01621B730B072E000C9C
S1130BD0880B990B76D46B017C012DEC3CEC4CE436
S1130BE05DE34FD5209180023091810240918202D1
S1130BF05091830201D34B015C0160938002709396
S1130C008102809382029093830220918402309126
S1130C1085024091860250918702C701B601EBD24A
S1130C202DEC3CEC4CE45DE3B1D369837A838B8394
S1130C309C83C0928402D0928502E0928602F09254
S1130C40870220E030E040E05FE3C701B60119D538
S1130C502B013C012DEC3CEC4CE45FE3C501B401F9
S1130C6010D59B01AC01C301B201C6D24B015C019A
S1130C702FE832EC45E75DE369817A818B819C81C1
S1130C8000D59B01AC01C501B401B6D2E7D34B0139
S1130C905C011616170664F481E056DF2FEF289DD9
S1130CA0C001299D900D112464E670E050D50CC05C
S1130CB080E04ADF21E0289DC001299D900D98190C
S1130CC0112464E670E043D5CB0149968F3F91052A
S1130CD0B1F0ACF0A701960160918002709181029D
S1130CE0809182029091830286D2609380027093F5
S1130CF0810280938202909383028FEF90E032DF2F
S1130D000F900F900F900F90DF91CF91FF90EF9085
S1130D10DF90CF90BF90AF909F908F907F906F9017
S1130D205F904F900895CF92DF92EF92FF920CDF85
S1130D302FEF39E648E1215030404040E1F700C050
S1130D4000008BE40FDFFADE8FEF91EE24E0815098
S1130D5090402040E1F700C00000C12CD12C760166
S1130D604AE050E060E070E016C0B6DD80915B02BE
S1130D7090915C02092E000CAA0BBB0B3FEF43EDD4
S1130D8020E3315040402040E1F700C00000B701AB
S1130D90A6016C017D01D701C601841B950BA60B2E
S1130DA0B70B181619061A061B06FCF24C195D0936
S1130DB06E097F091416150616061706B4F222DD0D
S1130DC081E0C2DEB701A6014F5F5F4F6F4F7F4FD7
S1130DD03FEF83ED90E3315080409040E1F700C055
S1130DE0000016C079DD80915B0290915C02092EAF
S1130DF0000CAA0BBB0B2FEF33ED40E32150304026
S1130E004040E1F700C00000B701A6016C017D017C
S1130E10D701C601841B950BA60BB70B1816190630
S1130E201A061B06FCF24C195D096E097F0914169B
S1130E30150616061706B4F24FDD8FEF90E722E091
S1130E40815090402040E1F700C0000080915B0297
S1130E5090915C029093680280936702FF90EF90F8
S1130E60DF90CF900895E1E0F1E08081826080839B
S1130E70808180618083109280021092810210929E
S1130E8082021092830210928402109285021092C0
S1130E908602109287022FEF89E698E12150804064
S1130EA09040E1F700C0000080E03DCF0895259A0E
S1130EB0E1E8F0E08081887F8083808182608083A4
S1130EC0A0E8B0E08C9182608C93808188618083FB
S1130ED08C9180688C9380E49CE990938700809344
S1130EE0860088EB9BE090938900809388000895A6
S1130EF0CF92DF92EF92FF926B017C0126E636E6F9
S1130F0046E65FE3B3D38823D4F026E636E646E02C
S1130F1050E4C701B60136D218168CF020E030E058
S1130F2040EA51E4C701B60131D220E030E44CE19B
S1130F3057E4A7D398D27093890060938800FF90F8
S1130F40EF90DF90CF900895F89487E690E03FD13A
S1130F5003DCADDF1CDC63D006D077D053DC83DF49
S1130F6019D07894089583B7817F83BF089580B79B
S1130F70886880BFEAE7F0E080818F77808383B759
S1130F80816083BF889583B78E7F83BF80818068AB
S1130F90808308956D9A759A10926C02089581E089
S1130FA080936C0275982FE789EA93E02150804082
S1130FB09040E1F700C00000759A089584B18760FD
S1130FC084B9279A8CB581658CBD2F9A08958EBDFE
S1130FD00DB407FEFDCF08951EBC0DB407FEFDCF72
S1130FE08EB50895662369F045B121E030E0B9017A
S1130FF002C0660F771F8A95E2F7CB01842B85B96F
S1131000089545B121E030E0B90102C0660F771FB1
S11310108A95E2F7CB018095842385B90895E1E7A9
S1131020F0E0808184608083109295001092940097
S113103080E38093900085E0809391008DE093E0BD
S113104090939B0080939A0008958CE08093B8005D
S11310508FEF8093BB0084E08093BC000895DC0193
S1131060ECEBF0E0908190FDFDCF609353028C9106
S11310708093540280FD0CC0623050F0FD01319623
S1131080A5E5B2E081E091919D938F5F6813FBCF5A
S11310901092520288EF8093060285EA8093BC0086
S11310A008951F920F920FB60F9211240BB60F9250
S11310B02F933F938F939F93AF93BF93EF93FF939C
S11310C0E091B9008E2F90E0FC013897E135F105ED
S11310D008F057C08827EE58FF4F8F4F67C3109210
S11310E05102E091510280915302E81770F481E0BB
S11310F08E0F80935102F0E0EC5AFD4F8081809373
S1131100BB0085E88093BC0043C08091520281609B
S11311108093520284E98093BC003AC0E09151026A
S113112081E08E0F809351028091BB00F0E0EC5A75
S1131130FD4F80832091510230E08091530290E072
S113114001972817390724F485EC8093BC0020C04C
S113115085E88093BC001CC08091BB00E0915102E3
S1131160F0E0EC5AFD4F80838091520281608093BD
S1131170520284E98093BC000BC085EA8093BC00D2
S113118007C08091B9008093060284E08093BC007C
S1131190FF91EF91BF91AF919F918F913F912F91CB
S11311A00F900BBE0F900FBE0F901F901895E0ECA0
S11311B0F0E0908195FFFDCF8093C6000895E0ECA8
S11311C0F0E080818823ECF78091C6000895909325
S11311D0C5008093C40088E18093C1008EE08093B1
S11311E0C2006FED78E087ED98E02DD390938902EB
S11311F08093880208955058BB27AA270ED0FCC1BB
S1131200EDD130F0F2D120F031F49F3F11F41EF40F
S1131210BDC10EF4E095E7FBB3C1E92FFED180F325
S1131220BA17620773078407950718F071F49EF5DF
S113123016C20EF4E0950B2EBA2FA02D0B01B901A6
S113124090010C01CA01A0011124FF27591B99F038
S1131250593F50F4503E68F11A16F040A22F232F44
S1131260342F4427585FF3CF469537952795A79594
S1131270F0405395C9F77EF41F16BA0B620B730B3B
S1131280840BBAF09150A1F0FF0FBB1F661F771FAC
S1131290881FC2F70EC0BA0F621F731F841F48F461
S11312A0879577956795B795F7959E3F08F0B3CFE7
S11312B09395880F08F09927EE0F979587950895D1
S11312C08DD158F080E891E009F49EEF8ED128F09A
S11312D040E851E059F45EEF09C058C1C0C1E92F9C
S11312E0E0789BD168F3092E052AC1F32617370746
S11312F04807590738F00E2E07F8E02569F0E02575
S1131300E0640AC0EF6307F8009407FADB01B9014F
S11313109D01DC01CA01AD01EF9347D06DD10AD024
S11313205F91552331F02BED3FE049E450FD49EC4A
S113133063CF0895DF93DD27B92FBF7740E85FE3DC
S11313401616170648075B0710F4D92F93D19F93FD
S11313508F937F936F93F8D1E6E8F1E01AD14CD1E3
S11313602F913F914F915F9198D1DD2349F090588F
S1131370A2EA2AED3FE049EC5FE3D0785D274DDF38
S1131380DF913AC1D9D008F481E008950CD034C17A
S11313902CD140F023D130F021F45F3F19F0F0C09C
S11313A051115EC1F3C039D198F39923C9F3552380
S11313B0B1F3951B550BBB27AA2762177307840744
S11313C038F09F5F5F4F220F331F441FAA1FA9F3FA
S11313D033D00E2E3AF0E0E830D091505040E695EC
S11313E0001CCAF729D0FE2F27D0660F771F881F4D
S11313F0BB1F261737074807AB07B0E809F0BB0B3C
S1131400802DBF01FF2793585F4F2AF09E3F51055F
S113141068F0B6C025C15F3FECF3983EDCF38695D7
S113142077956795B795F7959F5FC9F7880F911DD5
S11314309695879597F90895E1E0660F771F881FC1
S1131440BB1F621773078407BA0720F0621B730B74
S1131450840BBA0BEE1F88F7E095089504D06894C6
S1131460B111FEC00895E1D088F09F5790F0B92FD4
S11314709927B751A0F0D1F0660F771F881F991FE5
S11314801AF0BA95C9F712C0B13081F0E8D0B1E0D2
S11314900895E5C0672F782F8827B85F39F0B93FE2
S11314A0CCF3869577956795B395D9F73EF49095E7
S11314B08095709561957F4F8F4F9F4F0895E89465
S11314C009C097FB3EF490958095709561957F4F88
S11314D08F4F9F4F9923A9F0F92F96E9BB27939536
S11314E0F695879577956795B795F111F8CFFAF446
S11314F0BB0F11F460FF1BC06F5F7F4F8F4F9F4F77
S113150016C0882311F096E911C0772321F09EE8D4
S1131510872F762F05C0662371F096E8862F70E03A
S113152060E02AF09A95660F771F881FDAF7880F14
S11315309695879597F90895990F0008550FAA0B6A
S1131540E0E8FEEF16161706E807F907C0F01216D2
S11315501306E407F50798F0621B730B840B950BD5
S113156039F40A2661F0232B242B252B21F408952A
S11315700A2609F4A140A6958FEF811D811D0895C7
S113158097F99F6780E870E060E008959FEF80EC32
S11315900895DF93CF931F930F93FF92EF92DF92FF
S11315A07B018C01689405C0DA2EEF0176D0FE0130
S11315B0E894A5912591359145915591AEF3EF01AC
S11315C02CDEFE019701A801DA9479F7DF90EF9001
S11315D0FF900F911F91CF91DF91089500240A94F9
S11315E01616170618060906089500240A941216FA
S11315F01306140605060895092E0394000C11F42D
S1131600882352F0BB0F40F4BF2B11F460FF04C0D9
S11316106F5F7F4F8F4F9F4F089557FD9058440F32
S1131620551F59F05F3F71F04795880F97FB991F3D
S113163061F09F3F79F087950895121613061406FA
S1131640551FF2CF4695F1DF08C016161706180687
S1131650991FF1CF86957105610508940895E89462
S1131660BB2766277727CB0197F9089565DF08F430
S11316708FEF08959B01AC0160E070E080E89FE388
S113168085CE0BD0B9CFAADF28F0AFDF18F09523B1
S113169009F076CF7BCF1124E3CFBFDFA0F3959F72
S11316A0D1F3950F50E0551F629FF001729FBB2745
S11316B0F00DB11D639FAA27F00DB11DAA1F649FF1
S11316C06627B00DA11D661F829F2227B00DA11DA4
S11316D0621F739FB00DA11D621F839FA00D611D2A
S11316E0221F749F3327A00D611D231F849F600D4B
S11316F0211D822F762F6A2F11249F5750408AF084
S1131700E1F088234AF0EE0FFF1FBB1F661F771F0F
S1131710881F91505040A9F79E3F510570F030CF7B
S11317209FCF5F3FECF3983EDCF386957795679502
S1131730B795F795E7959F5FC1F7FE2B880F911D2D
S11317409695879597F908959B01AC019ACF97FBDD
S1131750072E16F4009406D077FD08D03ED007FC7F
S113176005D03EF4909581959F4F089570956195AD
S11317707F4F0895052E97FB16F400940FD057FD64
S113178005D03FD007FC02D046F408C050954095E0
S1131790309521953F4F4F4F5F4F08959095809519
S11317A0709561957F4F8F4F9F4F0895EE0FFF1FE8
S11317B0881F8BBF0790F691E02D1994A29FB0016A
S11317C0B39FC001A39F700D811D1124911DB29F71
S11317D0700D811D1124911D0895AA1BBB1B51E19D
S11317E007C0AA1FBB1FA617B70710F0A61BB70B8D
S11317F0881F991F5A95A9F780959095BC01CD0132
S11318000895A1E21A2EAA1BBB1BFD010DC0AA1F3D
S1131810BB1FEE1FFF1FA217B307E407F50720F055
S1131820A21BB30BE40BF50B661F771F881F991FD0
S11318301A9469F760957095809590959B01AC0119
S1131840BD01CF0108950F931F93CF93DF930097AA
S113185031F46115710519F480E090E039C08B0111
S1131860EC016EE070E081E090E047D2FC01892B4E
S113187099F380E883830115110571F013870287BA
S113188081E8838380918A0290918B02892B21F4D1
S1131890F0938B02E0938A022097C9F0D187C08726
S11318A083818260838380918C0290918D02892B45
S11318B071F4F0938D02E0938C0280918E029091EA
S11318C08F02892B21F4F0938F02E0938E02CF01D3
S11318D0DF91CF911F910F910895CF93DF93CDB7EF
S11318E0DEB7AE014A5F5F4FFA0161917191AF01BA
S11318F080918C0290918D0203D0DF91CF91089555
S11319002F923F924F925F926F927F928F929F920B
S1131910AF92BF92CF92DF92EF92FF920F931F93F9
S1131920CF93DF93CDB7DEB72B970FB6F894DEBF16
S11319300FBECDBF6C017B018A01FC0117821682A8
S1131940838181FFBFC1CE0101963C01F6019381E1
S1131950F70193FD859193FF81917F01882309F419
S1131960ADC1853239F493FD859193FF81917F0157
S1131970853221F4B60190E018D3E8CF912C212CC4
S1131980312CFFE1F315D8F08B3279F038F4803242
S113199079F08332A1F4232D20611DC08D3261F0D2
S11319A0803369F4232D216016C0832D8260382E84
S11319B0E32DE4603E2E2AC0F32DF8601DC037FCF1
S11319C02DC020ED280F2A3040F08E32B9F436FCB9
S11319D075C1232D2064322E19C036FE06C08AE05C
S11319E0989E200D1124922E11C0EAE02E9E200D07
S11319F01124222EF32DF0623F2E08C08C3621F4E0
S1131A00832D8068382E02C0883641F4F70193FD97
S1131A10859193FF81917F018111B3CF982F9F7D91
S1131A209554933028F40C5F1F4F9FE399830DC0A6
S1131A30833631F0833771F0833509F055C020C007
S1131A40F801808189830E5F1F4F88248394912C31
S1131A50530112C02801F2E04F0E511CF801A0807E
S1131A60B18036FE03C0692D70E002C06FEF7FEFD6
S1131A70C50190D24C018201F32DFF773F2E15C092
S1131A80280122E0420E511CF801A080B18036FEEC
S1131A9003C0692D70E002C06FEF7FEFC50168D20B
S1131AA04C01F32DF0683F2E820133FC19C0822DC6
S1131AB090E088169906A0F4B60180E290E075D211
S1131AC02A94F5CFF50137FC859137FE81915F01AA
S1131AD0B60190E06AD221102A9421E0821A91087A
S1131AE08114910479F7E1C0843611F0893639F50F
S1131AF0F80137FE07C060817181828193810C5F98
S1131B001F4F08C060817181072E000C880B990B50
S1131B100E5F1F4FF32DFF763F2E97FF09C0909560
S1131B208095709561957F4F8F4F9F4FF0683F2E42
S1131B302AE030E0A30175D2882E861844C0853788
S1131B4031F4232D2F7EB22E2AE030E025C0932DD0
S1131B50997FB92E8F36C1F018F4883579F0AEC06C
S1131B60803719F0883721F0A9C0E92FE061BE2E33
S1131B70B4FE0DC0FB2DF460BF2E09C034FE0AC0B4
S1131B80292F2660B22E06C028E030E005C020E1EF
S1131B9030E002C020E132E0F801B7FE07C0608106
S1131BA07181828193810C5F1F4F06C060817181B6
S1131BB080E090E00E5F1F4FA30133D2882E861879
S1131BC0FB2DFF773F2E36FE0DC0232D2E7FA22E38
S1131BD0891458F434FE0BC032FC09C0832D8E7E68
S1131BE0A82E05C0B82CA32C03C0B82C01C0B92C56
S1131BF0A4FE0FC0FE01E80DF11D8081803321F4A5
S1131C009A2D997EA92E09C0A2FE06C0B394B3945E
S1131C1004C08A2D867809F0B394A3FC10C0A0FEFA
S1131C2006C0B21480F4280C922C9B180DC0B21478
S1131C3058F4B60180E290E0B8D1B394F8CFB2146E
S1131C4018F42B1802C0982C212CA4FE0FC0B60146
S1131C5080E390E0AAD1A2FE16C0A1FC03C088E7ED
S1131C6090E002C088E590E0B6010CC08A2D867829
S1131C7051F0A1FE02C08BE201C080E2A7FC8DE21C
S1131C80B60190E092D1891430F4B60180E390E07B
S1131C908CD19A94F8CF8A94F301E80DF11D8081D8
S1131CA0B60190E082D18110F6CF222009F44ECE05
S1131CB0B60180E290E079D12A94F7CFF6018681CB
S1131CC0978102C08FEF9FEF2B960FB6F894DEBF7B
S1131CD00FBECDBFDF91CF911F910F91FF90EF9079
S1131CE0DF90CF90BF90AF909F908F907F906F9038
S1131CF05F904F903F902F9008950F931F93CF9331
S1131D00DF93869F8001879F100D969F100D1124ED
S1131D10C8010DD0EC01009721F0A80160E070E04B
S1131D2032D1CE01DF91CF911F910F9108950F937E
S1131D301F93CF93DF938230910510F482E090E0FB
S1131D40E0919202F091930220E030E0A0E0B0E054
S1131D50309719F140815181028113814817590745
S1131D60C8F08417950769F4109731F012960C9314
S1131D70129713961C9327C0009392021093930218
S1131D8022C02115310519F04217530718F49A019E
S1131D90BD01EF01DF01F801DBCF21153105F9F0B9
S1131DA0281B390B2430310580F48A819B8161150D
S1131DB0710521F0FB019383828304C09093930205
S1131DC080939202FE01329644C0FE01E20FF31F9B
S1131DD08193919322503109398328833AC0209109
S1131DE0900230919102232B41F420910202309110
S1131DF003023093910220939002209100023091CB
S1131E0001022115310541F42DB73EB7409104027A
S1131E1050910502241B350BE0919002F091910240
S1131E20E217F307A0F42E1B3F0B2817390778F0AD
S1131E30AC014E5F5F4F2417350748F04E0F5F1F0C
S1131E4050939102409390028193919302C0E0E0F9
S1131E50F0E0CF01DF91CF911F910F910895CF93BF
S1131E60DF93009709F481C0FC0132971382128238
S1131E70A0919202B0919302109781F42081318154
S1131E80820F931F209190023091910228173907F5
S1131E9051F5F0939102E093900267C0ED0120E0C8
S1131EA030E0CE17DF0740F44A815B819E01411583
S1131EB05105F1F0EA01F5CFD383C283408151810A
S1131EC0840F951FC817D90759F488819981840F05
S1131ED0951F0296918380838A819B819383828359
S1131EE02115310529F4F0939302E09392023DC049
S1131EF0E901FB83EA8349915991C40FD51FEC177B
S1131F00FD0761F480819181840F951F0296E90198
S1131F1099838883828193819B838A83E0E0F0E0C4
S1131F2012968D919C911397009719F0FD01DC0195
S1131F30F7CF8D919C9111979D012E5F3F4F820F9A
S1131F40931F20919002309191022817390769F468
S1131F50309729F4109293021092920202C01382D5
S1131F601282B0939102A0939002DF91CF910895D1
S1131F70FC010590615070400110D8F78095909550
S1131F808E0F9F1F0895DC0101C06D934150504096
S1131F90E0F70895FC016150704001900110D8F7FA
S1131FA0809590958E0F9F1F08950F931F93CF9345
S1131FB0DF93FB01238121FD03C08FEF9FEF2CC032
S1131FC022FF16C046815781248135814217530769
S1131FD044F4A081B1819D012F5F3F4F3183208361
S1131FE08C93268137812F5F3F4F3783268314C01C
S1131FF08B01EC01FB010084F185E02D1995892BFF
S1132000E1F6D80116968D919C9117970196179633
S11320109C938E931697CE01DF91CF911F910F91D0
S11320200895FA01AA27283051F1203181F1E8946A
S11320306F936E7F6E5F7F4F8F4F9F4FAF4FB1E0B7
S11320403ED0B4E03CD0670F781F891F9A1FA11DB2
S1132050680F791F8A1F911DA11D6A0F711D811DB3
S1132060911DA11D20D009F468943F912AE0269F78
S113207011243019305D3193DEF6CF010895462FD7
S11320804770405D4193B3E00FD0C9F7F6CF462FB8
S11320904F70405D4A3318F0495D31FD4052419321
S11320A002D0A9F7EACFB4E0A695979587957795DE
S11320B06795BA95C9F700976105710508959B0165
S11320C0AC010A2E06945795479537952795BA95EE
S11320D0C9F7620F731F841F951FA01D0895F894FC
S10520E0FFCF2C
S11320E2000094022000F82D2D2D2D2D2D2D2D2DA7
S11320F22D2D2D2D2D2D2D2D2D2D2D2D2D2D2D3601
S11321022D2D2D2D2D2D2D2D2D2D2D2D2D2D2D0A1C
S11321120A0A0A0A0A0D005472616E736D697474B4
S10F2122696E67206D657373616765006A
S9030000FC
