S00F00006279676765726E2E7372656327
S1130000D9C00000F7C00000F5C00000F3C0000034
S1130010F1C00000FFC00000EDC00000EBC0000014
S1130020E9C00000E7C00000E5C00000E3C0000034
S1130030E1C00000DFC00000DDC00000DBC0000044
S1130040D9C00000D7C00000D5C00000D3C0000054
S1130050D1C00000CFC00000CDC00000CBC0000064
S1130060C9C00000C7C00000C5C00000C3C0000074
S1130070C1C00000BFC00000BDC00000BBC0000084
S1130080B9C00000B8C00000B5C00000B3C0000093
S1130090B1C00000AFC00000ADC000003AC4000011
S11300A0A9C00000A7C00000A5C00000A3C00000B4
S11300B0A1C000009FC000009DC000009BC00000C4
S11300C099C0000097C0000095C0000093C00000D4
S11300D091C000008FC000008DC000008BC00000E4
S11300E089C00000A704F904F904F904F904F90427
S11300F0F904F904A704F904F904F904F904F90466
S1130100F904F904A904F904F904F904F904F90453
S1130110F904F904F904F904F904F904F904F904F3
S1130120F904F904A904F904F904F904F904F90433
S1130130F904F904F904F904F904F904F904F904D3
S1130140F904F904F504F904F904F904F904F904C7
S1130150F904F904D204F904F904F904F904F904DA
S1130160F904F904F904F904F904F904F904F904A3
S1130170F904F904C604F904F904F904F904F904C6
S1130180F904F904E404084AD73B3BCE016E84BC6D
S1130190BFFDC12F3D6C74319ABD56833DDA3D00DD
S11301A0C77F11BED9E4BB4C3E916BAAAABE000026
S11301B000803F0011241FBECFEFD1E2DEBFCDBFD0
S11301C000E00CBF14E0A0E0B2E0E8E7F8E100E0F2
S11301D00BBF02C007900D92AE30B107D9F724E0EF
S11301E0AEE0B4E001C01D92A433B207E1F721D020
S11301F00C943A0C05CF1F920F920FB60F92112454
S11302008F9381E080930F048F910F900FBE0F9016
S11302101F9018951F920F920FB60F9211248F936F
S113022081E080930E048F910F900FBE0F901F906A
S11302301895CF93DF93CDB7DEB72B970FB6F8940D
S1130240DEBF0FBECDBFA5D287E092E09F938F9310
S11302500FD787E595E09A87898783E08B878DE0C0
S1130260898386E18A8381E28B832FEF87EA91E693
S1130270215080409040E1F700C0000060E070E051
S113028080E090E45AD280E0F4D00F900F9008E31D
S113029012E00F2EF4E9EF2EF12CF02DA6D280916E
S11302A00E04882381F0F8941F930F93E1D61092E3
S11302B00E0411D0DAD1FBD140E06CE283E0B1D07E
S11302C078940F900F9080910F04882339F3F701ED
S11302D011821082E3CFCF92DF92EF92FF920F93BD
S11302E01F93CF93DF93CDB7DEB72B970FB6F89458
S11302F0DEBF0FBECDBF8BEA92E09F938F93B8D63B
S113030082E67ED0182F81E67BD012951695177061
S113031028E0829FC0011124810F911D9A8789874B
S113032089859A859F938F938DEB92E09F938F930A
S11303309FD685E665D08F708B8785E661D08F70F8
S11303401F928F938CEC92E09F938F9391D68B8521
S11303500FB6F894DEBF0FBECDBF882309F110E0BD
S11303600F2EF1EACF2EF2E0DF2EF02DE12EF12C4C
S113037086E6810F45D0E1E0F0E0EC0FFD1FEE0DC5
S1130380FF1D808380811F928F93DF92CF9270D65E
S11303901F5F8B850F900F900F900F908113E6CF06
S11303A089859A858130910519F0029771F019C0F9
S11303B0E980FA800B811C812D813E814F81588513
S11303C069857A858B85F2D00CC0E980FA800B812F
S11303D01C812D813E814F81588569857A858B8565
S11303E017D22B960FB6F894DEBF0FBECDBFDF91A8
S11303F0CF911F910F91FF90EF90DF90CF900895D0
S1130400CF93C82F60E087E047D283E03AD28C2FA5
S113041038D23CD2C82F61E087E03ED28C2FCF91F6
S113042008951F93CF93DF93D82F162FC42F60E026
S113043087E032D285E025D2812F23D28D2F21D29D
S11304408C2F1FD261E087E027D2DF91CF911F91DB
S1130450089560E087E020D283EE92E09F938F932B
S113046007D680EC0ED261E087E016D20F900F9091
S11304700895CF93DF93C82FECDF8EE0C1DF807E39
S1130480803861F01F928F938FEE92E09F938F9349
S1130490EFD50F900F900F900F9032C04C2F4C60FF
S11304A06FE08EEEBEDF41E06BE28FEFBADF40E635
S11304B060E680E6B6DF2FEF83EC99E021508040C0
S11304C09040E1F700C000008EE09ADFD82FD07E84
S11304D0CD1759F01F92DF938AE093E09F938F9397
S11304E0C7D50F900F900F900F901F92DF938AE261
S11304F093E09F938F93BCD50F900F900F900F9024
S1130500DF91CF91089589E393E09F938F93B0D5C2
S1130510AFD180E593E09F938F93AAD580E4A9DFC0
S113052088E693E09F938F93A3D5EC9AEAE6F0E0F4
S113053080818260808380818E7F80838DB1807191
S11305408DB92FEF83EC99E0215080409040E1F782
S113055000C0000085E793E09F938F9389D58EE0D8
S11305604FDF1F928F938EE893E09F938F9380D5F4
S11305708DB79EB70C960FB6F8949EBF0FBE8DBF75
S113058008958098AAE7B0E08C9187608C93ECE79B
S1130590F0E080818F7D808380818F77808380816C
S11305A0806480838C9180688C9308958F929F924D
S11305B0AF92BF92EF92FF920F931F93CF93DF936B
S11305C0CDB7DEB72B970FB6F894DEBF0FBECDBF05
S11305D0E982FA820B831C832D833E834F835887E1
S11305E069877A878B8789859A85019769F58981D7
S11305F007E114E0F80180838A8181836081F180BE
S1130600062E000C770B880B990B9AD34B015C01D7
S11306106F2DFF0C770B880B990B92D3A5019401D6
S11306209DD220E030E044EB53E46AD420E030E093
S113063040E05FE365D423EC35EF48E450E4E5D2D1
S11306404CD3F801738362832B960FB6F894DEBF04
S11306500FBECDBFDF91CF911F910F91FF90EF900F
S1130660BF90AF909F908F900895E7E1F4E02281CE
S11306703381918180813F932F93292F092E000C80
S1130680330B3F939F93282F082E000C330B3F937B
S11306908F9389E993E09F938F93EAD48DB79EB7A4
S11306A008960FB6F8949EBF0FBE8DBF0895609153
S11306B01704062E000C770B880B990B41D320E00E
S11306C030E048EC52E4D7D120E030E048E453E491
S11306D09CD229E939E949E95FE312D426E636E6F2
S11306E046E65FE3C8D19B01AC0160E070E080E4C2
S11306F090E4C0D122C00895259AE1E8F0E0808119
S1130700887F8083808182608083A0E8B0E08C91C0
S113071082608C938081886180838C9180688C93C3
S113072080E49CE9909387008093860088EB9BE0AB
S113073090938900809388000895CF92DF92EF927E
S1130740FF926B017C0126E636E646E65FE3CDD3F5
S11307508823D4F026E636E646E050E4C701B60125
S113076050D218168CF020E030E040EA51E4C70182
S1130770B6014BD220E030E44CE157E4C1D3B2D20D
S11307807093890060938800FF90EF90DF90CF9082
S11307900895F89487E690E052D182EB93E09F931A
S11307A08F9366D4B0DE88EC93E09F938F9360D4EC
S11307B0A3DF8BED93E09F938F935AD4E2DE88EE10
S11307C093E09F938F9354D484D00BD098D0789493
S11307D08DB79EB708960FB6F8949EBF0FBE8DBF17
S11307E0089583B7817F83BF089580B7886880BFE9
S11307F0EAE7F0E080818F77808383B7816083BFED
S1130800889583B78E7F83BF8081806880830895B5
S1130810EF92FF920F931F93CF93DF93CDB7DEB781
S11308202B970FB6F894DEBF0FBECDBFE982FA82D4
S11308300B831C832D833E834F83588769877A8774
S11308408B8789859A85029731F48981E6E2F4E001
S113085080838A8181832B960FB6F894DEBF0FBE06
S1130860CDBFDF91CF911F910F91FF90EF9008952D
S113087084B1876084B9279A8CB581658CBD2F9A21
S113088008958EBD0DB407FEFDCF08951EBC0DB4B2
S113089007FEFDCF8EB50895662369F045B121E0CA
S11308A030E0B90102C0660F771F8A95E2F7CB01E9
S11308B0842B85B9089545B121E030E0B90102C027
S11308C0660F771F8A95E2F7CB018095842385B95B
S11308D00895E1E7F0E080818460808310929500C0
S11308E01092940080E38093900085E080939100BF
S11308F085E39CE090939B0080939A0008958CE09C
S11309008093B8008FEF8093BB0084E08093BC0099
S113091008951F920F920FB60F9211240BB60F92E7
S11309202F933F938F939F93AF93BF93EF93FF9333
S1130930E091B9008E2F90E0FC013897E135F10584
S113094008F057C08827EE58FF4F8F4F3FC31092CF
S11309501004E091100480911204E81770F481E00F
S11309608E0F80931004F0E0ED5EFB4F8081809346
S1130970BB0085E88093BC0043C080911104816072
S11309808093110484E98093BC003AC0E091100480
S113099081E08E0F809310048091BB00F0E0ED5E47
S11309A0FB4F80832091100430E08091120490E08A
S11309B001972817390724F485EC8093BC0020C0E4
S11309C085E88093BC001CC08091BB00E0911004BA
S11309D0F0E0ED5EFB4F8083809111048160809391
S11309E0110484E98093BC000BC085EA8093BC00A9
S11309F007C08091B9008093060284E08093BC0014
S1130A00FF91EF91BF91AF919F918F913F912F9162
S1130A100F900BBE0F900FBE0F901F901895E0EC37
S1130A20F0E0908195FFFDCF8093C6000895E0EC3F
S1130A30F0E080818823ECF78091C60008959093BC
S1130A40C5008093C40088E18093C1008EE0809348
S1130A50C20067E175E08FE095E0C0D2909329046D
S1130A608093280487EF93E09F938F9301D30F9093
S1130A700F9008955058BB27AA270ED0FCC1EDD182
S1130A8030F0F2D120F031F49F3F11F41EF4BDC1D7
S1130A900EF4E095E7FBB3C1E92FFED180F3BA175A
S1130AA0620773078407950718F071F49EF516C260
S1130AB00EF4E0950B2EBA2FA02D0B01B901900175
S1130AC00C01CA01A0011124FF27591B99F0593FB9
S1130AD050F4503E68F11A16F040A22F232F342F01
S1130AE04427585FF3CF469537952795A795F0404F
S1130AF05395C9F77EF41F16BA0B620B730B840B64
S1130B00BAF09150A1F0FF0FBB1F661F771F881F1B
S1130B10C2F70EC0BA0F621F731F841F48F4879573
S1130B2077956795B795F7959E3F08F0B3CF939562
S1130B30880F08F09927EE0F9795879508958DD122
S1130B4058F080E891E009F49EEF8ED128F040E857
S1130B5051E059F45EEF09C058C1C0C1E92FE078F3
S1130B609BD168F3092E052AC1F3261737074807D6
S1130B70590738F00E2E07F8E02569F0E025E06407
S1130B800AC0EF6307F8009407FADB01B9019D017D
S1130B90DC01CA01AD01EF9347D06DD10AD05F915A
S1130BA0552331F02BED3FE049E450FD49EC63CF90
S1130BB00895DF93DD27B92FBF7740E85FE316166A
S1130BC0170648075B0710F4D92F93D19F938F938F
S1130BD07F936F93F8D1E6E8F1E01AD14CD12F91CD
S1130BE03F914F915F9198D1DD2349F09058A2EA4B
S1130BF02AED3FE049EC5FE3D0785D274DDFDF91DC
S1130C003AC1D9D008F481E008950CD034C12CD174
S1130C1040F023D130F021F45F3F19F0F0C05111BE
S1130C205EC1F3C039D198F39923C9F35523B1F3C5
S1130C30951B550BBB27AA2762177307840738F047
S1130C409F5F5F4F220F331F441FAA1FA9F333D0A6
S1130C500E2E3AF0E0E830D091505040E695001C5A
S1130C60CAF729D0FE2F27D0660F771F881FBB1F16
S1130C70261737074807AB07B0E809F0BB0B802DF0
S1130C80BF01FF2793585F4F2AF09E3F510568F03C
S1130C90B6C025C15F3FECF3983EDCF386957795AB
S1130CA06795B795F7959F5FC9F7880F911D96953E
S1130CB0879597F90895E1E0660F771F881FBB1F9A
S1130CC0621773078407BA0720F0621B730B840B47
S1130CD0BA0BEE1F88F7E095089504D06894B1111B
S1130CE0FEC00895E1D088F09F5790F0B92F99275E
S1130CF0B751A0F0D1F0660F771F881F991F1AF023
S1130D00BA95C9F712C0B13081F0E8D0B1E00895C6
S1130D10E5C0672F782F8827B85F39F0B93FCCF347
S1130D20869577956795B395D9F73EF49095809518
S1130D30709561957F4F8F4F9F4F0895E89409C038
S1130D4097FB3EF490958095709561957F4F8F4FFA
S1130D509F4F9923A9F0F92F96E9BB279395F69510
S1130D60879577956795B795F111F8CFFAF4BB0F8E
S1130D7011F460FF1BC06F5F7F4F8F4F9F4F16C0F2
S1130D80882311F096E911C0772321F09EE8872F7C
S1130D90762F05C0662371F096E8862F70E060E038
S1130DA02AF09A95660F771F881FDAF7880F9695B1
S1130DB0879597F90895990F0008550FAA0BE0E855
S1130DC0FEEF16161706E807F907C0F01216130609
S1130DD0E407F50798F0621B730B840B950B39F449
S1130DE00A2661F0232B242B252B21F408950A26AF
S1130DF009F4A140A6958FEF811D811D089597F9EF
S1130E009F6780E870E060E008959FEF80EC0895AC
S1130E10DF93CF931F930F93FF92EF92DF927B01A7
S1130E208C01689405C0DA2EEF0176D0FE01E894B7
S1130E30A5912591359145915591AEF3EF012CDEA5
S1130E40FE019701A801DA9479F7DF90EF90FF9003
S1130E500F911F91CF91DF91089500240A941616E3
S1130E60170618060906089500240A941216130694
S1130E70140605060895092E0394000C11F4882322
S1130E8052F0BB0F40F4BF2B11F460FF04C06F5F3E
S1130E907F4F8F4F9F4F089557FD9058440F551F14
S1130EA059F05F3F71F04795880F97FB991F61F0E8
S1130EB09F3F79F087950895121613061406551F5F
S1130EC0F2CF4695F1DF08C0161617061806991FCB
S1130ED0F1CF86957105610508940895E894BB27C0
S1130EE066277727CB0197F9089565DF08F48FEF1C
S1130EF008959B01AC0160E070E080E89FE385CE3B
S1130F000BD0B9CFAADF28F0AFDF18F0952309F092
S1130F1076CF7BCF1124E3CFBFDFA0F3959FD1F32E
S1130F20950F50E0551F629FF001729FBB27F00D93
S1130F30B11D639FAA27F00DB11DAA1F649F6627E8
S1130F40B00DA11D661F829F2227B00DA11D621F37
S1130F50739FB00DA11D621F839FA00D611D221FF1
S1130F60749F3327A00D611D231F849F600D211DD5
S1130F70822F762F6A2F11249F5750408AF0E1F078
S1130F8088234AF0EE0FFF1FBB1F661F771F881FC1
S1130F9091505040A9F79E3F510570F030CF9FCF3C
S1130FA05F3FECF3983EDCF3869577956795B795AC
S1130FB0F795E7959F5FC1F7FE2B880F911D9695D6
S1130FC0879597F908959B01AC019ACFEE0FFF1F07
S1130FD0881F8BBF0790F691E02D19940F931F93F0
S1130FE0CF93DF93009731F46115710519F480E014
S1130FF090E039C08B01EC016EE070E081E090E09C
S113100047D2FC01892B99F380E8838301151105EC
S113101071F01387028781E8838380912A04909179
S11310202B04892B21F4F0932B04E0932A042097BA
S1131030C9F0D187C08783818260838380912C0427
S113104090912D04892B71F4F0932D04E0932C04DA
S113105080912E0490912F04892B21F4F0932F0476
S1131060E0932E04CF01DF91CF911F910F9108954A
S1131070CF93DF93CDB7DEB7AE014A5F5F4FFA017E
S113108061917191AF0180912C0490912D0403D052
S1131090DF91CF9108952F923F924F925F926F927A
S11310A07F928F929F92AF92BF92CF92DF92EF92F4
S11310B0FF920F931F93CF93DF93CDB7DEB72B9798
S11310C00FB6F894DEBF0FBECDBF6C017B018A0161
S11310D0FC0117821682838181FFBFC1CE01019674
S11310E03C01F6019381F70193FD859193FF819172
S11310F07F01882309F4ADC1853239F493FD8591CC
S113110093FF81917F01853221F4B60190E018D3D9
S1131110E8CF912C212C312CFFE1F315D8F08B3240
S113112079F038F4803279F08332A1F4232D2061F0
S11311301DC08D3261F0803369F4232D216016C007
S1131140832D8260382EE32DE4603E2E2AC0F32DD9
S1131150F8601DC037FC2DC020ED280F2A3040F068
S11311608E32B9F436FC75C1232D2064322E19C099
S113117036FE06C08AE0989E200D1124922E11C0DE
S1131180EAE02E9E200D1124222EF32DF0623F2E34
S113119008C08C3621F4832D8068382E02C088362E
S11311A041F4F70193FD859193FF81917F018111B2
S11311B0B3CF982F9F7D9554933028F40C5F1F4F25
S11311C09FE399830DC0833631F0833771F0833503
S11311D009F055C020C0F801808189830E5F1F4F3C
S11311E088248394912C530112C02801F2E04F0EFD
S11311F0511CF801A080B18036FE03C0692D70E057
S113120002C06FEF7FEFC50190D24C018201F32D34
S1131210FF773F2E15C0280122E0420E511CF80131
S1131220A080B18036FE03C0692D70E002C06FEF6C
S11312307FEFC50168D24C01F32DF0683F2E820187
S113124033FC19C0822D90E088169906A0F4B601EB
S113125080E290E075D22A94F5CFF50137FC8591B0
S113126037FE81915F01B60190E06AD221102A9481
S113127021E0821A91088114910479F7E1C084363F
S113128011F0893639F5F80137FE07C060817181A4
S1131290828193810C5F1F4F08C060817181072E8A
S11312A0000C880B990B0E5F1F4FF32DFF763F2E1A
S11312B097FF09C090958095709561957F4F8F4FEA
S11312C09F4FF0683F2E2AE030E0A30175D2882EAC
S11312D0861844C0853731F4232D2F7EB22E2AE0A0
S11312E030E025C0932D997FB92E8F36C1F018F4C4
S11312F0883579F0AEC0803719F0883721F0A9C05D
S1131300E92FE061BE2EB4FE0DC0FB2DF460BF2EAC
S113131009C034FE0AC0292F2660B22E06C028E078
S113132030E005C020E130E002C020E132E0F80105
S1131330B7FE07C060817181828193810C5F1F4F6A
S113134006C06081718180E090E00E5F1F4FA301B1
S113135033D2882E8618FB2DFF773F2E36FE0DC024
S1131360232D2E7FA22E891458F434FE0BC032FC98
S113137009C0832D8E7EA82E05C0B82CA32C03C0D3
S1131380B82C01C0B92CA4FE0FC0FE01E80DF11D5C
S11313908081803321F49A2D997EA92E09C0A2FE62
S11313A006C0B394B39404C08A2D867809F0B3942C
S11313B0A3FC10C0A0FE06C0B21480F4280C922C2A
S11313C09B180DC0B21458F4B60180E290E0B8D175
S11313D0B394F8CFB21418F42B1802C0982C212C13
S11313E0A4FE0FC0B60180E390E0AAD1A2FE16C00D
S11313F0A1FC03C088E790E002C088E590E0B60154
S11314000CC08A2D867851F0A1FE02C08BE201C087
S113141080E2A7FC8DE2B60190E092D1891430F409
S1131420B60180E390E08CD19A94F8CF8A94F301CA
S1131430E80DF11D8081B60190E082D18110F6CFD4
S1131440222009F44ECEB60180E290E079D12A94AC
S1131450F7CFF6018681978102C08FEF9FEF2B961D
S11314600FB6F894DEBF0FBECDBFDF91CF911F91B1
S11314700F91FF90EF90DF90CF90BF90AF909F902F
S11314808F907F906F905F904F903F902F90089532
S11314900F931F93CF93DF93869F8001879F100D37
S11314A0969F100D1124C8010DD0EC01009721F076
S11314B0A80160E070E032D1CE01DF91CF911F919D
S11314C00F9108950F931F93CF93DF93823091056B
S11314D010F482E090E0E0913204F091330420E0D3
S11314E030E0A0E0B0E0309719F1408151810281F1
S11314F0138148175907C8F08417950769F41097A2
S113150031F012960C93129713961C9327C00093F4
S113151032041093330422C02115310519F0421707
S1131520530718F49A01BD01EF01DF01F801DBCF85
S113153021153105F9F0281B390B2430310580F4CD
S11315408A819B816115710521F0FB01938382835C
S113155004C09093330480933204FE01329644C055
S1131560FE01E20FF31F81939193225031093983D5
S113157028833AC02091300430913104232B41F464
S113158020910202309103023093310420933004FD
S113159020910002309101022115310541F42DB74B
S11315A03EB74091040250910502241B350BE09193
S11315B03004F0913104E217F307A0F42E1B3F0B23
S11315C02817390778F0AC014E5F5F4F24173507B1
S11315D048F04E0F5F1F50933104409330048193C1
S11315E0919302C0E0E0F0E0CF01DF91CF911F9131
S11315F00F910895CF93DF93009709F481C0FC0104
S1131600329713821282A0913204B091330410975E
S113161081F420813181820F931F20913004309115
S113162031042817390751F5F0933104E09330045D
S113163067C0ED0120E030E0CE17DF0740F44A81B7
S11316405B819E0141155105F1F0EA01F5CFD38389
S1131650C28340815181840F951FC817D90759F45B
S113166088819981840F951F0296918380838A8152
S11316709B81938382832115310529F4F0933304EC
S1131680E09332043DC0E901FB83EA834991599117
S1131690C40FD51FEC17FD0761F480819181840F7D
S11316A0951F0296E90199838883828193819B83A4
S11316B08A83E0E0F0E012968D919C911397009755
S11316C019F0FD01DC01F7CF8D919C9111979D01DB
S11316D02E5F3F4F820F931F2091300430913104CD
S11316E02817390769F4309729F4109233041092BB
S11316F0320402C013821282B0933104A0933004E6
S1131700DF91CF910895FC01059061507040011064
S1131710D8F7809590958E0F9F1F0895DC0101C026
S11317206D9341505040E0F70895FC0161507040C2
S113173001900110D8F7809590958E0F9F1F089502
S11317400F931F93CF93DF93FB01238121FD03C0EC
S11317508FEF9FEF2CC022FF16C046815781248152
S113176035814217530744F4A081B1819D012F5F55
S11317703F4F318320838C93268137812F5F3F4FE6
S11317803783268314C08B01EC01FB010084F185AF
S1131790E02D1995892BE1F6D80116968D919C912F
S11317A01797019617969C938E931697CE01DF9107
S11317B0CF911F910F910895FA01AA27283051F172
S11317C0203181F1E8946F936E7F6E5F7F4F8F4F6E
S11317D09F4FAF4FB1E03ED0B4E03CD0670F781FCD
S11317E0891F9A1FA11D680F791F8A1F911DA11DB2
S11317F06A0F711D811D911DA11D20D009F46894EB
S11318003F912AE0269F11243019305D3193DEF692
S1131810CF010895462F4770405D4193B3E00FD048
S1131820C9F7F6CF462F4F70405D4A3318F0495D33
S113183031FD4052419302D0A9F7EACFB4E0A69516
S11318409795879577956795BA95C9F70097610538
S1131850710508959B01AC010A2E0694579547958E
S113186037952795BA95C9F7620F731F841F951F83
S10B1870A01D0895F894FFCFB8
S1131878000034042000F80A0D2D2D2D2D2D2D2DBA
S11318882D2D2D2D2D2D2D2D2D2D2D2D2D2D2D2D7C
S11318982D2D2D2D2D2D2D2D2D2D2D2D2D2D2D2D6C
S11318A80A0A0A0A0A0A0D004D65737361676520FE
S11318B87265636569766564005472616E736D69F7
S11318C87474696E67206D65737361676500536529
S11318D86E64696E672077686F6C652069643A2066
S11318E82569000A0D7472616E736D697474696E8A
S11318F8672064617461206C656E6774683A20259A
S1131908690A0D007472616E736D697474696E6727
S113191820646174613A2025690900526563656928
S113192876696E67206D6573736167650057686FC4
S11319386C652069643A2025690A0D006461746144
S1131948206C656E67746820726561643A20256945
S11319580A0D0043414E2072657365740A0D004EEA
S11319686F7420696E20636F6E666967206D6F649B
S1131978652C20092025690A0D004E6F7420696EB4
S113198820636F7272656374206D6F64653A204DCD
S11319986F64653A2025690A0D004D6F64652073EC
S11319A865743A2025690A0D0043616E20636F6EE1
S11319B874726F6C6C657220696E6974200A0D000C
S11319C8535049206D617374657220696E6974207F
S11319D8646F6E65200A0D004D6F6465732073652E
S11319E874200A0D006166746572207772697465E3
S11319F820746F2063616E6374726C0A0D00446115
S1131A0874613A2025690A0D00583A202569095954
S1131A183A2025690A0D416E676C653A2025690AE2
S1131A280D0066696E697368656420756172742057
S1131A38736574757032290066696E6973686564C4
S1131A482063616E2073657475700066696E6973CE
S1131A586865642070776D0046696E6973686564AB
S1131A68207365747570007561727420736574757C
S1111A78702066696E69736865640A0D00006B
S9030000FC
