S00F00006279676765726E2E7372656327
S113000071C000008EC000008CC000008AC00000D7
S113001088C0000087C0000084C0000082C00000C7
S113002080C000007EC000007CC000007AC00000D8
S113003078C0000076C0000074C0000072C00000E8
S113004070C000006EC000006CC000006AC00000F8
S113005068C0000066C0000064C0000062C0000008
S113006060C000005EC000005CC000005AC0000018
S113007058C0000056C0000054C0000052C0000028
S113008050C000004EC000004CC000004AC0000038
S113009048C0000046C0000044C0000042C0000048
S11300A040C000003EC000003CC000003AC0000058
S11300B038C0000036C0000034C0000032C0000068
S11300C030C000002EC000002CC000002AC0000078
S11300D028C0000026C0000024C0000022C0000088
S11300E020C0000011241FBECFEFD1E2DEBFCDBF80
S11300F000E00CBF13E0A0E0B2E0EAE3F0E100E0CE
S11301000BBF02C007900D92A63EB107D9F724E0B9
S1130110A6EEB3E001C01D92A030B207E1F711D002
S11301208AC76ECF1F920F920FB60F9211248F932E
S113013081E08093E6038F910F900FBE0F901F9084
S11301401895CF93DF93CDB7DEB72B970FB6F894FE
S1130150DEBF0FBECDBF9BD286E092E09F938F930C
S113016068D387E595E09A87898783E08B878DE05C
S1130170898386E18A8381E28B830F900F900F2E0F
S1130180F7E3EF2EF2E0FF2EF02D08E412E02FEF5C
S113019089E698E1215080409040E1F700C00000DA
S11301A08091E603882389F0FF92EF9242D3109264
S11301B0E60389EE93E015D140E050E06CE270E094
S11301C083E090E097D10F900F902FEF89E698E1AC
S11301D0215080409040E1F700C00000CE0101961C
S11301E006D01F930F9325D30F900F90D0CFCF92AB
S11301F0DF92EF92FF920F931F93CF938C0188E7C6
S113020092E09F938F9315D38091E7039091E80335
S1130210019663E070E09CD2282F392F8093E70386
S11302209093E8030F900F902130310569F122304B
S1130230310509F441C0232B09F055C0F80140856C
S113024051854295440F407E50E062E370E080EEB9
S113025090E050D1F8016085718576956795769523
S113026067957695679581E332D1F801808591850C
S11302709F938F938DE892E09F938F93DAD20F90A0
S11302800F900F900F902FC0F80140855185429533
S1130290440F407E50E062E470E080EE90E02AD1AA
S11302A0F80160857185769567957695679576955D
S11302B0679581E40CD117C0F801408551854295BA
S11302C0440F407E50E062E570E080EE90E012D191
S11302D0F80160857185769567957695679576952D
S11302E0679581E5F4D08091E7039091E80381302C
S11302F09105D9F08230910509F1892B39F5F8017E
S113030082851F928F9382EA92E09F938F9391D27A
S1130310F801428550E065E370E08FE090E0EAD0B8
S11303200F900F900F900F9011C0F801428550E08C
S113033065E470E08FE090E0DDD008C0F80142850C
S113034050E065E570E08FE090E0D4D0F80182855C
S1130350882309F43BC0C0E00F2EF3ECCF2EF2E06B
S1130360DF2EF02D8091E7039091E8038130910511
S1130370C9F082309105F1F0892B19F57801EC0E62
S1130380F11CF70180811F928F93DF92CF9251D29B
S1130390F701608186E38C0F9AD00F900F900F9035
S11303A00F900FC0F801EC0FF11D608186E48C0FF3
S11303B08ED007C0F801EC0FF11D608186E58C0F2B
S11303C086D0CF5FF80182858C13CCCF8091E70370
S11303D0B9D0CF911F910F91FF90EF90DF90CF9004
S11303E00895CF92DF92EF92FF920F931F93CF93D2
S11303F07C0182E65BD0C82F81E658D0C295C695B1
S1130400C77028E0829FC00111248C0F911DF70151
S113041091878087808591859F938F938AED92E061
S11304209F938F9306D285E641D08F70F701828720
S113043085E63CD08F701F928F9389EE92E09F9354
S11304408F93F7D1F70182852DB73EB7285F3F4FD1
S11304500FB6F8943EBF0FBE2DBF8823F9F0C0E05D
S11304600F2EF0EDCF2EF2E0DF2EF02D0C2F10E04A
S113047086E68C0F1BD0F701E00FF11F808380818B
S11304801F928F93DF92CF92D4D1CF5FF7018285F1
S11304900F900F900F900F908C13E8CFCF911F9176
S11304A00F91FF90EF90DF90CF900895CF93C82FD6
S11304B060E087E005D183E0F8D08C2FF6D0FAD045
S11304C0C82F61E087E0FCD08C2FCF910895CF93A3
S11304D0DF93D82FC62F60E087E0F2D082E0E5D02A
S11304E08D2FE3D08C2FE1D061E087E0E9D0DF915C
S11304F0CF9108951F93CF93DF93D82F162FC42F36
S113050060E087E0DDD085E0D0D0812FCED08D2F84
S1130510CCD08C2FCAD061E087E0D2D0DF91CF91CC
S11305201F91089560E087E0CBD080E093E09F9333
S11305308F937FD180ECB9D061E087E0C1D00F9078
S11305400F900895CF93C82F60E087E0B9D0C130F1
S113055039F018F0C23039F008C081E8A6D005C0DF
S113056082E8A3D002C084E8A0D061E087E0A8D0EC
S1130570CF910895CF93DF93D82FD4DF8CE093E00D
S11305809F938F9356D18EE091DFC82F8DE193E036
S11305909F938F934ED18C2F807E0F900F900F904E
S11305A00F90803861F01F928F9384E393E09F93C0
S11305B08F933FD10F900F900F900F901EC04D2F2F
S11305C04C606FE08EEE96DF2FEF83EC99E02150C4
S11305D080409040E1F700C000008EE067DF807E3D
S11305E0D81759F01F928F938FE493E09F938F93C2
S11305F020D10F900F900F900F90DF91CF9108951D
S11306008FE693E09F938F9314D146D086E893E0CE
S11306109F938F930ED180E4ADDF40E660E680E6E1
S113062069DF41E06BE28FEF65DF8EE993E09F9332
S11306308F93FFD07894EC9AEAE6F0E080818260B0
S1130640808380818E7F80838DB180718DB92FEFFF
S113065083EC99E0215080409040E1F700C0000015
S11306608BEA93E09F938F93E4D08EE01FDF1F9279
S11306708F9384EC93E09F938F93DBD08DB79EB7D9
S11306800C960FB6F8949EBF0FBE8DBF089587E6F3
S113069090E043D0B5CF089584B1876084B9279A98
S11306A08CB581658CBD2F9A08958EBD0DB407FE5F
S11306B0FDCF08951EBC0DB407FEFDCF8EB5089581
S11306C0662369F045B121E030E0B90102C0660F4C
S11306D0771F8A95E2F7CB01842B85B9089545B13C
S11306E021E030E0B90102C0660F771F8A95E2F776
S11306F0CB018095842385B90895E0ECF0E09081E6
S113070095FFFDCF8093C6000895E0ECF0E0808172
S11307108823ECF78091C60008959093C5008093D8
S1130720C40088E18093C1008EE08093C20065E834
S113073073E08DE793E033D09093F5038093F40353
S11307408FEC93E09F938F9374D00F900F90089544
S113075097FB072E16F4009406D077FD08D00BD033
S113076007FC05D03EF4909581959F4F08957095B0
S113077061957F4F0895AA1BBB1B51E107C0AA1FB7
S1130780BB1FA617B70710F0A61BB70B881F991F2E
S11307905A95A9F780959095BC01CD0108950F93C2
S11307A01F93CF93DF93009731F46115710519F40A
S11307B080E090E039C08B01EC016EE070E081E0F4
S11307C090E047D2FC01892B99F380E883830115DB
S11307D0110571F01387028781E883838091F60302
S11307E09091F703892B21F4F093F703E093F60338
S11307F02097C9F0D187C0878381826083838091E9
S1130800F8039091F903892B71F4F093F903E093C1
S1130810F8038091FA039091FB03892B21F4F09360
S1130820FB03E093FA03CF01DF91CF911F910F9166
S11308300895CF93DF93CDB7DEB7AE014A5F5F4F24
S1130840FA0161917191AF018091F8039091F903DC
S113085003D0DF91CF9108952F923F924F925F92F0
S11308606F927F928F929F92AF92BF92CF92DF92BC
S1130870EF92FF920F931F93CF93DF93CDB7DEB721
S11308802B970FB6F894DEBF0FBECDBF6C017B0172
S11308908A01FC0117821682838181FFBFC1CE01C8
S11308A001963C01F6019381F70193FD859193FF35
S11308B081917F01882309F4ADC1853239F493FD18
S11308C0859193FF81917F01853221F4B60190E0F7
S11308D018D3E8CF912C212C312CFFE1F315D8F05B
S11308E08B3279F038F4803279F08332A1F4232DFD
S11308F020611DC08D3261F0803369F4232D2160A5
S113090016C0832D8260382EE32DE4603E2E2AC06B
S1130910F32DF8601DC037FC2DC020ED280F2A30C0
S113092040F08E32B9F436FC75C1232D2064322E8A
S113093019C036FE06C08AE0989E200D1124922E1E
S113094011C0EAE02E9E200D1124222EF32DF06218
S11309503F2E08C08C3621F4832D8068382E02C0C7
S1130960883641F4F70193FD859193FF81917F01CE
S11309708111B3CF982F9F7D9554933028F40C5F49
S11309801F4F9FE399830DC0833631F0833771F095
S1130990833509F055C020C0F801808189830E5F3A
S11309A01F4F88248394912C530112C02801F2E034
S11309B04F0E511CF801A080B18036FE03C0692D92
S11309C070E002C06FEF7FEFC50190D24C0182014D
S11309D0F32DFF773F2E15C0280122E0420E511C53
S11309E0F801A080B18036FE03C0692D70E002C01A
S11309F06FEF7FEFC50168D24C01F32DF0683F2EF5
S1130A00820133FC19C0822D90E088169906A0F467
S1130A10B60180E290E075D22A94F5CFF50137FC57
S1130A20859137FE81915F01B60190E06AD2211071
S1130A302A9421E0821A91088114910479F7E1C083
S1130A40843611F0893639F5F80137FE07C0608124
S1130A507181828193810C5F1F4F08C06081718115
S1130A60072E000C880B990B0E5F1F4FF32DFF769A
S1130A703F2E97FF09C090958095709561957F4FA3
S1130A808F4F9F4FF0683F2E2AE030E0A30175D2CC
S1130A90882E861844C0853731F4232D2F7EB22E3C
S1130AA02AE030E025C0932D997FB92E8F36C1F00E
S1130AB018F4883579F0AEC0803719F0883721F002
S1130AC0A9C0E92FE061BE2EB4FE0DC0FB2DF46079
S1130AD0BF2E09C034FE0AC0292F2660B22E06C0DC
S1130AE028E030E005C020E130E002C020E132E03F
S1130AF0F801B7FE07C060817181828193810C5F28
S1130B001F4F06C06081718180E090E00E5F1F4F2F
S1130B10A30133D2882E8618FB2DFF773F2E36FE95
S1130B200DC0232D2E7FA22E891458F434FE0BC041
S1130B3032FC09C0832D8E7EA82E05C0B82CA32CB0
S1130B4003C0B82C01C0B92CA4FE0FC0FE01E80DEF
S1130B50F11D8081803321F49A2D997EA92E09C03C
S1130B60A2FE06C0B394B39404C08A2D867809F01B
S1130B70B394A3FC10C0A0FE06C0B21480F4280CE9
S1130B80922C9B180DC0B21458F4B60180E290E088
S1130B90B8D1B394F8CFB21418F42B1802C0982C1F
S1130BA0212CA4FE0FC0B60180E390E0AAD1A2FEDE
S1130BB016C0A1FC03C088E790E002C088E590E07D
S1130BC0B6010CC08A2D867851F0A1FE02C08BE2DA
S1130BD001C080E2A7FC8DE2B60190E092D18914B5
S1130BE030F4B60180E390E08CD19A94F8CF8A94E3
S1130BF0F301E80DF11D8081B60190E082D18110EE
S1130C00F6CF222009F44ECEB60180E290E079D1ED
S1130C102A94F7CFF6018681978102C08FEF9FEF68
S1130C202B960FB6F894DEBF0FBECDBFDF91CF91E8
S1130C301F910F91FF90EF90DF90CF90BF90AF90F6
S1130C409F908F907F906F905F904F903F902F90E8
S1130C5008950F931F93CF93DF93869F8001879FFF
S1130C60100D969F100D1124C8010DD0EC010097B2
S1130C7021F0A80160E070E032D1CE01DF91CF9184
S1130C801F910F9108950F931F93CF93DF93823099
S1130C90910510F482E090E0E091FE03F091FF03EF
S1130CA020E030E0A0E0B0E0309719F140815181BC
S1130CB00281138148175907C8F08417950769F40E
S1130CC0109731F012960C93129713961C9327C029
S1130CD00093FE031093FF0322C02115310519F080
S1130CE04217530718F49A01BD01EF01DF01F8011F
S1130CF0DBCF21153105F9F0281B390B24303105E0
S1130D0080F48A819B816115710521F0FB01938335
S1130D10828304C09093FF038093FE03FE01329606
S1130D2044C0FE01E20FF31F8193919322503109D5
S1130D30398328833AC02091FC033091FD03232B8F
S1130D4041F420910202309103023093FD03209379
S1130D50FC0320910002309101022115310541F478
S1130D602DB73EB74091040250910502241B350B68
S1130D70E091FC03F091FD03E217F307A0F42E1BAE
S1130D803F0B2817390778F0AC014E5F5F4F2417EB
S1130D90350748F04E0F5F1F5093FD034093FC034B
S1130DA08193919302C0E0E0F0E0CF01DF91CF9115
S1130DB01F910F910895CF93DF93009709F481C099
S1130DC0FC01329713821282A091FE03B091FF03BB
S1130DD0109781F420813181820F931F2091FC03AD
S1130DE03091FD032817390751F5F093FD03E09383
S1130DF0FC0367C0ED0120E030E0CE17DF0740F4CC
S1130E004A815B819E0141155105F1F0EA01F5CF5C
S1130E10D383C28340815181840F951FC817D9079A
S1130E2059F488819981840F951F02969183808358
S1130E308A819B81938382832115310529F4F09360
S1130E40FF03E093FE033DC0E901FB83EA8349917C
S1130E505991C40FD51FEC17FD0761F4808191816E
S1130E60840F951F0296E901998388838281938177
S1130E709B838A83E0E0F0E012968D919C91139716
S1130E80009719F0FD01DC01F7CF8D919C9111972A
S1130E909D012E5F3F4F820F931F2091FC033091E1
S1130EA0FD032817390769F4309729F41092FF03DA
S1130EB01092FE0302C013821282B093FD03A0932A
S1130EC0FC03DF91CF910895FC01059061507040BF
S1130ED00110D8F7809590958E0F9F1F0895DC011F
S1130EE001C06D9341505040E0F70895FC016150FA
S1130EF0704001900110D8F7809590958E0F9F1F38
S1130F0008950F931F93CF93DF93FB01238121FD5A
S1130F1003C08FEF9FEF2CC022FF16C0468157817C
S1130F20248135814217530744F4A081B1819D0186
S1130F302F5F3F4F318320838C93268137812F5F2E
S1130F403F4F3783268314C08B01EC01FB010084DF
S1130F50F185E02D1995892BE1F6D80116968D912E
S1130F609C911797019617969C938E931697CE0192
S1130F70DF91CF911F910F910895FA01AA2728308C
S1130F8051F1203181F1E8946F936E7F6E5F7F4F52
S1130F908F4F9F4FAF4FB1E03ED0B4E03CD0670FCE
S1130FA0781F891F9A1FA11D680F791F8A1F911D21
S1130FB0A11D6A0F711D811D911DA11D20D009F471
S1130FC068943F912AE0269F11243019305D3193B3
S1130FD0DEF6CF010895462F4770405D4193B3E09C
S1130FE00FD0C9F7F6CF462F4F70405D4A3318F043
S1130FF0495D31FD4052419302D0A9F7EACFB4E0F4
S1131000A6959795879577956795BA95C9F70097AB
S11310106105710508959B01AC010A2E069457954C
S1131020479537952795BA95C9F7620F731F841FA3
S10D1030951FA01D0895F894FFCF4A
S113103A0000000420000A0D2D2D2D2D2D2D2D2DFF
S113104A2D2D2D2D2D2D2D2D2D2D2D2D2D2D2D2DC2
S113105A2D2D2D2D2D2D2D2D2D2D2D2D2D2D2D0AD5
S113106A0A0A0A0A0A0D004D6573736167652072DC
S113107A65636569766564000A0D2D2D2D2D2D2D68
S113108A2D2D2D2D2D2D2D2D2D2D2D2D2D2D2D2D82
S113109A2D2D2D2D2D2D2D2D2D2D2D2D2D2D2D2D72
S11310AA2D2D2D2D2D0A0D005472616E736D6974E8
S11310BA74696E67206D6573736167650053656E45
S11310CA64696E672077686F6C652069643A2025C5
S11310DA69000A0D7472616E736D697474696E675E
S11310EA2064617461206C656E6774683A202569AE
S11310FA0A0D007472616E736D697474696E672087
S113110A646174613A202569090057686F6C652027
S113111A69643A2025690A0D0064617461206C656A
S113112A6E67746820726561643A2025690A0D0045
S113113A43414E2072657365740A0D0043414E2083
S113114A726573657420646F6E650A0D0052656179
S113115A6420737461747573207265676973746546
S113116A720A0D004E6F7420696E20636F6E666991
S113117A67206D6F64652C20092025690A0D004ECD
S113118A6F7420696E20636F7272656374206D6F69
S113119A64653A204D6F64653A2025690A0D004357
S11311AA616E20636F6E74726F6C6C657220696E07
S11311BA6974200A0D00535049206D617374657275
S11311CA20696E697420646F6E65200A0D004D6F84
S11311DA64657320736574200A0D00616674657210
S11311EA20777269746520746F2063616E63747208
S11311FA6C0A0D00446174613A2025690A0D007570
S113120A6172742073657475702066696E69736897
S109121A65640A0D0000EA
S9030000FC
