S00F00006279676765726E2E7372656327
S11300000C946B010C9488010C9488010C94880165
S11300100C9488010C9488010C9488010C94880138
S11300200C9488010C9488010C9488010C94880128
S11300300C9488010C9488010C94F2040C948801AB
S11300400C9488010C9488010C9488010C94880108
S11300500C9488010C9488010C9488010C948801F8
S11300600C9488010C9488010C9488010C948801E8
S1130070084AD73B3BCE016E84BCBFFDC12F3D6C0B
S113008074319ABD56833DDA3D00C77F11BED9E471
S1130090BB4C3E916BAAAABE000000803F00646482
S11300A06464C80AC864056405640564C8640564B6
S11300B005640564C805C864056405640564C80B63
S11300C00200004B02000093020000BA020000107C
S11300D00300000000000010030000700300000093
S11300E00000007003000000000000700300000026
S11300F00000007003000010030000BA02000000BA
S1130100000000BA02000000000000BA0200000073
S1130110000000BA020000930200000000000093F7
S11301200200004B020000000000004B020000002F
S11301300000004B020000000000004B0200000B16
S11301400200006C78887380707C84738080707C7B
S113015004707C04707C04707C047380707C8473F1
S113016080738073807380738073807380738073F3
S113017080738073807380738073807380738073E3
S113018080807380738073807380807380807380B9
S11301907380730000B8010000000000000000003C
S11301A000B801000000000000B8010000000000D9
S11301B00000000000B80100000000000000000082
S11301C000B80100000000000000000000B80100B9
S11301D000000000000000000072010000000000A8
S11301E000000000003F03000000000000000000C9
S11301F000DC030000000000002A020000000000F0
S113020000000000007201000000000000930200E2
S113021000000000005404000000000000DB0300A4
S113022000000000005404000000000000E302008D
S11302300000000000260500000000000054040037
S11302400000000000DB030000000000002A0200A0
S113025000000000007101000000000000490100DE
S113026000000000001501000000000000ED010086
S113027000000000005404000000000000C7050056
S1130280000000000026050000000000000000003F
S113029000260500000000000054040000000000D7
S11302A000DC0400000000000093020000000000D5
S11302B0000000000026050000000000000000000F
S11302C0002605000000000000930200000000006A
S11302D0009F0100000011241FBECFEFD4E0DEBF59
S11302E0CDBF12E0A0E0B1E0E0E9FAE102C0059080
S11302F00D92AE34B107D9F722E0AEE4B2E001C00A
S11303001D92A836B207E1F70E9494010C94460DA1
S11303100C94000030980895846080930014289908
S1130320FECF8091001408950E94C50486E091E0F8
S11303300E942B0A0E9458020E94F4010E94A1010B
S1130340FDCFEF92FF920F931F93CF93DF93F89417
S113035080E291E09F938F930E94150A05E911E0D2
S11303600F900F90C0E0D0E00F2EFBE3EF2EF1E0F2
S1130370FF2EF02DDF93CF93FF92EF920E94150A88
S1130380F8016591749180E090E00E946802FE019A
S1130390ED5BFE4FE4918E2F90E0A0E0B0E00F9073
S11303A00F900F900F900097A105B10551F0ECEC60
S11303B0F4E03197F1F700C000000197A109B109F9
S11303C0B1F721960C5F1F4FC035D10599F660E057
S11303D070E0CB010E9468027894DF91CF911F9165
S11303E00F91FF90EF900895CF92DF92EF92FF92DA
S11303F00F931F93CF93DF93F89487E591E09F9336
S11304008F930E94150ACFEBD0E00EE910E00F2E77
S1130410F3E4CF2EF1E0DF2EF02D0F900F900F2E8E
S1130420F4E8EF2EF1E0FF2EF02DFE01859194917A
S11304309F938F93FF92EF920E94150AFE0165919C
S1130440749180E090E00E946802F801849190E049
S1130450880F991F880F991F092E000CAA0BBB0B3C
S11304600F900F900F900F900097A105B10551F0D8
S1130470ECECF4E03197F1F700C000000197A1091A
S1130480B109B1F724960F5F1F4FCC15DD0509F0B4
S1130490CCCF60E070E0CB010E9468027894DF91D9
S11304A0CF911F910F91FF90EF90DF90CF9008951F
S11304B081E087BB8FEF81BF80E883BF83B788600B
S11304C083BF83B7806183BF83B7816083BF08958F
S11304D0BF92CF92DF92EF92FF920F931F93CF932D
S11304E0DF939B01AC01672B682B692B21F483B745
S11304F0887F83BFAEC060E070E885E290E00E9430
S1130500520869017A01213081E03807410551051B
S1130510C8F1689412F8F694E794D794C7941694A3
S1130520D1F791E0C916D906E104F10490F169010B
S11305307A01689415F8F694E794D794C7941694BE
S1130540D1F781E0C816D806E104F10450F1C32EB6
S1130550D42EE52EFF2491E0C916D906E104F10456
S113056040F169017A010B2EBAE0F694E794D7942E
S1130570C794BA95D1F7B02DB12C04E010E0D0E0C7
S1130580C5E01CC0BB24B39400E010E0D0E0C1E09F
S113059015C06894BB24B3F800E010E0D0E0C2E0DA
S11305A00DC06894BB24B6F800E010E0D0E0C3E0CE
S11305B005C0B12C01E010E0D0E0C4E0FF92EF925E
S11305C0DF92CF92DF931F930F93BF928AE991E05A
S11305D09F938F930E94150AD701C6010197A10921
S11305E0B109BF93AF939F938F938CEB91E09F934B
S11305F08F930E94150A2B2D302F412F5D2FC70199
S1130600B6010E942E089B01AC01220F331F441F28
S1130610551F60E070E08BE490E00E9452085F9305
S11306204F933F932F9387EC91E09F938F930E9476
S1130630150A83B7887F83BF83B7C82BC3BFCA9407
S1130640C1BE8DB79EB746960FB6F8949EBF0FBE37
S11306508DBFDF91CF911F910F91FF90EF90DF90AD
S1130660CF90BF90089585B78F7E85BF84B78F7D67
S113067084BF86B78F7786BF85B7806285BF88952C
S113068085B78F7D85BF85B7806285BF089580E07B
S11306900E948C0180935B0281E00E948C01809314
S11306A05A020895CF92DF92EF92FF92CF93DF9395
S11306B080E00E948C01C82F81E00E948C01E82F09
S11306C060915B02C61780F470E02C2F30E0261B8B
S11306D0370B44E6429FC001439F900D11240E94B2
S11306E03E0860934E0214C0462F50E02C2F30E099
S11306F0241B350B64E6629FC001639F900D112497
S11307006FEF70E0641B750B0E943E0860934E020D
S113071020915A02E21788F4622F70E04E2F50E0C5
S1130720461B570B24E6249FC001259F900D1124DE
S11307300E943E0860934F0213C030E04E2F50E0F9
S1130740421B530B64E6649FC001659F900D112406
S11307506FEF70E0621B730B0E943E0860934F02C0
S1130760CEE4D2E06881062E000C770B880B990B3F
S11307700E9495066B017C016981062E000C770BA3
S1130780880B990B0E949506A70196010E948C057F
S113079020E030E044EB53E40E94500720E030E0D6
S11307A040E05FE30E94500723EC35EF48E450E457
S11307B00E94EB050E945D067B836A83DF91CF91E3
S11307C0FF90EF90DF90CF9008958FE190E00E942A
S11307D0A208FC01168E2AE0E8E0F2E0DC010190B8
S11307E00D922A95E1F7FC01118A108A0895CF929F
S11307F0DF92EF92FF920F931F93CF937C016B01D3
S11308008FE190E00E94A2088C01D7015E96EC91E2
S11308105E97C1E0CE0F5E96CC93B6010E94C309E9
S1130820F801F18AE08AC73078F4EC2FF0E03896CA
S1130830EE0FFF1FEE0DFF1D11830083D8015E969E
S11308401C92802F912F02C080E090E0CF911F91E5
S11308500F91FF90EF90DF90CF900895EF92FF9269
S11308600F931F93CF93DF930E94E5037C0162E112
S113087072E00E94F703EC016CE172E00E94F7035E
S113088063E272E0CE010E94F7036AE272E0C701FC
S11308900E94F7038C01C5E0D0E064E372E0C80174
S11308A00E94F7032197C9F76CE372E0C7010E9425
S11308B0F70365E472E00E94F703E2E5F2E0F182F7
S11308C0E082128284E08383C701DF91CF911F917C
S11308D00F91FF90EF9008958055E0E0F0E1808360
S11308E0862F8F70808362956F7060616083089536
S11308F01F93CF93DF9310E0C0E0D2E160E0812F3B
S11309000E946C0480E890E018820197E9F71F5F69
S11309101830A1F7DF91CF911F91089560E080E036
S11309200E946C040895E0E0F0E18EEA808381EA9D
S113093080838AED808382E1808388EC808388EAE7
S113094080838FE3808385ED808380E8808381E8E2
S1130950808380E5808389ED808381E2808380E2E7
S1130960808382E080838BED808380E380838DEAC3
S11309708083108284EA808386EA80838FEA80837E
S11309800E9478040E948E0408950E9472058FE1EB
S113099090E00E9461050E948A010E9447030E9420
S11309A034050E9493040E9424050E9433030E948C
S11309B02E040E94EB040895CF93DF9382E00E94FB
S11309C08C01C8E5D2E0888383E00E948C0189838E
S11309D0DF91CF91089580E187BB80EA87BB81E5F1
S11309E08DB908951F920F920FB60F9211242F9371
S11309F03F934F935F936F937F938F939F93AF93A3
S1130A00BF93EF93FF93F8941DBC1CBC8EE492E05B
S1130A100E94520388E592E00E94DC0486E592E09D
S1130A200E944D057894FF91EF91BF91AF919F91F2
S1130A308F917F916F915F914F913F912F910F9083
S1130A400FBE0F901F901895F89489B7806289BFE4
S1130A501DBC1CBC80E38FBD85E08EBD80EF90E0A3
S1130A6099BD88BD7894089536B326B347B33270E0
S1130A7081E090E0BC0102C0660F771F3A95E2F76F
S1130A80247002C0880F991F2A95E2F7862B972BB2
S1130A9080959095842387BB089586B3E6E5F2E0BC
S1130AA086958170808386B382FB882780F9818351
S1130AB008955D9BFECF8CB908955F9BFECF8CB1EA
S1130AC0089590BD89B988E18AB98EE880BD6DE545
S1130AD075E089E595E00E94CA0990935D028093D0
S1130AE05C02089585B7806885BF80B7886080BF41
S1130AF008950E94000760F080E891E009F49EEFF9
S1130B000E94070728F040E851E071F45EEF0CC042
S1130B100C94D6060C944107E92FE0780E941F0735
S1130B2040F3092E052AB1F326173707480759075A
S1130B3038F00E2E07F8E02569F0E025E0640AC0DD
S1130B40EF6307F8009407FADB01B9019D01DC01AA
S1130B50CA01AD01EF930E9402060E940E070E9493
S1130B60BC055F91552339F02BED3FE049E450FD7E
S1130B7049EC0C94C2070895DF93DD27B92FBF77A2
S1130B8040E85FE31616170648075B0718F4D92FE9
S1130B900E9448079F938F937F936F930E94BD0792
S1130BA0E0E7F0E00E94D9060E940E072F913F91E2
S1130BB04F915F910E946307DD2351F09058A2EAA0
S1130BC02AED3FE049EC5FE3D0785D270E94D90726
S1130BD0DF910C940E070E94FF050C940E070E94EF
S1130BE0070758F00E94000740F029F45F3F29F0FE
S1130BF00C94D00651110C9442070C94D6060E9412
S1130C001F0768F39923B1F3552391F3951B550BF3
S1130C10BB27AA2762177307840738F09F5F5F4FCB
S1130C20220F331F441FAA1FA9F335D00E2E3AF00A
S1130C30E0E832D091505040E695001CCAF72BD022
S1130C40FE2F29D0660F771F881FBB1F2617370773
S1130C504807AB07B0E809F0BB0B802DBF01FF27A5
S1130C6093585F4F3AF09E3F510578F00C94D006AC
S1130C700C9442075F3FE4F3983ED4F3869577954E
S1130C806795B795F7959F5FC9F7880F911D96955E
S1130C90879597F90895E1E0660F771F881FBB1FBA
S1130CA0621773078407BA0720F0621B730B840B67
S1130CB0BA0BEE1F88F7E09508950E9464066894C5
S1130CC0B1110C94420708950E94270788F09F579A
S1130CD098F0B92F9927B751B0F0E1F0660F771F5C
S1130CE0881F991F1AF0BA95C9F714C0B13091F052
S1130CF00E944107B1E008950C944107672F782FB3
S1130D008827B85F39F0B93FCCF386957795679516
S1130D10B395D9F73EF490958095709561957F4F82
S1130D208F4F9F4F0895E89409C097FB3EF4909528
S1130D308095709561957F4F8F4F9F4F9923A9F0B0
S1130D40F92F96E9BB279395F6958795779567953F
S1130D50B795F111F8CFFAF4BB0F11F460FF1BC083
S1130D606F5F7F4F8F4F9F4F16C0882311F096E916
S1130D7011C0772321F09EE8872F762F05C06623C4
S1130D8071F096E8862F70E060E02AF09A95660F7D
S1130D90771F881FDAF7880F9695879597F9089536
S1130DA097F99F6780E870E060E008959FEF80EC1A
S1130DB00895DF93CF931F930F93FF92EF92DF92E7
S1130DC07B018C01689406C0DA2EEF010E94630750
S1130DD0FE01E894A5912591359145915591A6F38D
S1130DE0EF010E94D907FE019701A801DA9469F77F
S1130DF0DF90EF90FF900F911F91CF91DF910895B5
S1130E0000240A94161617061806090608950024E5
S1130E100A9412161306140605060895092E03945F
S1130E20000C11F4882352F0BB0F40F4BF2B11F4D3
S1130E3060FF04C06F5F7F4F8F4F9F4F089557FD32
S1130E409058440F551F59F05F3F71F04795880F34
S1130E5097FB991F61F09F3F79F0879508951216CB
S1130E6013061406551FF2CF4695F1DF08C0161677
S1130E7017061806991FF1CF869571056105089428
S1130E800895E894BB2766277727CB0197F908953F
S1130E909B01AC0160E070E080E89FE30C94EB05FB
S1130EA00E9463070C940E070E94000738F00E940A
S1130EB0070720F0952311F00C94D0060C94D60665
S1130EC011240C9442070E941F0770F3959FC1F3ED
S1130ED0950F50E0551F629FF001729FBB27F00DE4
S1130EE0B11D639FAA27F00DB11DAA1F649F662739
S1130EF0B00DA11D661F829F2227B00DA11D621F88
S1130F00739FB00DA11D621F839FA00D611D221F41
S1130F10749F3327A00D611D231F849F600D211D25
S1130F20822F762F6A2F11249F5750409AF0F1F0A8
S1130F3088234AF0EE0FFF1FBB1F661F771F881F11
S1130F4091505040A9F79E3F510580F00C94D00673
S1130F500C9442075F3FE4F3983ED4F3869577956B
S1130F606795B795F795E7959F5FC1F7FE2B880FB7
S1130F70911D9695879597F908959B01AC010C9462
S1130F8050075058BB27AA270E94D9070C940E0774
S1130F900E94000738F00E94070720F039F49F3FB1
S1130FA019F426F40C94D6060EF4E095E7FB0C94A1
S1130FB0D006E92F0E941F0758F3BA176207730778
S1130FC08407950720F079F4A6F50C9441070EF4F4
S1130FD0E0950B2EBA2FA02D0B01B90190010C0145
S1130FE0CA01A0011124FF27591B99F0593F50F45D
S1130FF0503E68F11A16F040A22F232F342F4427B5
S1131000585FF3CF469537952795A795F0405395AC
S1131010C9F77EF41F16BA0B620B730B840BBAF07C
S11310209150A1F0FF0FBB1F661F771F881FC2F7E7
S11310300EC0BA0F621F731F841F48F487957795FB
S11310406795B795F7959E3F08F0B0CF9395880FB5
S113105008F09927EE0F979587950895DB018F93F4
S11310609F930E947408BF91AF91A29F800D911D20
S1131070A39F900DB29F900D1124089597FB072E06
S113108016F4009407D077FD09D00E947F0807FC6E
S113109005D03EF4909581959F4F08957095619584
S11310A07F4F0895A1E21A2EAA1BBB1BFD010DC0A0
S11310B0AA1FBB1FEE1FFF1FA217B307E407F50704
S11310C020F0A21BB30BE40BF50B661F771F881FE0
S11310D0991F1A9469F760957095809590959B0176
S11310E0AC01BD01CF0108950E949308A59F900D06
S11310F0B49F900DA49F800D911D11240895AA1BE7
S1131100BB1B51E107C0AA1FBB1FA617B70710F0EE
S1131110A61BB70B881F991F5A95A9F78095909520
S1131120BC01CD010895A29FB001B39FC001A39F4C
S1131130700D811D1124911DB29F700D811D11240C
S1131140911D08950F931F93CF93DF9382309105E0
S113115010F482E090E0E0916002F091610220E0FE
S113116030E0A0E0B0E0309719F140815181028174
S1131170138148175907C8F08417950769F4109725
S113118031F012960C93129713961C9327C0009378
S113119060021093610222C02115310519F0421733
S11311A0530718F49A01BD01EF01DF01F801DBCF09
S11311B021153105F9F0281B390B2430310580F451
S11311C08A819B816115710521F0FB0193838283E0
S11311D004C09093610280936002FE01329644C081
S11311E0FE01E20FF31F8193919322503109398359
S11311F028833AC020915E0230915F02232B41F490
S1131200209102013091030130935F0220935E022A
S113121020910001309101012115310541F42DB7D0
S11312203EB74091040150910501241B350BE09118
S11312305E02F0915F02E217F307A0F42E1B3F0B4E
S11312402817390778F0AC014E5F5F4F2417350734
S113125048F04E0F5F1F50935F0240935E028193EC
S1131260919302C0E0E0F0E0CF01DF91CF911F91B4
S11312700F910895CF93DF93009709F481C0FC0187
S1131280329713821282A0916002B091610210978A
S113129081F420813181820F931F20915E0230916D
S11312A05F022817390751F5F0935F02E0935E025D
S11312B067C0ED0120E030E0CE17DF0740F44A813B
S11312C05B819E0141155105F1F0EA01F5CFD3830D
S11312D0C28340815181840F951FC817D90759F4DF
S11312E088819981840F951F0296918380838A81D6
S11312F09B81938382832115310529F4F093610244
S1131300E09360023DC0E901FB83EA83499159916E
S1131310C40FD51FEC17FD0761F480819181840F00
S1131320951F0296E90199838883828193819B8327
S11313308A83E0E0F0E012968D919C9113970097D8
S113134019F0FD01DC01F7CF8D919C9111979D015E
S11313502E5F3F4F820F931F20915E0230915F02F8
S11313602817390769F4309729F410926102109212
S1131370600202C013821282B0935F02A0935E02E5
S1131380DF91CF910895FB01DC0101900D920020C3
S1131390E1F708950F931F93CF93DF93009731F4F0
S11313A06115710519F480E090E03AC08B01EC01FD
S11313B06EE070E081E090E00E943C0CFC01892B1F
S11313C091F380E883830115110571F01387028777
S11313D081E883838091620290916302892B21F4D6
S11313E0F0936302E09362022097C9F0D187C0872B
S11313F08381826083838091640290916502892B4A
S113140071F4F0936502E093640280916602909116
S11314106702892B21F4F0936702E0936602CF01FF
S1131420DF91CF911F910F910895A0E0B0E0EBE11F
S1131430FAE00C941F0DAE014B5F5F4FFA0161910E
S11314407191AF0180916402909165020E945B0AE0
S1131450E2E00C943B0D0F931F93CF93DF93E09145
S11314606402F0916502238121FF1BC08C01D0E04E
S1131470C0E0F80181918F0160916402709165026E
S1131480DB011896ED91FC911997882331F00995A9
S1131490892B79F3DFEFCFEFECCF8AE00995892B25
S11314A019F08FEF9FEF02C08D2F9C2FDF91CF910A
S11314B01F910F910895ABE0B0E0E1E6FAE00C94DF
S11314C00F0D6C017B018A01FC0117821682838156
S11314D081FFCCC1CE0101963C01F6019381F70155
S11314E093FD859193FF81917F01882309F4BAC10B
S11314F0853239F493FD859193FF81917F01853283
S113150029F4B60190E00E94750CE7CF912C212CB0
S1131510312CFFE1F315D8F08B3279F038F48032B6
S113152079F08332A1F4232D20611DC08D3261F046
S1131530803369F4232D216016C0832D8260382EF8
S1131540E32DE4603E2E2AC0F32DF8601DC037FC65
S11315502DC020ED280F2A3040F08E32B9F436FC2D
S113156081C1232D2064322E19C036FE06C08AE0C4
S1131570989E200D1124922E11C0EAE02E9E200D7B
S11315801124222EF32DF0623F2E08C08C3621F454
S1131590832D8068382E02C0883641F4F70193FD0C
S11315A0859193FF81917F018111B3CF982F9F7D06
S11315B09554933028F40C5F1F4F9FE399830DC01B
S11315C0833631F0833771F0833509F059C021C077
S11315D0F801808189830E5F1F4F88248394912CA6
S11315E0530113C02801F2E04F0E511CF801A080F2
S11315F0B18036FE03C0692D70E002C06FEF7FEF4B
S1131600C5010E946A0C4C018201F32DFF773F2E25
S113161016C0280122E0420E511CF801A080B180BE
S113162036FE03C0692D70E002C06FEF7FEFC50185
S11316300E94580C4C01F32DF0683F2E820133FCBC
S11316401BC0822D90E088169906B0F4B60180E2A2
S113165090E00E94750C2A94F4CFF50137FC859133
S113166037FE81915F01B60190E00E94750C211054
S11316702A9421E0821A91088114910471F7E8C038
S1131680843611F0893641F5F80137FE07C06081D0
S11316907181828193810C5F1F4F08C060817181C9
S11316A0072E000C880B990B0E5F1F4FF32DFF764E
S11316B03F2E97FF09C090958095709561957F4F57
S11316C08F4F9F4FF0683F2E2AE030E0A3010E9425
S11316D0B10C882E861845C0853731F4232D2F7E12
S11316E0B22E2AE030E025C0932D997FB92E8F3693
S11316F0C1F018F4883579F0B5C0803719F088370F
S113170021F0B0C0E92FE061BE2EB4FE0DC0FB2D68
S1131710F460BF2E09C034FE0AC0292F2660B22E01
S113172006C028E030E005C020E130E002C020E13E
S113173032E0F801B7FE07C0608171818281938134
S11317400C5F1F4F06C06081718180E090E00E5FE6
S11317501F4FA3010E94B10C882E8618FB2DFF7722
S11317603F2E36FE0DC0232D2E7FA22E891458F451
S113177034FE0BC032FC09C0832D8E7EA82E05C01A
S1131780B82CA32C03C0B82C01C0B92CA4FE0FC0E4
S1131790FE01E80DF11D8081803321F49A2D997E9C
S11317A0A92E09C0A2FE06C0B394B39404C08A2D26
S11317B0867809F0B394A3FC11C0A0FE06C0B2144D
S11317C088F4280C922C9B180EC0B21460F4B60155
S11317D080E290E00E94750CB394F7CFB21418F431
S11317E02B1802C0982C212CA4FE10C0B60180E353
S11317F090E00E94750CA2FE17C0A1FC03C088E70C
S113180090E002C088E590E0B6010CC08A2D86788D
S113181059F0A1FE02C08BE201C080E2A7FC8DE278
S1131820B60190E00E94750C891438F4B60180E387
S113183090E00E94750C9A94F7CF8A94F301E80D16
S1131840F11D8081B60190E00E94750C8110F5CFE6
S1131850222009F442CEB60180E290E00E94750C89
S11318602A94F6CFF6018681978102C08FEF9FEF0D
S11318702B96E2E10C942B0D0F931F93CF93DF93E0
S1131880869F8001879F100D969F100D1124C8011B
S11318900E94A208EC01009729F0A80160E070E022
S11318A00E94630CCE01DF91CF911F910F91089597
S11318B0FC010590615070400110D8F78095909517
S11318C08E0F9F1F0895DC0101C06D93415050405D
S11318D0E0F70895FC016150704001900110D8F7C1
S11318E0809590958E0F9F1F08950F931F93CF930C
S11318F0DF93FB01238121FD03C08FEF9FEF2CC0F9
S113190022FF16C04681578124813581421753072F
S113191044F4A081B1819D012F5F3F4F3183208327
S11319208C93268137812F5F3F4F3783268314C0E2
S11319308B01EC01FB010084F185E02D0995892BD5
S1131940E1F6D80116968D919C91179701961796FA
S11319509C938E931697CE01DF91CF911F910F9197
S11319600895FA01AA27283051F1203181F1E89431
S11319706F936E7F6E5F7F4F8F4F9F4FAF4FB1E07E
S11319803ED0B4E03CD0670F781F891F9A1FA11D79
S1131990680F791F8A1F911DA11D6A0F711D811D7A
S11319A0911DA11D20D009F468943F912AE0269F3F
S11319B011243019305D3193DEF6CF010895462F9E
S11319C04770405D4193B3E00FD0C9F7F6CF462F7F
S11319D04F70405D4A3318F0495D31FD40524193E8
S11319E002D0A9F7EACFB4E0A695979587957795A5
S11319F06795BA95C9F700976105710508959B012C
S1131A00AC010A2E06945795479537952795BA95B4
S1131A10C9F7620F731F841F951FA01D08952F928D
S1131A203F924F925F926F927F928F929F92AF926A
S1131A30BF92CF92DF92EF92FF920F931F93CF93B7
S1131A40DF93CDB7DEB7CA1BDB0B0FB6F894DEBF4E
S1131A500FBECDBF09942A88398848885F846E8474
S1131A607D848C849B84AA84B984C884DF80EE80BE
S1131A70FD800C811B81AA81B981CE0FD11D0FB6C7
S1131A80F894DEBF0FBECDBFED010895F894FFCFEB
S1131A900000680220005374617274696E672070DC
S1131AA0726F6772616D0A0A0A0A0A0A0A0A0A0050
S1131AB0706C6179696E67204166726963612C207C
S1131AC0627920546F746F0A0A0D00506C61796951
S1131AD06E67206E6F7465206F722073696C656E1B
S1131AE063653A20256900706C6179696E67204CE2
S1131AF06973612047696B6B2074696C20536B6F49
S1131B006C656E2C206E6F7420627920546F746F34
S1131B100A0A0D00506C6179696E672066726571FE
S1131B2075656E63793A2025690050726573636147
S1131B306C65723A20256909206F63725F706C7559
S1131B40735F6F6E653A2025690A0D006F63723A00
S1131B50202025690A0D006672657175656E6379CA
S1131B60206F627461696E65643A2025690A0A0D02
S1131B70004E6F74652073686F756C6420686176BD
S1131B80652074686973206672657175656E637922
S1131B903A202569200A0D004D61696E206D656E3D
S1131BA07500506C61792067616D650047414D4552
S1131BB020310047414D452032004869676873630E
S1131BC06F726500486967683A2031005365747420
S1111BD0696E6773004E6F20736574740000B5
S9030000FC
