S00F00006279676765726E2E7372656327
S11300000C9438000C9455000C9455000C94550035
S11300100C9455000C9455000C9455000C94550008
S11300200C9455000C9455000C9455000C945500F8
S11300300C9455000C9455000C9455000C945500E8
S11300400C9455000C9455000C9455000C945500D8
S11300500C9455000C9455000C9455000C945500C8
S11300600C9455000C9455000C9455000C945500B8
S113007011241FBECFEFD4E0DEBFCDBF12E0A0E05D
S1130080B1E0E8E7FDE002C005900D92AC31B107A4
S1130090D9F722E0ACE1B2E001C01D92A832B20768
S11300A0E1F70E94E8000C94BA060C940000309822
S11300B008958460809300142899FECF80910014E1
S11300C00895CF92DF92EF92FF920F931F93CF93F5
S11300D0DF938AE091E09F938F930E9435020E9400
S11300E0DA017C010E94DF010F900F90C12CD12C0A
S11300F000E010E0C2E2D1E00E94DA01F601F85E0D
S1130100808320812817A9F099279F938F931F92AA
S11301102F93DF92CF92DF93CF930E9435020F5F2C
S11301201F4F8DB79EB708960FB6F8949EBF0FBEAB
S11301308DBF9FEFC91AD90AC11488E0D806E1F629
S1130140C7010E94DF01C0E0D0E0E12CF12C0F2EAA
S1130150FCE5CF2EF1E0DF2EF02D0E94DA01FE0146
S1130160F85E20812817B1F099279F938F931F92EF
S11301702F93DF93CF93DF92CF920E9435029FEFAC
S1130180E91AF90A8DB79EB708960FB6F8949EBF80
S11301900FBE8DBF2196C11598E0D907F1F6FF92E5
S11301A0EF921F930F938AE991E09F938F930E949C
S11301B035020F900F900F900F900F900F90DF91DA
S11301C0CF911F910F91FF90EF90DF90CF90089502
S11301D0CF93DF9300D0CDB7DEB70E9487018FE1C4
S11301E090E00E9476010E9457000E94610085EF12
S11301F091E09F938F930E9435020F900F900F2EE2
S1130200F5E0CF2EF2E0DF2EF02D0F2EFDE0EF2EE5
S1130210F2E0FF2EF02D04E112E02FEF8FE797E0DC
S1130220215080409040E1F700C00000CE010196CB
S11302300E943A01DF92CF920E9435028981282FD1
S1130240082E000C330B3F938F93FF92EF920E9482
S113025035028A81282F082E000C330B3F938F938D
S11302601F930F930E9435020FB6F894DEBF0FBEA2
S1130270CDBFD3CF1F93CF93DF93EC0180E00E94D7
S11302805900182F81E00E945900212F30E02E5789
S1130290310994E6929FA001939F500D1124552398
S11302A014F441585F4F440F452F441F550B4883A6
S11302B090E08E57910944E6489F9001499F300D84
S11302C01124332314F421583F4F220F232F221FCC
S11302D0330B2983DF91CF911F9108955D9BFECF4E
S11302E08CB908955F9BFECF8CB1089590BD89B9F8
S11302F088E18AB98EE880BD62E771E08EE691E01C
S11303000E94EA0190931D0280931C02089585B710
S1130310806885BF80B7886080BF08958F929F9260
S1130320AF92BF92CF92DF92EF92FF92CF93DF937F
S1130330EC01688179818A819B8161157105810550
S1130340910521F464E279ED8BE597E02DE133EF3B
S113035041E050E00E94200649015A019B01AC0192
S1130360A7EAB1E40E943F066B017C01ACEEB4EF56
S1130370A50194010E944D06DC01CB018C0D9D1D4D
S1130380AE1DBF1DB7FF03C00197A109B048888304
S11303909983AA83BB839F77DF91CF91FF90EF90DE
S11303A0DF90CF90BF90AF909F908F9008950E9460
S11303B08E01089580E091E00E948E010895A0E0EE
S11303C0B0E08093000190930101A0930201B093E7
S11303D0030108950F931F93CF93DF93009731F494
S11303E06115710519F480E090E03AC08B01EC01CD
S11303F06EE070E081E090E00E942C04FC01892B07
S113040091F380E883830115110571F01387028746
S113041081E8838380911E0290911F02892B21F42D
S1130420F0931F02E0931E022097C9F0D187C08782
S11304308381826083838091200290912102892BA1
S113044071F4F0932102E0932002809122029091B2
S11304502302892B21F4F0932302E0932202CF019B
S1130460DF91CF911F910F910895A0E0B0E0EBE3ED
S1130470F2E00C946206AE014B5F5F4FFA016191AA
S11304807191AF0180912002909121020E944B0250
S1130490E2E00C947E06ABE0B0E0E1E5F2E00C941F
S11304A052066C017B018A01FC011782168283814A
S11304B081FFCCC1CE0101963C01F6019381F70185
S11304C093FD859193FF81917F01882309F4BAC13B
S11304D0853239F493FD859193FF81917F018532B3
S11304E029F4B60190E00E948605E7CF912C212CD7
S11304F0312CFFE1F315D8F08B3279F038F48032E7
S113050079F08332A1F4232D20611DC08D3261F076
S1130510803369F4232D216016C0832D8260382E28
S1130520E32DE4603E2E2AC0F32DF8601DC037FC95
S11305302DC020ED280F2A3040F08E32B9F436FC5D
S113054081C1232D2064322E19C036FE06C08AE0F4
S1130550989E200D1124922E11C0EAE02E9E200DAB
S11305601124222EF32DF0623F2E08C08C3621F484
S1130570832D8068382E02C0883641F4F70193FD3C
S1130580859193FF81917F018111B3CF982F9F7D36
S11305909554933028F40C5F1F4F9FE399830DC04B
S11305A0833631F0833771F0833509F059C021C0A7
S11305B0F801808189830E5F1F4F88248394912CD6
S11305C0530113C02801F2E04F0E511CF801A08022
S11305D0B18036FE03C0692D70E002C06FEF7FEF7B
S11305E0C5010E947B054C018201F32DFF773F2E4C
S11305F016C0280122E0420E511CF801A080B180EF
S113060036FE03C0692D70E002C06FEF7FEFC501B5
S11306100E9469054C01F32DF0683F2E820133FCE2
S11306201BC0822D90E088169906B0F4B60180E2D2
S113063090E00E9486052A94F4CFF50137FC859159
S113064037FE81915F01B60190E00E94860521107A
S11306502A9421E0821A91088114910471F7E8C068
S1130660843611F0893641F5F80137FE07C0608100
S11306707181828193810C5F1F4F08C060817181F9
S1130680072E000C880B990B0E5F1F4FF32DFF767E
S11306903F2E97FF09C090958095709561957F4F87
S11306A08F4F9F4FF0683F2E2AE030E0A3010E9455
S11306B0C205882E861845C0853731F4232D2F7E38
S11306C0B22E2AE030E025C0932D997FB92E8F36C3
S11306D0C1F018F4883579F0B5C0803719F088373F
S11306E021F0B0C0E92FE061BE2EB4FE0DC0FB2D99
S11306F0F460BF2E09C034FE0AC0292F2660B22E32
S113070006C028E030E005C020E130E002C020E16E
S113071032E0F801B7FE07C0608171818281938164
S11307200C5F1F4F06C06081718180E090E00E5F16
S11307301F4FA3010E94C205882E8618FB2DFF7748
S11307403F2E36FE0DC0232D2E7FA22E891458F481
S113075034FE0BC032FC09C0832D8E7EA82E05C04A
S1130760B82CA32C03C0B82C01C0B92CA4FE0FC014
S1130770FE01E80DF11D8081803321F49A2D997ECC
S1130780A92E09C0A2FE06C0B394B39404C08A2D56
S1130790867809F0B394A3FC11C0A0FE06C0B2147D
S11307A088F4280C922C9B180EC0B21460F4B60185
S11307B080E290E00E948605B394F7CFB21418F457
S11307C02B1802C0982C212CA4FE10C0B60180E383
S11307D090E00E948605A2FE17C0A1FC03C088E732
S11307E090E002C088E590E0B6010CC08A2D8678BE
S11307F059F0A1FE02C08BE201C080E2A7FC8DE2A9
S1130800B60190E00E948605891438F4B60180E3AD
S113081090E00E9486059A94F7CF8A94F301E80D3C
S1130820F11D8081B60190E00E9486058110F5CF0C
S1130830222009F442CEB60180E290E00E948605AF
S11308402A94F6CFF6018681978102C08FEF9FEF3D
S11308502B96E2E10C946E060F931F93CF93DF93D4
S1130860869F8001879F100D969F100D1124C8014B
S11308700E944804EC01009729F0A80160E070E0B0
S11308800E947405CE01DF91CF911F910F910895BD
S11308900F931F93CF93DF938230910510F482E07E
S11308A090E0E0912602F091270220E030E0A0E001
S11308B0B0E0309719F140815181028113814817CA
S11308C05907C8F08417950769F4109731F0129608
S11308D00C93129713961C9327C00093260210932F
S11308E0270222C02115310519F04217530718F4C5
S11308F09A01BD01EF01DF01F801DBCF21153105BC
S1130900F9F0281B390B2430310580F48A819B814E
S11309106115710521F0FB019383828304C09093D8
S1130920270280932602FE01329644C0FE01E20FA4
S1130930F31F8193919322503109398328833AC05C
S11309402091240230912502232B41F420910601A9
S11309503091070130932502209324022091040151
S1130960309105012115310541F42DB73EB7409171
S1130970080150910901241B350BE0912402F091E8
S11309802502E217F307A0F42E1B3F0B28173907A3
S113099078F0AC014E5F5F4F2417350748F04E0FD7
S11309A05F1F50932502409324028193919302C0C8
S11309B0E0E0F0E0CF01DF91CF911F910F91089516
S11309C0CF93DF93009709F481C0FC01329713821F
S11309D01282A0912602B0912702109781F42081FF
S11309E03181820F931F2091240230912502281710
S11309F0390751F5F0932502E093240267C0ED0115
S1130A0020E030E0CE17DF0740F44A815B819E018D
S1130A1041155105F1F0EA01F5CFD383C28340813A
S1130A205181840F951FC817D90759F4888199817A
S1130A30840F951F0296918380838A819B8193837F
S1130A4082832115310529F4F0932702E0932602CD
S1130A503DC0E901FB83EA8349915991C40FD51F35
S1130A60EC17FD0761F480819181840F951F029634
S1130A70E90199838883828193819B838A83E0E05F
S1130A80F0E012968D919C911397009719F0FD0157
S1130A90DC01F7CF8D919C9111979D012E5F3F4F03
S1130AA0820F931F209124023091250228173907C1
S1130AB069F4309729F4109227021092260202C09A
S1130AC013821282B0932502A0932402DF91CF9166
S1130AD00895FC010590615070400110D8F780958D
S1130AE090958E0F9F1F0895DC0101C06D934150B6
S1130AF05040E0F70895FC016150704001900110EE
S1130B00D8F7809590958E0F9F1F08950F931F938C
S1130B10CF93DF93FB01238121FD03C08FEF9FEF70
S1130B202CC022FF16C0468157812481358142178B
S1130B30530744F4A081B1819D012F5F3F4F31835E
S1130B4020838C93268137812F5F3F4F3783268301
S1130B5014C08B01EC01FB010084F185E02D0995A3
S1130B60892BE1F6D80116968D919C9117970196E1
S1130B7017969C938E931697CE01DF91CF911F9178
S1130B800F910895FA01AA27283051F1203181F1FB
S1130B90E8946F936E7F6E5F7F4F8F4F9F4FAF4F81
S1130BA0B1E03ED0B4E03CD0670F781F891F9A1F94
S1130BB0A11D680F791F8A1F911DA11D6A0F711D48
S1130BC0811D911DA11D20D009F468943F912AE054
S1130BD0269F11243019305D3193DEF6CF0108953C
S1130BE0462F4770405D4193B3E00FD0C9F7F6CF6D
S1130BF0462F4F70405D4A3318F0495D31FD405235
S1130C00419302D0A9F7EACFB4E0A69597958795CA
S1130C1077956795BA95C9F70097610571050895A9
S1130C209B01AC010A2E0694579547953795279555
S1130C30BA95C9F7620F731F841F951FA01D0895ED
S1130C40052E97FB1EF400940E94370657FD07D02B
S1130C500E94890607FC03D04EF40C943706509585
S1130C604095309521953F4F4F4F5F4F0895909594
S1130C708095709561957F4F8F4F9F4F08950E9487
S1130C80AB06A59F900DB49F900DA49F800D911D60
S1130C9011240895B7FF0C943F060E943F06821B5F
S1130CA0930B08952F923F924F925F926F927F928F
S1130CB08F929F92AF92BF92CF92DF92EF92FF9268
S1130CC00F931F93CF93DF93CDB7DEB7CA1BDB0B14
S1130CD00FB6F894DEBF0FBECDBF09942A883988B9
S1130CE048885F846E847D848C849B84AA84B984C0
S1130CF0C884DF80EE80FD800C811B81AA81B981CC
S1130D00CE0FD11D0FB6F894DEBF0FBECDBFED01DF
S1130D100895A1E21A2EAA1BBB1BFD010DC0AA1F38
S1130D20BB1FEE1FFF1FA217B307E407F50720F050
S1130D30A21BB30BE40BF50B661F771F881F991FCB
S1130D401A9469F760957095809590959B01AC0114
S1130D50BD01CF010895A29FB001B39FC001A39F1D
S1130D60700D811D1124911DB29F700D811D1124E0
S10B0D70911D0895F894FFCFD2
S1130D7801000000000028022000537461727469A5
S1130D886E67205352414D20746573742E2E2E0ABB
S1130D980D00577269746520706861736520657207
S1130DA8726F723A206578745F72616D5B25346482
S1130DB85D203D2025303258202873686F756C6497
S1130DC82062652025303258290A0D005265747254
S1130DD8696576616C207068617365206572726FED
S1130DE8723A206578745F72616D5B2534645D20A6
S1130DF83D2025303258202873686F756C64206252
S1130E08652025303258290A0D005352414D20746B
S1130E1865737420636F6D706C657465642077699D
S1130E287468200A0D253464206572726F72732009
S1130E38696E2077726974652070686173652061D2
S1130E486E64200A0D253464206572726F727320F3
S1130E58696E2072657472696576616C2070686168
S1130E6873650A0D0048656C6C6F2C20776F726C83
S1130E7864210A0D004144433A200A0D00783A20BF
S10F0E8825690900793A2025690A0D004B
S9030000FC
