S00F00006279676765726E2E7372656327
S11300000C9491020C94AE020C94AE020C94AE02C9
S11300100C94AE020C94AE020C94AE020C94AE029C
S11300200C94AE020C94AE020C94AE020C94AE028C
S11300300C94AE020C94AE020C9453060C94AE02D3
S11300400C94AE020C94AE020C94AE020C94AE026C
S11300500C94AE020C94AE020C94AE020C94AE025C
S11300600C94AE020C94AE020C94AE020C94AE024C
S1130070084AD73B3BCE016E84BCBFFDC12F3D6C0B
S113008074319ABD56833DDA3D00C77F11BED9E471
S1130090BB4C3E916BAAAABE000000803F000A0A36
S11300A00A010A1E011E3C0A010A0A010A1E001E58
S11300B01E0A140A010A010A010A011E011E1E0A6F
S11300C0140114011428500A010A0A0A1E011E3CD4
S11300D00A010A0A010A011E1E1E0A140A010A0163
S11300E00A0A011E1E1E0A141414285028D20100E4
S11300F000D20100009F010000000000009F0100E9
S113010000BA02000000000000BA0200006E020003
S113011000D201000000000000D20100009F010095
S113012000000000009F0100006E020000000000BB
S1130130006E0200002A0200000B020000D201003F
S1130140002A020000000000002A02000000000053
S1130150002A020000000000002A02000000000043
S1130160002A020000000000006E0200000B0200E2
S113017000D20100009F010000000000009F010068
S113018000000000009F0100006E0200002A02002F
S113019000D201000000000000D20100009F010015
S11301A0009F010000BA02000000000000BA020033
S11301B0006E020000D201000000000000D2010025
S11301C0009F010000000000009F010000000000EB
S11301D0009F0100000B0200002A0200000B020035
S11301E000D20100002A020000000000002A0200E0
S11301F000000000002A0200002A020000000000A3
S1130200002A0200006E0200000B020000D201006E
S1130210009F010000000000009F0100006E02002A
S1130220002A02000000000000000000000000009E
S11302300000065F5F0600000000070700070700D4
S113024000147F7F147F7F1400242E6B6B3A1200FE
S113025000466630180C666200307A4F5D377A4883
S1130260000407030000000000001C3E634100007E
S1130270000041633E1C000000082A3E1C1C3E2A6C
S11302800808083E3E0808000000A0E060000000E6
S1130290000808080808080000000060600000006A
S11302A0006030180C060301003E7F594D7F3E006C
S11302B00042427F7F40400000627359496F6600EC
S11302C000226349497F360000181C16137F7F10F3
S11302D000276745457D3900003C7E4B4979300055
S11302E000036371190F070000367F49497F360008
S11302F000064F49693F1E000000006C6C000000BE
S11303000000A0EC6C00000000081C3663410000F3
S1130310001414141414140000004163361C080063
S113032000020351590F0600003E7F415D5D1F1E10
S1130330007C7E13137E7C0000417F7F49497F3619
S1130340001C3E634141632200417F7F41637F1C67
S113035000417F7F495D416300417F7F491D010367
S1130360001C3E6341517372007F7F08087F7F0049
S11303700000417F7F41000000307040417F3F0119
S113038000417F7F081C776300417F7F414060709C
S1130390007F7F060C067F7F007F7F060C187F7F1F
S11303A0001C3E6341633E1C00417F7F49090F06E8
S11303B0001E3F21717F5E0000417F7F19396F4627
S11303C00026674D597B32000003417F7F410300C3
S11303D0007F7F40407F7F00001F3F60603F1F0021
S11303E0007F7F3018307F7F0063771C081C7763A1
S11303F000074F78784F0700006773594D476371C2
S113040000007F7F41410000000103060C183060AA
S1130410000041417F7F000000080C0603060C0821
S113042000808080808080808000000307040000BA
S113043000207454543C784000413F7F44447C384D
S113044000387C44446C280000307848493F7F40A1
S113045000387C54545C180000487E7F4903020035
S11304600098BCA4A4F87C0400417F7F08047C7835
S11304700000447D7D4000000040C484FD7D0000F8
S113048000417F7F10386C440000417F7F400000B2
S1130490007C7C0C180C7C78007C7C04047C780048
S11304A000387C44447C38000084FCF8A4243C18C4
S11304B000183C24A4F8FC8400447C78441C1800F4
S11304C000485C54547424000000043E7F4424001B
S11304D0003C7C40403C7C40001C3C60603C1C0078
S11304E0003C7C6030607C3C00446C3810386C44C8
S11304F0009CBCA0A0FC7C00004C64745C4C6400B8
S11305000008083E774141000000000077770000B2
S1130510004141773E080800000203010302030181
S1130520000011241FBECFEFD4E0DEBFCDBF12E028
S1130530A0E0B1E0EAE0FDE102C005900D92A03B2D
S1130540B107D9F722E0A0EBB2E001C01D92AA3CAA
S1130550B207E1F70E94BA020C94830E0C940000D7
S1130560309808958460809300142899FECF809178
S113057000140895CF93DF930E94FC058823F9F0BB
S113058084EA91E00E94680B0E948D03C4EBD2E0E0
S11305900E94FB03288139818A81E82FF0E0399693
S11305A0EE0FFF1FE20FF31F6EEB71E0808191816C
S11305B00E94FE0A892B61F70E942A03E9CF80E09A
S11305C090E0DF91CF910895CF93C82F60E084E04D
S11305D00E94360683E00E942D068C2F0E942D0671
S11305E00E943106C82F61E084E00E9436068C2FF9
S11305F0CF9108950E94250660E084E00E943606AB
S113060083EC91E09F938F930E94520B80EC0E94A5
S11306102D0661E084E00E9436062FEF8FEF92E012
S1130620215080409040E1F700C000C08EE00E945D
S1130630E402807E0F900F90803851F084ED91E0B9
S11306409F938F930E94520B0F900F9080E0089518
S113065081E00895BF92CF92DF92EF92FF920F93C1
S11306601F93CF93DF938AE292E09F938F930E942C
S1130670520BC6E0D1E00F2EFDEEEF2EF0E0FF2E80
S1130680F02D0EE910E00F2EF4EACF2EF1E0DF2E6C
S1130690F02D0F900F900F2EF4E1BF2EF02D8881D6
S11306A0998122969F938F930E94520BF701659133
S11306B0749180E090E00E949D03F8018491B89EBB
S11306C0C0011124092E000CAA0BBB0B0F900F9034
S11306D00097A105B10551F0ECECF4E03197F1F786
S11306E000C000000197A109B109B1F7F4E0EF0ED1
S11306F0F11C0F5F1F4FCC15DD0589F660E070E03B
S1130700CB010E949D03DF91CF911F910F91FF9028
S1130710EF90DF90CF90BF90089581E087BB8FEF7B
S113072081BF80E883BF83B7886083BF83B780615C
S113073083BF83B7887F83BF08959B01AC01672B78
S1130740682B692B21F483B7887F83BF089560E009
S113075070E885E290E00E94A709DA01C90121301E
S113076061E0360741055105A8F1689412F8B69581
S1130770A795979587951694D1F7813061E09607F0
S1130780A105B10548F1DA01C901689415F8B695D7
S1130790A795979587951694D1F7813061E09607D0
S11307A0A105B105D8F0BB27A52F942F832F813045
S11307B061E09607A105B10598F0DA01C901072E99
S11307C07AE0B695A795979587957A95D1F7702D88
S11307D035E007C031E005C032E003C033E001C0BA
S11307E034E023B7287F23BF23B7232B23BF8150B3
S11307F081BF0895089588B1886888B985B78062F3
S113080085BF889585B78F7D85BF889585B78F7D92
S113081085BF089580E00E94B2028093BD0281E00A
S11308200E94B2028093BC020895CF92DF92EF92AD
S1130830FF92CF93DF9380E00E94B202C82F81E041
S11308400E94B202E82F6091BD02C61780F470E0E6
S11308502C2F30E0261B370B44E6429FC001439FF8
S1130860900D11240E9493096093B00214C0462F86
S113087050E02C2F30E0241B350B64E6629FC0014E
S1130880639F900D11246FEF70E0641B750B0E9441
S113089093096093B0022091BC02E21788F4622F9E
S11308A070E04E2F50E0461B570B24E6249FC001F6
S11308B0259F900D11240E9493096093B10213C0E7
S11308C030E04E2F50E0421B530B64E6649FC0019E
S11308D0659F900D11246FEF70E0621B730B0E94F3
S11308E093096093B102C0EBD2E06881062E000C3C
S11308F0770B880B990B0E94FA076B017C016981C5
S1130900062E000C770B880B990B0E94FA07A7019F
S113091096010E94F10620E030E044EB53E40E948B
S1130920B50820E030E040E05FE30E94B50823EC26
S113093035EF48E450E40E9450070E94C2077B83CD
S11309406A83DF91CF91FF90EF90DF90CF9008956D
S1130950FC01808194E0980F993020F491819C5F90
S1130960993090F085302CF081818F5C833638F497
S11309700DC08C3F24F481818F5C833648F08181E3
S11309808C3F44F082E0089584E0089581E0089566
S113099080E0089583E008950E94A8049091B7022E
S11309A0943009F058C08130E1F160F18230C9F02F
S11309B0833009F050C0E4EBF2E09281492F50E01B
S11309C00190F081E02D268D30E02150310942174D
S11309D0530724F49F5F9093B6023DC01092B60271
S11309E03AC09091B602992321F091509093B602A7
S11309F032C0E4EBF2E0A081B1815E969C9191500B
S1130A00928329C0E091B402F091B5022089318922
S1130A102115310501F1E4EBF2E0318320831282E8
S1130A201AC0A4EBB2E02D913C91119712969C91BF
S1130A301297E92FF0E03996EE0FFF1FE20FF31F34
S1130A400190F081E02D968D992329F01196FC9365
S1130A50EE9312961C928093B70208950F931F93FE
S1130A60CF93DF930E9478050E949905C4EBD2E0EE
S1130A70888199810E94D405E881F981868D882333
S1130A8031F1C0E0D0E004EB12E0CE0102960E9406
S1130A90D005D8018D919C91FE013996EE0FFF1F70
S1130AA0E80FF91F808191810E94D405F8018281A9
S1130AB090E08C179D0711F40E948E052196D801B1
S1130AC0ED91FC91868D90E0C817D907F4F2DF917F
S1130AD0CF911F910F9108958055E0E0F0E180835C
S1130AE0862F8F70808362956F7060616083089534
S1130AF01F93CF93DF9310E0C0E0D2E160E0812F39
S1130B000E946C0580E890E018820197E9F71F5F66
S1130B101830A1F7DF91CF911F910895E0E0F2E141
S1130B2088E180839CE390839EE790838083808325
S1130B30089560E080E00E946C050895E0E0F0E133
S1130B408EEA808381EA80838AED808382E18083D8
S1130B5088EC808388EA80838FE3808385ED8083BB
S1130B6080E8808381E8808380E5808389ED8083C9
S1130B7081E2808380E2808382E080838BED8083C6
S1130B8080E380838DEA8083108284EA808386EA0E
S1130B9080838FEA80830E9478050E9499050895D6
S1130BA060E00E946C050895CF93DF93DC018C9183
S1130BB081111AC01EC0EC91F0E0B097EE0FFF1F38
S1130BC0EE0FFF1FEE0FFF1FE20FF31FE75DFD4F58
S1130BD0E491E8832F5F3F4F2830310561F7119688
S1130BE08C91811103C005C0C0E0D2E120E030E067
S1130BF0E2CFDF91CF910895F8940E94D7068FE158
S1130C0090E00E94C6060E94B0020E940A040E945C
S1130C1099060E949E050E948B060E94FA030E9478
S1130C20FA02882311F0789481E00895CF93DF933A
S1130C3082E00E94B202CAEBD2E0888383E00E9481
S1130C40B2028983DF91CF91089580EA87BBBC9A71
S1130C508DB181658DB9C49A08958FB9779BFECF04
S1130C6008951FB8779BFECF8FB10895662369F06E
S1130C7048B321E030E0B90102C0660F771F8A95BE
S1130C80E2F7CB01842B88BB089548B321E030E020
S1130C90B90102C0660F771F8A95E2F7CB018095F0
S1130CA0842388BB08951F920F920FB60F921124CC
S1130CB02F933F934F935F936F937F938F939F9360
S1130CC0AF93BF93EF93FF93F8941DBC1CBC80EBD0
S1130CD092E00E9415048AEB92E00E94160688EBCB
S1130CE092E00E94B20680EB92E00E94CC040E9443
S1130CF02E057894FF91EF91BF91AF919F918F91C1
S1130D007F916F915F914F913F912F910F900FBE03
S1130D100F901F90189589B7806289BF1DBC1CBCB9
S1130D2080E38FBD85E08EBD80EF90E099BD88BDE6
S1130D30089536B326B347B3327081E090E0BC0126
S1130D4002C0660F771F3A95E2F7247002C0880F3D
S1130D50991F2A95E2F7862B972B809590958423EB
S1130D6087BB089586B3E8EBF2E0869581708083B3
S1130D7086B382FB882780F9818308955D9BFECF2B
S1130D808CB908955F9BFECF8CB1089590BD89B94D
S1130D9088E18AB98EE880BD62EC76E08EEB96E05D
S1130DA00E94070B9093BF028093BE02089585B7FB
S1130DB0806885BF80B7886080BF08950E946508F9
S1130DC060F080E891E009F49EEF0E946C0828F03E
S1130DD040E851E071F45EEF0CC00C943B080C94B5
S1130DE0A608E92FE0780E94840840F3092E052A1A
S1130DF0B1F3261737074807590738F00E2E07F8BE
S1130E00E02569F0E025E0640AC0EF6307F8009488
S1130E1007FADB01B9019D01DC01CA01AD01EF93C1
S1130E200E9467070E9473080E9421075F9155235F
S1130E3039F02BED3FE049E450FD49EC0C942709CF
S1130E400895DF93DD27B92FBF7740E85FE31616D7
S1130E50170648075B0718F4D92F0E94AD089F9323
S1130E608F937F936F930E942209E0E7F0E00E9442
S1130E703E080E9473082F913F914F915F910E9409
S1130E80C808DD2351F09058A2EA2AED3FE049EC6E
S1130E905FE3D0785D270E943E09DF910C947308CC
S1130EA00E9464070C9473080E946C0858F00E9416
S1130EB0650840F029F45F3F29F00C94350851117E
S1130EC00C94A7080C943B080E94840868F39923A7
S1130ED0B1F3552391F3951B550BBB27AA27621732
S1130EE07307840738F09F5F5F4F220F331F441F3F
S1130EF0AA1FA9F335D00E2E3AF0E0E832D0915073
S1130F005040E695001CCAF72BD0FE2F29D0660F5F
S1130F10771F881FBB1F261737074807AB07B0E8A2
S1130F2009F0BB0B802DBF01FF2793585F4F3AF0A8
S1130F309E3F510578F00C9435080C94A7085F3F48
S1130F40E4F3983ED4F3869577956795B795F7952E
S1130F509F5FC9F7880F911D9695879597F9089516
S1130F60E1E0660F771F881FBB1F621773078407B2
S1130F70BA0720F0621B730B840BBA0BEE1F88F7C1
S1130F80E09508950E94C9076894B1110C94A708CC
S1130F9008950E948C0888F09F5798F0B92F9927DC
S1130FA0B751B0F0E1F0660F771F881F991F1AF050
S1130FB0BA95C9F714C0B13091F00E94A608B1E007
S1130FC008950C94A608672F782F8827B85F39F006
S1130FD0B93FCCF3869577956795B395D9F73EF4E9
S1130FE090958095709561957F4F8F4F9F4F089591
S1130FF0E89409C097FB3EF49095809570956195AF
S11310007F4F8F4F9F4F9923A9F0F92F96E9BB2764
S11310109395F695879577956795B795F111F8CFE0
S1131020FAF4BB0F11F460FF1BC06F5F7F4F8F4F4B
S11310309F4F16C0882311F096E911C0772321F041
S11310409EE8872F762F05C0662371F096E8862FD9
S113105070E060E02AF09A95660F771F881FDAF730
S1131060880F9695879597F9089597F99F6780E873
S113107070E060E008959FEF80EC0895DF93CF93D4
S11310801F930F93FF92EF92DF927B018C01689480
S113109006C0DA2EEF010E94C808FE01E894A5916B
S11310A02591359145915591A6F3EF010E943E0992
S11310B0FE019701A801DA9469F7DF90EF90FF90A1
S11310C00F911F91CF91DF91089500240A94161671
S11310D0170618060906089500240A941216130622
S11310E0140605060895092E0394000C11F48823B0
S11310F052F0BB0F40F4BF2B11F460FF04C06F5FCC
S11311007F4F8F4F9F4F089557FD9058440F551FA1
S113111059F05F3F71F04795880F97FB991F61F075
S11311209F3F79F087950895121613061406551FEC
S1131130F2CF4695F1DF08C0161617061806991F58
S1131140F1CF86957105610508940895E894BB274D
S113115066277727CB0197F908959B01AC0160E0DE
S113116070E080E89FE30C9450070E94C8080C9438
S113117073080E94650838F00E946C0820F09523DB
S113118011F00C9435080C943B0811240C94A70816
S11311900E94840870F3959FC1F3950F50E0551F8A
S11311A0629FF001729FBB27F00DB11D639FAA27B8
S11311B0F00DB11DAA1F649F6627B00DA11D661F07
S11311C0829F2227B00DA11D621F739FB00DA11D28
S11311D0621F839FA00D611D221F749F3327A00DE2
S11311E0611D231F849F600D211D822F762F6A2F7E
S11311F011249F5750409AF0F1F088234AF0EE0FE3
S1131200FF1FBB1F661F771F881F91505040A9F70F
S11312109E3F510580F00C9435080C94A7085F3F5D
S1131220E4F3983ED4F3869577956795B795F7954B
S1131230E7959F5FC1F7FE2B880F911D96958795C3
S113124097F908959B01AC010C94B5085058BB273D
S1131250AA270E943E090C9473080E94650838F07E
S11312600E946C0820F039F49F3F19F426F40C9482
S11312703B080EF4E095E7FB0C943508E92F0E9437
S1131280840858F3BA17620773078407950720F098
S113129079F4A6F50C94A6080EF4E0950B2EBA2F5B
S11312A0A02D0B01B90190010C01CA01A001112468
S11312B0FF27591B99F0593F50F4503E68F11A1614
S11312C0F040A22F232F342F4427585FF3CF4695A5
S11312D037952795A795F0405395C9F77EF41F16C7
S11312E0BA0B620B730B840BBAF09150A1F0FF0F91
S11312F0BB1F661F771F881FC2F70EC0BA0F621F7D
S1131300731F841F48F4879577956795B795F7956C
S11313109E3F08F0B0CF9395880F08F09927EE0F01
S113132097958795089597FB072E16F4009407D098
S113133077FD09D00E94C90907FC05D03EF49095B9
S113134081959F4F0895709561957F4F0895A1E20F
S11313501A2EAA1BBB1BFD010DC0AA1FBB1FEE1F2B
S1131360FF1FA217B307E407F50720F0A21BB30B76
S1131370E40BF50B661F771F881F991F1A9469F7F2
S113138060957095809590959B01AC01BD01CF014E
S11313900895AA1BBB1B51E107C0AA1FBB1FA617B8
S11313A0B70710F0A61BB70B881F991F5A95A9F70A
S11313B080959095BC01CD0108950F931F93CF9311
S11313C0DF938230910510F482E090E0E091C20254
S11313D0F091C30220E030E0A0E0B0E0309719F1D2
S11313E0408151810281138148175907C8F084173D
S11313F0950769F4109731F012960C93129713968F
S11314001C9327C00093C2021093C30222C021156B
S1131410310519F04217530718F49A01BD01EF0181
S1131420DF01F801DBCF21153105F9F0281B390B59
S11314302430310580F48A819B816115710521F086
S1131440FB019383828304C09093C3028093C202FE
S1131450FE01329644C0FE01E20FF31F8193919383
S113146022503109398328833AC02091C002309137
S1131470C102232B41F420910201309103013093E6
S1131480C1022093C0022091000130910101211575
S1131490310541F42DB73EB7409104015091050147
S11314A0241B350BE091C002F091C102E217F3074F
S11314B0A0F42E1B3F0B2817390778F0AC014E5FC0
S11314C05F4F2417350748F04E0F5F1F5093C1023A
S11314D04093C0028193919302C0E0E0F0E0CF0119
S11314E0DF91CF911F910F910895CF93DF930097D0
S11314F009F481C0FC01329713821282A091C202C6
S1131500B091C302109781F420813181820F931F1F
S11315102091C0023091C1022817390751F5F09388
S1131520C102E093C00267C0ED0120E030E0CE17B5
S1131530DF0740F44A815B819E0141155105F1F0BA
S1131540EA01F5CFD383C28340815181840F951F73
S1131550C817D90759F488819981840F951F029679
S1131560918380838A819B819383828321153105B2
S113157029F4F093C302E093C2023DC0E901FB8366
S1131580EA8349915991C40FD51FEC17FD0761F403
S113159080819181840F951F0296E9019983888344
S11315A0828193819B838A83E0E0F0E012968D919F
S11315B09C911397009719F0FD01DC01F7CF8D91F1
S11315C09C9111979D012E5F3F4F820F931F209195
S11315D0C0023091C1022817390769F4309729F401
S11315E01092C3021092C20202C013821282B093FC
S11315F0C102A093C002DF91CF910895FB01DC01E9
S11316008D91019080190110D9F3990B08950F93CE
S11316101F93CF93DF93009731F46115710519F48B
S113162080E090E03AC08B01EC016EE070E081E074
S113163090E00E94790DFC01892B91F380E883836B
S11316400115110571F01387028781E88383809166
S1131650C4029091C502892B21F4F093C502E09352
S1131660C4022097C9F0D187C087838182608383B5
S11316708091C6029091C702892B71F4F093C7023E
S1131680E093C6028091C8029091C902892B21F48B
S1131690F093C902E093C802CF01DF91CF911F916B
S11316A00F910895A0E0B0E0E8E5FBE00C945C0E37
S11316B0AE014B5F5F4FFA0161917191AF0180916F
S11316C0C6029091C7020E94980BE2E00C94780E37
S11316D00F931F93CF93DF93E091C602F091C7025B
S11316E0238121FF1BC08C01D0E0C0E0F80181916F
S11316F08F016091C6027091C702DB011896ED91CB
S1131700FC911997882331F00995892B79F3DFEF40
S1131710CFEFECCF8AE00995892B19F08FEF9FEF7B
S113172002C08D2F9C2FDF91CF911F910F910895AF
S1131730ABE0B0E0EEE9FBE00C944C0E6C017B01F5
S11317408A01FC0117821682838181FFCCC1CE01FC
S113175001963C01F6019381F70193FD859193FF76
S113176081917F01882309F4BAC1853239F493FD4C
S1131770859193FF81917F01853229F4B60190E030
S11317800E94B20DE7CF912C212C312CFFE1F315EF
S1131790D8F08B3279F038F4803279F08332A1F4C6
S11317A0232D20611DC08D3261F0803369F4232D17
S11317B0216016C0832D8260382EE32DE4603E2E16
S11317C02AC0F32DF8601DC037FC2DC020ED280F72
S11317D02A3040F08E32B9F436FC81C1232D2064C6
S11317E0322E19C036FE06C08AE0989E200D1124C0
S11317F0922E11C0EAE02E9E200D1124222EF32DEC
S1131800F0623F2E08C08C3621F4832D8068382E78
S113181002C0883641F4F70193FD859193FF8191CD
S11318207F018111B3CF982F9F7D9554933028F475
S11318300C5F1F4F9FE399830DC0833631F08337CC
S113184071F0833509F059C021C0F8018081898382
S11318500E5F1F4F88248394912C530113C02801D9
S1131860F2E04F0E511CF801A080B18036FE03C097
S1131870692D70E002C06FEF7FEFC5010E94A70DD4
S11318804C018201F32DFF773F2E16C0280122E080
S1131890420E511CF801A080B18036FE03C0692DB0
S11318A070E002C06FEF7FEFC5010E94950D4C01FF
S11318B0F32DF0683F2E820133FC1BC0822D90E093
S11318C088169906B0F4B60180E290E00E94B20D49
S11318D02A94F4CFF50137FC859137FE81915F019D
S11318E0B60190E00E94B20D21102A9421E0821AE0
S11318F091088114910471F7E8C0843611F0893697
S113190041F5F80137FE07C06081718182819381BE
S11319100C5F1F4F08C060817181072E000C880B7B
S1131920990B0E5F1F4FF32DFF763F2E97FF09C0D3
S113193090958095709561957F4F8F4F9F4FF0687C
S11319403F2E2AE030E0A3010E94EE0D882E861877
S113195045C0853731F4232D2F7EB22E2AE030E0A6
S113196025C0932D997FB92E8F36C1F018F4883590
S113197079F0B5C0803719F0883721F0B0C0E92F6D
S1131980E061BE2EB4FE0DC0FB2DF460BF2E09C075
S113199034FE0AC0292F2660B22E06C028E030E0AB
S11319A005C020E130E002C020E132E0F801B7FEDA
S11319B007C060817181828193810C5F1F4F06C0D3
S11319C06081718180E090E00E5F1F4FA3010E944F
S11319D0EE0D882E8618FB2DFF773F2E36FE0DC0A8
S11319E0232D2E7FA22E891458F434FE0BC032FC12
S11319F009C0832D8E7EA82E05C0B82CA32C03C04D
S1131A00B82C01C0B92CA4FE0FC0FE01E80DF11DD5
S1131A108081803321F49A2D997EA92E09C0A2FEDB
S1131A2006C0B394B39404C08A2D867809F0B394A5
S1131A30A3FC11C0A0FE06C0B21488F4280C922C9A
S1131A409B180EC0B21460F4B60180E290E00E94CC
S1131A50B20DB394F7CFB21418F42B1802C0982C1B
S1131A60212CA4FE10C0B60180E390E00E94B20DC8
S1131A70A2FE17C0A1FC03C088E790E002C088E57D
S1131A8090E0B6010CC08A2D867859F0A1FE02C000
S1131A908BE201C080E2A7FC8DE2B60190E00E94D7
S1131AA0B20D891438F4B60180E390E00E94B20DBF
S1131AB09A94F7CF8A94F301E80DF11D8081B60161
S1131AC090E00E94B20D8110F5CF222009F442CE9D
S1131AD0B60180E290E00E94B20D2A94F6CFF6019E
S1131AE08681978102C08FEF9FEF2B96E2E10C94E1
S1131AF0680E0F931F93CF93DF93869F8001879F78
S1131B00100D969F100D1124C8010E94DD09EC01EF
S1131B10009729F0A80160E070E00E94A00DCE01BA
S1131B20DF91CF911F910F910895FC0105906150B1
S1131B3070400110D8F7809590958E0F9F1F0895DF
S1131B40DC0101C06D9341505040E0F70895FC0161
S1131B506150704001900110D8F7809590958E0FD8
S1131B609F1F08950F931F93CF93DF93FB0123814E
S1131B7021FD03C08FEF9FEF2CC022FF16C04681CA
S1131B805781248135814217530744F4A081B181E0
S1131B909D012F5F3F4F318320838C9326813781B2
S1131BA02F5F3F4F3783268314C08B01EC01FB0169
S1131BB00084F185E02D0995892BE1F6D80116966C
S1131BC08D919C911797019617969C938E931697D7
S1131BD0CE01DF91CF911F910F910895FA01AA27A9
S1131BE0283051F1203181F1E8946F936E7F6E5F5C
S1131BF07F4F8F4F9F4FAF4FB1E03ED0B4E03CD00A
S1131C00670F781F891F9A1FA11D680F791F8A1FEC
S1131C10911DA11D6A0F711D811D911DA11D20D053
S1131C2009F468943F912AE0269F11243019305D0D
S1131C303193DEF6CF010895462F4770405D4193FE
S1131C40B3E00FD0C9F7F6CF462F4F70405D4A334B
S1131C5018F0495D31FD4052419302D0A9F7EACF13
S1131C60B4E0A6959795879577956795BA95C9F742
S1131C7000976105710508959B01AC010A2E069435
S1131C805795479537952795BA95C9F7620F731FEE
S1131C90841F951FA01D08952F923F924F925F922B
S1131CA06F927F928F929F92AF92BF92CF92DF9268
S1131CB0EF92FF920F931F93CF93DF93CDB7DEB7CD
S1131CC0CA1BDB0B0FB6F894DEBF0FBECDBF099461
S1131CD02A88398848885F846E847D848C849B84B8
S1131CE0AA84B984C884DF80EE80FD800C811B81C6
S1131CF0AA81B981CE0FD11D0FB6F894DEBF0FBEF5
S10D1D00CDBFED010895F894FFCF64
S1131D0A0000CA0220004002BD014702BD01BD0114
S1131D1A4E02BD01540259024002BD014702BD01EF
S1131D2ABD015E02BD015402BD0163025B02BD0135
S1131D3A4002BD014702BD01BD01BD016802BD01EA
S1131D4ABD016D02BD01BD01BD01BD017502BD012B
S1131D5A7A02BD01BD0182023D024002BD01470271
S1131D6ABD018602BD0154028C023D024002BD013E
S1131D7A4702BD01BD01BD0190029502BD01BD012D
S1131D8A5B024002BD014702BD01BD019E02BD01C5
S1131D9ABD014B02A402BD01BD017502BD01A90228
S1131DAA82025B025374617274696E672070726F87
S1131DBA6772616D0A0A0A0A0A0A0A0A0A00526959
S1131DCA636B004265666F7265207370692077726F
S1131DDA697465004E6F7420696E20636F6E66695C
S1131DEA67206D6F646500706C6179696E67204C59
S1131DFA6973612047696B6B2074696C20536B6F3C
S1131E0A6C656E2C206E6F7420627920546F746F27
S1131E1A0A0A0D00506C6179696E672066726571F1
S1131E2A75656E63793A20256900596F7520676F65
S1131E3A74207269636B726F6C6C65640A0A0D00B4
S1131E4A4E657665722000676F6E6E612000676961
S1131E5A76652000796F75200075700D0A006C652F
S1131E6A742000646F776E0072756E200061726F61
S1131E7A756E642000616E64200064657365727413
S1131E8A2000796F75006D616B65200063727900BB
S1131E9A7361792000676F6F6462796520007465E5
S1131EAA6C6C20006C6965200068757274200000EF
S9030000FC
