S00F00006279676765726E2E7372656327
S11300000C94CB010C94E8010C94E8010C94E801E5
S11300100C94E8010C94E8010C94E8010C94E801B8
S11300200C94E8010C94E8010C94E8010C94E801A8
S11300300C94E8010C94E8010C9414060C94E80167
S11300400C94E8010C94E8010C94E8010C94E80188
S11300500C94E8010C94E8010C94E8010C94E80178
S11300600C94E8010C94E8010C94E8010C94E80168
S1130070084AD73B3BCE016E84BCBFFDC12F3D6C0B
S113008074319ABD56833DDA3D00C77F11BED9E471
S1130090BB4C3E916BAAAABE000000803F0000004A
S11300A000000000000000065F5F0600000000077B
S11300B0070007070000147F7F147F7F1400242E9D
S11300C06B6B3A120000466630180C666200307A98
S11300D04F5D377A48000407030000000000001C4D
S11300E03E63410000000041633E1C000000082AFA
S11300F03E1C1C3E2A0808083E3E0808000000A0DA
S1130100E06000000000080808080808000000007B
S11301106060000000006030180C060301003E7FA0
S1130120594D7F3E000042427F7F40400000627391
S113013059496F660000226349497F360000181C44
S113014016137F7F1000276745457D3900003C7EEC
S11301504B4979300000036371190F070000367FA3
S113016049497F360000064F49693F1E00000000E0
S11301706C6C0000000000A0EC6C00000000081C87
S113018036634100000014141414141400000041D8
S113019063361C080000020351590F0600003E7F1D
S11301A0415D5D1F1E007C7E13137E7C0000417F39
S11301B07F49497F36001C3E634141632200417FF1
S11301C07F41637F1C00417F7F495D416300417F24
S11301D07F491D0103001C3E6341517372007F7F00
S11301E008087F7F000000417F7F410000003070DD
S11301F040417F3F0100417F7F081C776300417FBE
S11302007F41406070007F7F060C067F7F007F7F08
S1130210060C187F7F001C3E6341633E1C00417F37
S11302207F49090F06001E3F21717F5E0000417F58
S11302307F19396F460026674D597B320000034110
S11302407F7F410300007F7F40407F7F00001F3F8E
S113025060603F1F00007F7F3018307F7F0063772E
S11302601C081C776300074F78784F0700006773FA
S1130270594D47637100007F7F4141000000010335
S1130280060C183060000041417F7F000000080C1C
S11302900603060C08008080808080808080000037
S11302A0030704000000207454543C784000413F8C
S11302B07F44447C3800387C44446C280000307807
S11302C048493F7F4000387C54545C180000487E05
S11302D07F490302000098BCA4A4F87C0400417F79
S11302E07F08047C780000447D7D4000000040C409
S11302F084FD7D000000417F7F10386C4400004184
S11303007F7F400000007C7C0C180C7C78007C7C97
S113031004047C780000387C44447C38000084FC6D
S1130320F8A4243C1800183C24A4F8FC8400447C61
S113033078441C180000485C5454742400000004E1
S11303403E7F442400003C7C40403C7C40001C3CFC
S113035060603C1C00003C7C6030607C3C00446C71
S11303603810386C44009CBCA0A0FC7C00004C6499
S1130370745C4C64000008083E77414100000000B2
S11303800077770000004141773E0808000002032F
S113039001030203010011241FBECFEFD4E0DEBF2E
S11303A0CDBF11E0A0E0B1E0E4E4FCE102C00590BF
S11303B00D92A03FB107D9F722E0A0EFB1E001C050
S11303C01D92AA30B207E1F70E94F4010C94200EAA
S11303D00C94000030980895846080930014289948
S11303E0FECF8091001408950E94BD0565E081E36D
S11303F00E94650260E084E00E94F70581E80E94A3
S1130400EE0561E084E00E94F70581E60E944C025B
S11304101F928F9386E091E09F938F930E94EF0A3F
S11304208DE191E00E94050B0F900F900F900F90BB
S1130430C6E0D1E00E941F032FEF8FE797E0215021
S113044080409040E1F700C0000065E081E30E9435
S113045065022FEF8FE797E0215080409040E1F74D
S113046000C0000080E00E9401032FEF8FE797E0B7
S1130470215080409040E1F700C0000081E60E94D6
S11304804C021F928F93DF93CF930E94EF0A0F9039
S11304900F900F900F90CECFCF93C82F60E084E0E1
S11304A00E94F70583E00E94EE058C2F0E94EE0562
S11304B080E00E94EE050E94F205C82F61E084E00E
S11304C00E94F7058C2FCF910895CF93DF93D82FF7
S11304D0C62F60E084E00E94F70582E00E94EE05EA
S11304E08D2F0E94EE058C2F0E94EE0561E084E0C2
S11304F00E94F705DF91CF9108951F93CF93DF9367
S1130500D82F162FC42F60E084E00E94F70585E001
S11305100E94EE05812F0E94EE058D2F0E94EE05AC
S11305208C2F0E94EE0561E084E00E94F705DF91C4
S1130530CF911F91089560E084E00E94F70587E35E
S113054091E09F938F930E94EF0A80EC0E94EE0546
S113055061E084E00E94F7050F900F9008950E94D7
S1130560E5050E949B028FEF9FE50197F1F700C01C
S113057000008EE00E944C02EFEFFFE53197F1F7A7
S113058000C00000807E803861F01F928F9388E461
S113059091E09F938F930E94EF0A0F900F900F901A
S11305A00F9040E46FE080EE0E947D0240E660E63A
S11305B080E60E947D0241E06BE281E00E947D02C0
S11305C0FFEF2FEF82E0F15020408040E1F700C0C0
S11305D000C083E691E09F938F930E94EF0A8EE020
S11305E00E944C021F928F938CE791E09F938F930C
S11305F00E94EF0A0F900F900F900F900F900F90A2
S11306000895CF93C82F60E084E00E94F705C130BD
S113061041F018F0C23049F00BC081E80E94EE05A9
S113062007C082E80E94EE0503C084E80E94EE053C
S113063061E084E00E94F705CF910895089588B1A0
S1130640886888B985B7806285BF889585B78F7DAE
S113065085BF889585B78F7D85BF089580E00E940A
S1130660EC018093FD0181E00E94EC018093FC0188
S11306700895CF92DF92EF92FF92CF93DF9380E0C1
S11306800E94EC01C82F81E00E94EC01E82F6091E8
S1130690FD01C61780F470E02C2F30E0261B370BC9
S11306A044E6429FC001439F900D11240E945409C7
S11306B06093F00114C0462F50E02C2F30E0241B2F
S11306C0350B64E6629FC001639F900D11246FEFA8
S11306D070E0641B750B0E9454096093F001209133
S11306E0FC01E21788F4622F70E04E2F50E0461BA5
S11306F0570B24E6249FC001259F900D11240E94CE
S113070054096093F10113C030E04E2F50E0421BB6
S1130710530B64E6649FC001659F900D11246FEF35
S113072070E0621B730B0E9454096093F101C0EFE7
S1130730D1E06881062E000C770B880B990B0E9480
S1130740BB076B017C016981062E000C770B880BBB
S1130750990B0E94BB07A70196010E94B20620E0F4
S113076030E044EB53E40E94760820E030E040E0BF
S11307705FE30E94760823EC35EF48E450E40E94DE
S113078011070E9483077B836A83DF91CF91FF90D7
S1130790EF90DF90CF900895FC01808194E0980F52
S11307A0993020F491819C5F993090F085302CF041
S11307B081818F5C833638F40DC08C3F24F48181B1
S11307C08F5C833648F081818C3F44F082E0089549
S11307D084E0089581E0089580E0089583E0089519
S11307E08FE190E00E947C09FC01168E2AE0E7E884
S11307F0F1E0DC0101900D922A95E1F7FC01118AE8
S1130800108A0895CF92DF92EF92FF920F931F9375
S1130810CF937C016B018FE190E00E947C098C01F5
S1130820D7015E96EC915E97C1E0CE0F5E96CC93B5
S1130830B6010E949D0AF801F18AE08AC73058F097
S113084081E991E09F938F930E94EF0A0F900F909C
S113085080E090E00EC0EC2FF0E03896EE0FFF1F22
S1130860EE0DFF1D11830083D8015E961C92802F2C
S1130870912FCF911F910F91FF90EF90DF90CF9028
S11308800895EF92FF920F931F93CF93DF930E94EB
S1130890F0038C0161EA71E00E940204EC016BEA4E
S11308A071E00E94020462EB71E0CE010E94020436
S11308B069EB71E0C8010E9402047C01C5E0D0E04C
S11308C063EC71E0C7010E9402042197C9F76BEC45
S11308D071E0C8010E94020461ED71E00E9402040B
S11308E0F801868D1F928F9386ED91E09F938F93ED
S11308F00E94EF0AE4EFF1E011830083128284E0A6
S113090083830F900F900F900F90C801DF91CF91C8
S11309101F910F91FF90EF9008950E94CC03909146
S1130920F701943009F058C08130E1F160F1823070
S1130930C9F0833009F050C0E4EFF1E09281492F0F
S113094050E00190F081E02D268D30E021503109F6
S11309504217530724F49F5F9093F6013DC0109211
S1130960F6013AC09091F601992321F091509093A9
S1130970F60132C0E4EFF1E0A081B1815E969C9172
S11309809150928329C0E091F401F091F5012089FE
S113099031892115310501F1E4EFF1E03183208340
S11309A012821AC0A4EFB1E02D913C9111971296D6
S11309B09C911297E92FF0E03996EE0FFF1FE20F9A
S11309C0F31F0190F081E02D968D992329F0119663
S11309D0FC93EE9312961C928093F70108950F9363
S11309E01F93CF93DF930E9439050E945A05C4EFE9
S11309F0D1E0888199810E949505E881F981868DED
S1130A00882331F1C0E0D0E004EF11E0CE0102967A
S1130A100E949105D8018D919C91FE013996EE0FAB
S1130A20FF1FE80FF91F808191810E949505F8014D
S1130A30828190E08C179D0711F40E944F05219646
S1130A40D801ED91FC91868D90E0C817D907F4F296
S1130A50DF91CF911F910F9108958055E0E0F0E16F
S1130A608083862F8F70808362956F70606160834E
S1130A7008951F93CF93DF9310E0C0E0D2E160E0CC
S1130A80812F0E942D0580E890E018820197E9F7F4
S1130A901F5F1830A1F7DF91CF911F910895E0E017
S1130AA0F2E188E180839CE390839EE790838083D6
S1130AB08083089560E080E00E942D050895E0E0C1
S1130AC0F0E18EEA808381EA80838AED808382E18B
S1130AD0808388EC808388EA80838FE3808385ED3C
S1130AE0808380E8808381E8808380E5808389ED4A
S1130AF0808381E2808380E2808382E080838BED47
S1130B00808380E380838DEA8083108284EA8083FB
S1130B1086EA80838FEA80830E9439050E945A0501
S1130B20089560E00E942D050895CF93DF93DC01C2
S1130B308C9181111AC01EC0EC91F0E0B097EE0FB9
S1130B40FF1FEE0FFF1FEE0FFF1FE20FF31FE25612
S1130B50FF4FE491E8832F5F3F4F2830310561F761
S1130B6011968C91811103C005C0C0E0D2E120E050
S1130B7030E0E2CFDF91CF910895F8940E94980677
S1130B808FE190E00E9487060E94EA010E942E03F2
S1130B900E945A060E945F050E944C060E941E0392
S1130BA00E9441040E94AF0278940895CF93DF938A
S1130BB082E00E94EC01CAEFD1E0888383E00E94C6
S1130BC0EC018983DF91CF91089587B3806A87BB55
S1130BD0BC9A8DB181658DB9C49A08958FB9779BFC
S1130BE0FECF08951FB8779BFECF8FB1089566237B
S1130BF069F048B321E030E0B90102C0660F771F05
S1130C008A95E2F7CB01842B88BB089548B321E091
S1130C1030E0B90102C0660F771F8A95E2F7CB0175
S1130C208095842388BB08951F920F920FB60F926C
S1130C3011242F933F934F935F936F937F938F93DD
S1130C409F93AF93BF93EF93FF93F8941DBC1CBC89
S1130C5080EF91E00E9439038AEF91E00E94D6056B
S1130C6088EF91E00E94730680EF91E00E948D046A
S1130C700E94EF047894FF91EF91BF91AF919F91FF
S1130C808F917F916F915F914F913F912F910F9031
S1130C900FBE0F901F90189589B7806289BF1DBC45
S1130CA01CBC80E38FBD85E08EBD80EF90E099BDD4
S1130CB088BD089536B326B347B3327081E090E01F
S1130CC0BC0102C0660F771F3A95E2F7247002C098
S1130CD0880F991F2A95E2F7862B972B809590957C
S1130CE0842387BB089586B3E8EFF1E0869581708D
S1130CF0808386B382FB882780F9818308955D9B76
S1130D00FECF8CB908955F9BFECF8CB1089590BD42
S1130D1089B988E18AB98EE880BD63E876E08FE717
S1130D2096E00E94A40A9093FF018093FE01089527
S1130D3085B7806885BF80B7886080BF08950E94AA
S1130D40260860F080E891E009F49EEF0E942D08E7
S1130D5028F040E851E071F45EEF0CC00C94FC07FD
S1130D600C946708E92FE0780E94450840F3092EA7
S1130D70052AB1F3261737074807590738F00E2E0E
S1130D8007F8E02569F0E025E0640AC0EF6307F89E
S1130D90009407FADB01B9019D01DC01CA01AD0130
S1130DA0EF930E9428070E9434080E94E2065F9194
S1130DB0552339F02BED3FE049E450FD49EC0C9408
S1130DC0E8080895DF93DD27B92FBF7740E85FE394
S1130DD01616170648075B0718F4D92F0E946E08E9
S1130DE09F938F937F936F930E94E308E0E7F0E073
S1130DF00E94FF070E9434082F913F914F915F9109
S1130E000E948908DD2351F09058A2EA2AED3FE0C0
S1130E1049EC5FE3D0785D270E94FF08DF910C94D2
S1130E2034080E9425070C9434080E942D0858F0B9
S1130E300E94260840F029F45F3F29F00C94F6073D
S1130E4051110C9468080C94FC070E94450868F33F
S1130E509923B1F3552391F3951B550BBB27AA276F
S1130E6062177307840738F09F5F5F4F220F331FA9
S1130E70441FAA1FA9F335D00E2E3AF0E0E832D071
S1130E8091505040E695001CCAF72BD0FE2F29D074
S1130E90660F771F881FBB1F261737074807AB0746
S1130EA0B0E809F0BB0B802DBF01FF2793585F4FBB
S1130EB03AF09E3F510578F00C94F6070C946808BC
S1130EC05F3FE4F3983ED4F3869577956795B7959D
S1130ED0F7959F5FC9F7880F911D9695879597F9A8
S1130EE00895E1E0660F771F881FBB1F6217730721
S1130EF08407BA0720F0621B730B840BBA0BEE1F36
S1130F0088F7E09508950E948A076894B1110C94BB
S1130F10680808950E944D0888F09F5798F0B92FEB
S1130F209927B751B0F0E1F0660F771F881F991F1A
S1130F301AF0BA95C9F714C0B13091F00E9467084D
S1130F40B1E008950C946708672F782F8827B85F5D
S1130F5039F0B93FCCF3869577956795B395D9F772
S1130F603EF490958095709561957F4F8F4F9F4F7C
S1130F700895E89409C097FB3EF490958095709588
S1130F8061957F4F8F4F9F4F9923A9F0F92F96E9D1
S1130F90BB279395F695879577956795B795F11146
S1130FA0F8CFFAF4BB0F11F460FF1BC06F5F7F4FE3
S1130FB08F4F9F4F16C0882311F096E911C07723F5
S1130FC021F09EE8872F762F05C0662371F096E8FE
S1130FD0862F70E060E02AF09A95660F771F881FCD
S1130FE0DAF7880F9695879597F9089597F99F678B
S1130FF080E870E060E008959FEF80EC0895DF934F
S1131000CF931F930F93FF92EF92DF927B018C019A
S1131010689406C0DA2EEF010E948908FE01E89464
S1131020A5912591359145915591A6F3EF010E9423
S1131030FF08FE019701A801DA9469F7DF90EF90A9
S1131040FF900F911F91CF91DF91089500240A948E
S11310501616170618060906089500240A9412168F
S11310601306140605060895092E0394000C11F4C2
S1131070882352F0BB0F40F4BF2B11F460FF04C06F
S11310806F5F7F4F8F4F9F4F089557FD9058440FC8
S1131090551F59F05F3F71F04795880F97FB991FD3
S11310A061F09F3F79F08795089512161306140690
S11310B0551FF2CF4695F1DF08C01616170618061D
S11310C0991FF1CF86957105610508940895E894F8
S11310D0BB2766277727CB0197F908959B01AC01BD
S11310E060E070E080E89FE30C9411070E94890897
S11310F00C9434080E94260838F00E942D0820F031
S1131100952311F00C94F6070C94FC0711240C940D
S113111068080E94450870F3959FC1F3950F50E04D
S1131120551F629FF001729FBB27F00DB11D639F95
S1131130AA27F00DB11DAA1F649F6627B00DA11D3B
S1131140661F829F2227B00DA11D621F739FB00DE1
S1131150A11D621F839FA00D611D221F749F332751
S1131160A00D611D231F849F600D211D822F762FEA
S11311706A2F11249F5750409AF0F1F088234AF0C7
S1131180EE0FFF1FBB1F661F771F881F9150504033
S1131190A9F79E3F510580F00C94F6070C9468085B
S11311A05F3FE4F3983ED4F3869577956795B795BA
S11311B0F795E7959F5FC1F7FE2B880F911D9695D4
S11311C0879597F908959B01AC010C9476085058C3
S11311D0BB27AA270E94FF080C9434080E94260803
S11311E038F00E942D0820F039F49F3F19F426F4BA
S11311F00C94FC070EF4E095E7FB0C94F607E92F3A
S11312000E94450858F3BA176207730784079507C5
S113121020F079F4A6F50C9467080EF4E0950B2EF3
S1131220BA2FA02D0B01B90190010C01CA01A00134
S11312301124FF27591B99F0593F50F4503E68F18F
S11312401A16F040A22F232F342F4427585FF3CFD0
S1131250469537952795A795F0405395C9F77EF4A1
S11312601F16BA0B620B730B840BBAF09150A1F0EA
S1131270FF0FBB1F661F771F881FC2F70EC0BA0F70
S1131280621F731F841F48F4879577956795B795F8
S1131290F7959E3F08F0B0CF9395880F08F09927F3
S11312A0EE0F97958795089597FB072E16F40094F3
S11312B007D077FD09D00E94680907FC05D03EF4E9
S11312C0909581959F4F0895709561957F4F0895EE
S11312D0AA1BBB1B51E107C0AA1FBB1FA617B70758
S11312E010F0A61BB70B881F991F5A95A9F7809574
S11312F09095BC01CD0108950F931F93CF93DF9375
S11313008230910510F482E090E0E0910202F091C5
S1131310030220E030E0A0E0B0E0309719F1408112
S113132051810281138148175907C8F08417950722
S113133069F4109731F012960C93129713961C933C
S113134027C0009302021093030222C02115310525
S113135019F04217530718F49A01BD01EF01DF0198
S1131360F801DBCF21153105F9F0281B390B2430A6
S1131370310580F48A819B816115710521F0FB019F
S11313809383828304C09093030280930202FE013C
S1131390329644C0FE01E20FF31F819391932250D1
S11313A03109398328833AC0209100023091010227
S11313B0232B41F420910201309103013093010267
S11313C02093000220910001309101012115310583
S11313D041F42DB73EB74091040150910501241BFF
S11313E0350BE0910002F0910102E217F307A0F43B
S11313F02E1B3F0B2817390778F0AC014E5F5F4F67
S11314002417350748F04E0F5F1F50930102409395
S113141000028193919302C0E0E0F0E0CF01DF91FC
S1131420CF911F910F910895CF93DF93009709F403
S113143081C0FC01329713821282A0910202B09102
S11314400302109781F420813181820F931F209130
S11314500002309101022817390751F5F093010277
S1131460E093000267C0ED0120E030E0CE17DF0713
S113147040F44A815B819E0141155105F1F0EA0176
S1131480F5CFD383C28340815181840F951FC81740
S1131490D90759F488819981840F951F0296918305
S11314A080838A819B81938382832115310529F46A
S11314B0F0930302E09302023DC0E901FB83EA8357
S11314C049915991C40FD51FEC17FD0761F4808130
S11314D09181840F951F0296E90199838883828103
S11314E093819B838A83E0E0F0E012968D919C9136
S11314F01397009719F0FD01DC01F7CF8D919C91B2
S113150011979D012E5F3F4F820F931F2091000280
S1131510309101022817390769F4309729F41092A1
S113152003021092020202C013821282B0930102DB
S1131530A0930002DF91CF910895FB01DC0101909B
S11315400D920020E1F708950F931F93CF93DF933B
S1131550009731F46115710519F480E090E03AC008
S11315608B01EC016EE070E081E090E00E94160DCA
S1131570FC01892B91F380E883830115110571F037
S11315801387028781E88383809104029091050286
S1131590892B21F4F0930502E09304022097C9F00B
S11315A0D187C08783818260838380910602909172
S11315B00702892B71F4F0930702E09306028091ED
S11315C0080290910902892B21F4F0930902E09317
S11315D00802CF01DF91CF911F910F910895A0E0F0
S11315E0B0E0E5EFFAE00C94F90DAE014B5F5F4F0C
S11315F0FA0161917191AF01809106029091070205
S11316000E94350BE2E00C94150E0F931F93CF93B9
S1131610DF93E0910602F0910702238121FF1BC0B2
S11316208C01D0E0C0E0F80181918F016091060245
S113163070910702DB011896ED91FC9119978823AC
S113164031F00995892B79F3DFEFCFEFECCF8AE006
S11316500995892B19F08FEF9FEF02C08D2F9C2FD6
S1131660DF91CF911F910F910895ABE0B0E0EBE3D0
S1131670FBE00C94E90D6C017B018A01FC011782EB
S11316801682838181FFCCC1CE0101963C01F60113
S11316909381F70193FD859193FF81917F018823C5
S11316A009F4BAC1853239F493FD859193FF819190
S11316B07F01853229F4B60190E00E944F0DE7CFF7
S11316C0912C212C312CFFE1F315D8F08B3279F0D9
S11316D038F4803279F08332A1F4232D20611DC0C7
S11316E08D3261F0803369F4232D216016C0832D7F
S11316F08260382EE32DE4603E2E2AC0F32DF8607C
S11317001DC037FC2DC020ED280F2A3040F08E324A
S1131710B9F436FC81C1232D2064322E19C036FE63
S113172006C08AE0989E200D1124922E11C0EAE092
S11317302E9E200D1124222EF32DF0623F2E08C080
S11317408C3621F4832D8068382E02C0883641F40B
S1131750F70193FD859193FF81917F018111B3CFAF
S1131760982F9F7D9554933028F40C5F1F4F9FE36F
S113177099830DC0833631F0833771F0833509F0D6
S113178059C021C0F801808189830E5F1F4F8824CE
S11317908394912C530113C02801F2E04F0E511C85
S11317A0F801A080B18036FE03C0692D70E002C04C
S11317B06FEF7FEFC5010E94440D4C018201F32DB0
S11317C0FF773F2E16C0280122E0420E511CF8017B
S11317D0A080B18036FE03C0692D70E002C06FEFB7
S11317E07FEFC5010E94320D4C01F32DF0683F2EAE
S11317F0820133FC1BC0822D90E088169906B0F458
S1131800B60180E290E00E944F0D2A94F4CFF501D6
S113181037FC859137FE81915F01B60190E00E940B
S11318204F0D21102A9421E0821A91088114910409
S113183071F7E8C0843611F0893641F5F80137FEB6
S113184007C060817181828193810C5F1F4F08C042
S113185060817181072E000C880B990B0E5F1F4F5E
S1131860F32DFF763F2E97FF09C0909580957095D4
S113187061957F4F8F4F9F4FF0683F2E2AE030E0F5
S1131880A3010E948B0D882E861845C0853731F43C
S1131890232D2F7EB22E2AE030E025C0932D997F90
S11318A0B92E8F36C1F018F4883579F0B5C0803779
S11318B019F0883721F0B0C0E92FE061BE2EB4FEE4
S11318C00DC0FB2DF460BF2E09C034FE0AC0292FC1
S11318D02660B22E06C028E030E005C020E130E0EA
S11318E002C020E132E0F801B7FE07C060817181D7
S11318F0828193810C5F1F4F06C06081718180E0FB
S113190090E00E5F1F4FA3010E948B0D882E861856
S1131910FB2DFF773F2E36FE0DC0232D2E7FA22EEA
S1131920891458F434FE0BC032FC09C0832D8E7E1A
S1131930A82E05C0B82CA32C03C0B82C01C0B92C08
S1131940A4FE0FC0FE01E80DF11D8081803321F457
S11319509A2D997EA92E09C0A2FE06C0B394B39411
S113196004C08A2D867809F0B394A3FC11C0A0FEAC
S113197006C0B21488F4280C922C9B180EC0B21422
S113198060F4B60180E290E00E944F0DB394F7CF6B
S1131990B21418F42B1802C0982C212CA4FE10C0E9
S11319A0B60180E390E00E944F0DA2FE17C0A1FC97
S11319B003C088E790E002C088E590E0B6010CC05F
S11319C08A2D867859F0A1FE02C08BE201C080E224
S11319D0A7FC8DE2B60190E00E944F0D891438F403
S11319E0B60180E390E00E944F0D9A94F7CF8A9459
S11319F0F301E80DF11D8081B60190E00E944F0DC6
S1131A008110F5CF222009F442CEB60180E290E0A5
S1131A100E944F0D2A94F6CFF6018681978102C069
S1131A208FEF9FEF2B96E2E10C94050E0F931F931B
S1131A30CF93DF93869F8001879F100D969F100D93
S1131A401124C8010E947C09EC01009729F0A80127
S1131A5060E070E00E943D0DCE01DF91CF911F91B7
S1131A600F910895FC010590615070400110D8F762
S1131A70809590958E0F9F1F0895DC0101C06D9392
S1131A8041505040E0F70895FC01615070400190CE
S1131A900110D8F7809590958E0F9F1F08950F938E
S1131AA01F93CF93DF93FB01238121FD03C08FEFAD
S1131AB09FEF2CC022FF16C04681578124813581B7
S1131AC04217530744F4A081B1819D012F5F3F4F1A
S1131AD0318320838C93268137812F5F3F4F378357
S1131AE0268314C08B01EC01FB010084F185E02DF9
S1131AF00995892BE1F6D80116968D919C9117973B
S1131B00019617969C938E931697CE01DF91CF91F1
S1131B101F910F910895FA01AA27283051F120311D
S1131B2081F1E8946F936E7F6E5F7F4F8F4F9F4F6D
S1131B30AF4FB1E03ED0B4E03CD0670F781F891FAF
S1131B409A1FA11D680F791F8A1F911DA11D6A0F7D
S1131B50711D811D911DA11D20D009F468943F9130
S1131B602AE0269F11243019305D3193DEF6CF012F
S1131B700895462F4770405D4193B3E00FD0C9F7F5
S1131B80F6CF462F4F70405D4A3318F0495D31FD62
S1131B904052419302D0A9F7EACFB4E0A6959795B5
S1131BA0879577956795BA95C9F70097610571058B
S1131BB008959B01AC010A2E0694579547953795D5
S1131BC02795BA95C9F7620F731F841F951FA01D2F
S1131BD008952F923F924F925F926F927F928F92CD
S1131BE09F92AF92BF92CF92DF92EF92FF920F93A8
S1131BF01F93CF93DF93CDB7DEB7CA1BDB0B0FB6B2
S1131C00F894DEBF0FBECDBF09942A88398848886E
S1131C105F846E847D848C849B84AA84B984C88404
S1131C20DF80EE80FD800C811B81AA81B981CE0FFB
S1131C30D11D0FB6F894DEBF0FBECDBFED010895E0
S1071C40F894FFCF42
S1131C4400000A02200054686973206973206D79C6
S1131C5420696E74656765723A202569005374615E
S1131C647274696E672070726F6772616D0A0A0A12
S1131C740A0A0A0A0A0A004265666F7265207370CA
S1131C8469207772697465004E6F7420696E2063ED
S1131C946F6E666967206D6F64652C200920256961
S1131CA40A0D006166746572207772697465207424
S1131CB46F2063616E6374726C0A0D004461746115
S1131CC43A2025690A0D004D61696E206D656E75B3
S1131CD40052456163686564206D61783A200A0D99
S1131CE400506C61792067616D650047414D452062
S1131CF4310047414D452032004869676873636F7A
S1131D04726500486967683A2031004D75736963E8
S1131D14005269636B004E756D626572206F6620B4
S1131D246368696C6472656E3A2025690A0D000063
S9030000FC
