S00F00006279676765726E2E7372656327
S11300000C944F000C946C000C946C000C946C00D9
S11300100C946C000C946C000C946C000C946C00AC
S11300200C946C000C946C000C946C000C946C009C
S11300300C946C000C946C000C94FF000C946C00F9
S11300400C946C000C946C000C946C000C946C007C
S11300500C946C000C946C000C946C000C946C006C
S11300600C946C000C946C000C946C000C946C005C
S1130070084AD73B3BCE016E84BCBFFDC12F3D6C0B
S113008074319ABD56833DDA3D00C77F11BED9E471
S1130090BB4C3E916BAAAABE000000803F00112415
S11300A01FBECFEFD4E0DEBFCDBF12E0A0E0B1E0D1
S11300B0E8E5F5E102C005900D92AE38B107D9F735
S11300C022E0AEE8B2E001C01D92A43AB207E1F723
S11300D00E943F010C94AA0A0C94000030980895E1
S11300E08460809300142899FECF809100140895B1
S11300F0CF92DF92EF92FF920F931F93CF93DF93F0
S11301008AE091E09F938F930E9425060E94CA057E
S11301107C010E94CF050F900F90C12CD12C00E0E0
S113012010E0C2E2D1E00E94CA05F601F85E8083C5
S113013020812817A9F099279F938F931F922F93BB
S1130140DF92CF92DF93CF930E9425060F5F1F4F5C
S11301508DB79EB708960FB6F8949EBF0FBE8DBF9D
S11301609FEFC91AD90AC11488E0D806E1F6C7017D
S11301700E94CF05C0E0D0E0E12CF12C0F2EFCE56D
S1130180CF2EF1E0DF2EF02D0E94CA05FE01F85EAD
S113019020812817B1F099279F938F931F922F9353
S11301A0DF93CF93DF92CF920E9425069FEFE91A47
S11301B0F90A8DB79EB708960FB6F8949EBF0FBE86
S11301C08DBF2196C11598E0D907F1F6FF92EF9201
S11301D01F930F938AE991E09F938F930E942506C2
S11301E00F900F900F900F900F900F90DF91CF9181
S11301F01F910F91FF90EF90DF90CF9008951F9281
S11302000F920FB60F9211242F933F934F935F9346
S11302106F937F938F939F93AF93BF93EF93FF93CA
S1130220F8941DBC1CBC8CB59DB59F938F9385EF32
S113023091E09F938F930E9425068EE892E00E949E
S1130240B40184E992E00E94510282E992E00E94A2
S1130250780278940F900F900F900F90FF91EF9188
S1130260BF91AF919F918F917F916F915F914F91CA
S11302703F912F910F900FBE0F901F9018950E94E1
S113028044020E9478008BE092E09F938F930E9437
S11302902506F89489B7806289BF1DBC1CBC80E325
S11302A08FBD85E08EBD80EF90E099BD88BD7894C8
S11302B08BE192E09F938F930E9425060F900F90FD
S11302C00F900F900F2EFDE2AF2EF2E0BF2EF02D17
S11302D0CEE8D2E00F2EF2E9CF2EF2E0DF2EF02DA1
S11302E00F2EF4E9EF2EF2E0FF2EF02D00E312E0E2
S11302F0BF92AF920E9425068B818F938A818F9340
S1130300F60181811F928F9380811F928F93F70151
S113031081811F928F9380811F928F938981282FCF
S1130320082E000C330B3F938F938881282F082EBF
S1130330000C330B3F938F931F930F930E9425065A
S11303408DB79EB742960FB6F8949EBF0FBE8DBF71
S1130350CFCF80E00E9470008093970281E00E94DA
S11303607000809396020895CF92DF92EF92FF92ED
S11303701F93CF93DF93EC0180E00E947000182F4D
S113038081E00E947000E82F60919702161778F4BC
S113039070E0212F30E0261B370B44E6429FC0015A
S11303A0439F900D11240E945605688313C0462F65
S11303B050E0212F30E0241B350B64E6629FC0011E
S11303C0639F900D11246FEF70E0641B750B0E9406
S11303D05605688320919602E21780F4622F70E03C
S11303E04E2F50E0461B570B24E6249FC001259F47
S11303F0900D11240E945605698312C030E04E2FDF
S113040050E0421B530B64E6649FC001659F900D4E
S113041011246FEF70E0621B730B0E945605698311
S11304206881062E000C770B880B990B0E94BD0384
S11304306B017C016981062E000C770B880B990BEC
S11304400E94BD03A70196010E94B40220E030E09F
S113045044EB53E40E94780420E030E040E05FE3A2
S11304600E94780423EC35EF48E450E40E9413031F
S11304700E9485037B836A83DF91CF911F91FF9054
S1130480EF90DF90CF9008950E949A028FE190E060
S11304900E9489020E946E000E94A9010E945F02CC
S11304A00895CF93DF93EC0182E00E94700088836B
S11304B083E00E9470008983DF91CF91089536B361
S11304C026B347B3317081E090E0BC0102C0660FEF
S11304D0771F3A95E2F7227002C0880F991F2A9578
S11304E0E2F7862B972B80959095842387BB0895FC
S11304F0FC0196B39170908396B396959170918315
S113050008955D9BFECF8CB908955F9BFECF8CB19F
S1130510089590BD89B988E18AB98EE880BD65E8FF
S113052072E081E892E00E94DA0590939902809348
S11305309802089585B7806885BF80B7886080BFBA
S113054008950E94280460F080E891E009F49EEF89
S11305500E942F0428F040E851E071F45EEF0CC0D3
S11305600C94FE030C946904E92FE0780E9447047C
S113057040F3092E052AB1F3261737074807590710
S113058038F00E2E07F8E02569F0E025E0640AC093
S1130590EF6307F8009407FADB01B9019D01DC0160
S11305A0CA01AD01EF930E942A030E9436040E94FF
S11305B0E4025F91552339F02BED3FE049E450FD0F
S11305C049EC0C94EA040895DF93DD27B92FBF7733
S11305D040E85FE31616170648075B0718F4D92F9F
S11305E00E9470049F938F937F936F930E94E504FE
S11305F0E0E7F0E00E9401040E9436042F913F914D
S11306004F915F910E948B04DD2351F09058A2EA30
S11306102AED3FE049EC5FE3D0785D270E940105B5
S1130620DF910C9436040E9427030C9436040E9434
S11306302F0458F00E94280440F029F45F3F29F069
S11306400C94F80351110C946A040C94FE030E9458
S1130650470468F39923B1F3552391F3951B550B84
S1130660BB27AA2762177307840738F09F5F5F4F81
S1130670220F331F441FAA1FA9F335D00E2E3AF0C0
S1130680E0E832D091505040E695001CCAF72BD0D8
S1130690FE2F29D0660F771F881FBB1F2617370729
S11306A04807AB07B0E809F0BB0B802DBF01FF275B
S11306B093585F4F3AF09E3F510578F00C94F8033D
S11306C00C946A045F3FE4F3983ED4F386957795DF
S11306D06795B795F7959F5FC9F7880F911D969514
S11306E0879597F90895E1E0660F771F881FBB1F70
S11306F0621773078407BA0720F0621B730B840B1D
S1130700BA0BEE1F88F7E09508950E948C03689455
S1130710B1110C946A0408950E944F0488F09F5705
S113072098F0B92F9927B751B0F0E1F0660F771F11
S1130730881F991F1AF0BA95C9F714C0B13091F007
S11307400E946904B1E008950C946904672F782F1E
S11307508827B85F39F0B93FCCF3869577956795CC
S1130760B395D9F73EF490958095709561957F4F38
S11307708F4F9F4F0895E89409C097FB3EF49095DE
S11307808095709561957F4F8F4F9F4F9923A9F066
S1130790F92F96E9BB279395F695879577956795F5
S11307A0B795F111F8CFFAF4BB0F11F460FF1BC039
S11307B06F5F7F4F8F4F9F4F16C0882311F096E9CC
S11307C011C0772321F09EE8872F762F05C066237A
S11307D071F096E8862F70E060E02AF09A95660F33
S11307E0771F881FDAF7880F9695879597F90895EC
S11307F097F99F6780E870E060E008959FEF80ECD0
S11308000895DF93CF931F930F93FF92EF92DF929C
S11308107B018C01689406C0DA2EEF010E948B04E0
S1130820FE01E894A5912591359145915591A6F342
S1130830EF010E940105FE019701A801DA9469F70E
S1130840DF90EF90FF900F911F91CF91DF9108956A
S113085000240A941616170618060906089500249B
S11308600A9412161306140605060895092E039415
S1130870000C11F4882352F0BB0F40F4BF2B11F489
S113088060FF04C06F5F7F4F8F4F9F4F089557FDE8
S11308909058440F551F59F05F3F71F04795880FEA
S11308A097FB991F61F09F3F79F087950895121681
S11308B013061406551FF2CF4695F1DF08C016162D
S11308C017061806991FF1CF8695710561050894DE
S11308D00895E894BB2766277727CB0197F90895F5
S11308E09B01AC0160E070E080E89FE30C9413038B
S11308F00E948B040C9436040E94280438F00E9451
S11309002F0420F0952311F00C94F8030C94FE03AB
S113091011240C946A040E94470470F3959FC1F358
S1130920950F50E0551F629FF001729FBB27F00D99
S1130930B11D639FAA27F00DB11DAA1F649F6627EE
S1130940B00DA11D661F829F2227B00DA11D621F3D
S1130950739FB00DA11D621F839FA00D611D221FF7
S1130960749F3327A00D611D231F849F600D211DDB
S1130970822F762F6A2F11249F5750409AF0F1F05E
S113098088234AF0EE0FFF1FBB1F661F771F881FC7
S113099091505040A9F79E3F510580F00C94F80304
S11309A00C946A045F3FE4F3983ED4F386957795FC
S11309B06795B795F795E7959F5FC1F7FE2B880F6D
S11309C0911D9695879597F908959B01AC010C9418
S11309D078045058BB27AA270E9401050C943604BA
S11309E00E94280438F00E942F0420F039F49F3F1D
S11309F019F426F40C94FE030EF4E095E7FB0C9432
S1130A00F803E92F0E94470458F3BA1762077307E3
S1130A108407950720F079F4A6F50C9469040EF484
S1130A20E0950B2EBA2FA02D0B01B90190010C01FA
S1130A30CA01A0011124FF27591B99F0593F50F412
S1130A40503E68F11A16F040A22F232F342F44276A
S1130A50585FF3CF469537952795A795F040539562
S1130A60C9F77EF41F16BA0B620B730B840BBAF032
S1130A709150A1F0FF0FBB1F661F771F881FC2F79D
S1130A800EC0BA0F621F731F841F48F487957795B1
S1130A906795B795F7959E3F08F0B0CF9395880F6B
S1130AA008F09927EE0F97958795089597FB072EE1
S1130AB016F4009407D077FD09D00E946A0507FC5C
S1130AC005D03EF4909581959F4F0895709561955A
S1130AD07F4F0895AA1BBB1B51E107C0AA1FBB1F70
S1130AE0A617B70710F0A61BB70B881F991F5A95B6
S1130AF0A9F780959095BC01CD0108958F929F929E
S1130B00AF92BF92CF92DF92EF92FF92CF93DF9397
S1130B10EC01688179818A819B8161157105810568
S1130B20910521F464E279ED8BE597E02DE133EF53
S1130B3041E050E00E94100A49015A019B01AC01B6
S1130B40A7EAB1E40E942F0A6B017C01ACEEB4EF7A
S1130B50A50194010E943D0ADC01CB018C0D9D1D71
S1130B60AE1DBF1DB7FF03C00197A109B04888831C
S1130B709983AA83BB839F77DF91CF91FF90EF90F6
S1130B80DF90CF90BF90AF909F908F9008950E9478
S1130B907E05089580E091E00E947E050895A0E01E
S1130BA0B0E08093000190930101A0930201B093FF
S1130BB0030108950F931F93CF93DF93009731F4AC
S1130BC06115710519F480E090E03AC08B01EC01E5
S1130BD06EE070E081E090E00E941C08FC01892B2B
S1130BE091F380E883830115110571F0138702875F
S1130BF081E8838380919A0290919B02892B21F44E
S1130C00F0939B02E0939A022097C9F0D187C087A2
S1130C1083818260838380919C0290919D02892BC1
S1130C2071F4F0939D02E0939C0280919E02909156
S1130C309F02892B21F4F0939F02E0939E02CF013F
S1130C40DF91CF911F910F910895A0E0B0E0EBE206
S1130C50F6E00C94520AAE014B5F5F4FFA016191CA
S1130C607191AF0180919C0290919D020E943B067C
S1130C70E2E00C946E0AABE0B0E0E1E4F6E00C9440
S1130C80420A6C017B018A01FC011782168283816E
S1130C9081FFCCC1CE0101963C01F6019381F7019D
S1130CA093FD859193FF81917F01882309F4BAC153
S1130CB0853239F493FD859193FF81917F018532CB
S1130CC029F4B60190E00E947609E7CF912C212CFB
S1130CD0312CFFE1F315D8F08B3279F038F48032FF
S1130CE079F08332A1F4232D20611DC08D3261F08F
S1130CF0803369F4232D216016C0832D8260382E41
S1130D00E32DE4603E2E2AC0F32DF8601DC037FCAD
S1130D102DC020ED280F2A3040F08E32B9F436FC75
S1130D2081C1232D2064322E19C036FE06C08AE00C
S1130D30989E200D1124922E11C0EAE02E9E200DC3
S1130D401124222EF32DF0623F2E08C08C3621F49C
S1130D50832D8068382E02C0883641F4F70193FD54
S1130D60859193FF81917F018111B3CF982F9F7D4E
S1130D709554933028F40C5F1F4F9FE399830DC063
S1130D80833631F0833771F0833509F059C021C0BF
S1130D90F801808189830E5F1F4F88248394912CEE
S1130DA0530113C02801F2E04F0E511CF801A0803A
S1130DB0B18036FE03C0692D70E002C06FEF7FEF93
S1130DC0C5010E946B094C018201F32DFF773F2E70
S1130DD016C0280122E0420E511CF801A080B18007
S1130DE036FE03C0692D70E002C06FEF7FEFC501CE
S1130DF00E9459094C01F32DF0683F2E820133FC07
S1130E001BC0822D90E088169906B0F4B60180E2EA
S1130E1090E00E9476092A94F4CFF50137FC85917D
S1130E2037FE81915F01B60190E00E94760921109E
S1130E302A9421E0821A91088114910471F7E8C080
S1130E40843611F0893641F5F80137FE07C0608118
S1130E507181828193810C5F1F4F08C06081718111
S1130E60072E000C880B990B0E5F1F4FF32DFF7696
S1130E703F2E97FF09C090958095709561957F4F9F
S1130E808F4F9F4FF0683F2E2AE030E0A3010E946D
S1130E90B209882E861845C0853731F4232D2F7E5C
S1130EA0B22E2AE030E025C0932D997FB92E8F36DB
S1130EB0C1F018F4883579F0B5C0803719F0883757
S1130EC021F0B0C0E92FE061BE2EB4FE0DC0FB2DB1
S1130ED0F460BF2E09C034FE0AC0292F2660B22E4A
S1130EE006C028E030E005C020E130E002C020E187
S1130EF032E0F801B7FE07C060817181828193817D
S1130F000C5F1F4F06C06081718180E090E00E5F2E
S1130F101F4FA3010E94B209882E8618FB2DFF776C
S1130F203F2E36FE0DC0232D2E7FA22E891458F499
S1130F3034FE0BC032FC09C0832D8E7EA82E05C062
S1130F40B82CA32C03C0B82C01C0B92CA4FE0FC02C
S1130F50FE01E80DF11D8081803321F49A2D997EE4
S1130F60A92E09C0A2FE06C0B394B39404C08A2D6E
S1130F70867809F0B394A3FC11C0A0FE06C0B21495
S1130F8088F4280C922C9B180EC0B21460F4B6019D
S1130F9080E290E00E947609B394F7CFB21418F47B
S1130FA02B1802C0982C212CA4FE10C0B60180E39B
S1130FB090E00E947609A2FE17C0A1FC03C088E756
S1130FC090E002C088E590E0B6010CC08A2D8678D6
S1130FD059F0A1FE02C08BE201C080E2A7FC8DE2C1
S1130FE0B60190E00E947609891438F4B60180E3D2
S1130FF090E00E9476099A94F7CF8A94F301E80D61
S1131000F11D8081B60190E00E9476098110F5CF30
S1131010222009F442CEB60180E290E00E947609D3
S11310202A94F6CFF6018681978102C08FEF9FEF55
S11310302B96E2E10C945E0A0F931F93CF93DF93F8
S1131040869F8001879F100D969F100D1124C80163
S11310500E943808EC01009729F0A80160E070E0D4
S11310600E946409CE01DF91CF911F910F910895E1
S11310700F931F93CF93DF938230910510F482E096
S113108090E0E091A202F091A30220E030E0A0E021
S1131090B0E0309719F140815181028113814817E2
S11310A05907C8F08417950769F4109731F0129620
S11310B00C93129713961C9327C00093A2021093CB
S11310C0A30222C02115310519F04217530718F461
S11310D09A01BD01EF01DF01F801DBCF21153105D4
S11310E0F9F0281B390B2430310580F48A819B8167
S11310F06115710521F0FB019383828304C09093F1
S1131100A3028093A202FE01329644C0FE01E20FC4
S1131110F31F8193919322503109398328833AC074
S11311202091A0023091A102232B41F420910601C9
S1131130309107013093A1022093A0022091040171
S1131140309105012115310541F42DB73EB7409189
S1131150080150910901241B350BE091A002F09184
S1131160A102E217F307A0F42E1B3F0B281739073F
S113117078F0AC014E5F5F4F2417350748F04E0FEF
S11311805F1F5093A1024093A0028193919302C0E8
S1131190E0E0F0E0CF01DF91CF911F910F9108952E
S11311A0CF93DF93009709F481C0FC013297138237
S11311B01282A091A202B091A302109781F420811F
S11311C03181820F931F2091A0023091A102281730
S11311D0390751F5F093A102E093A00267C0ED0135
S11311E020E030E0CE17DF0740F44A815B819E01A6
S11311F041155105F1F0EA01F5CFD383C283408153
S11312005181840F951FC817D90759F48881998192
S1131210840F951F0296918380838A819B81938397
S113122082832115310529F4F093A302E093A202ED
S11312303DC0E901FB83EA8349915991C40FD51F4D
S1131240EC17FD0761F480819181840F951F02964C
S1131250E90199838883828193819B838A83E0E077
S1131260F0E012968D919C911397009719F0FD016F
S1131270DC01F7CF8D919C9111979D012E5F3F4F1B
S1131280820F931F2091A0023091A10228173907E1
S113129069F4309729F41092A3021092A20202C0BA
S11312A013821282B093A102A093A002DF91CF9186
S11312B00895FC010590615070400110D8F78095A5
S11312C090958E0F9F1F0895DC0101C06D934150CE
S11312D05040E0F70895FC01615070400190011006
S11312E0D8F7809590958E0F9F1F08950F931F93A5
S11312F0CF93DF93FB01238121FD03C08FEF9FEF89
S11313002CC022FF16C046815781248135814217A3
S1131310530744F4A081B1819D012F5F3F4F318376
S113132020838C93268137812F5F3F4F3783268319
S113133014C08B01EC01FB010084F185E02D0995BB
S1131340892BE1F6D80116968D919C9117970196F9
S113135017969C938E931697CE01DF91CF911F9190
S11313600F910895FA01AA27283051F1203181F113
S1131370E8946F936E7F6E5F7F4F8F4F9F4FAF4F99
S1131380B1E03ED0B4E03CD0670F781F891F9A1FAC
S1131390A11D680F791F8A1F911DA11D6A0F711D60
S11313A0811D911DA11D20D009F468943F912AE06C
S11313B0269F11243019305D3193DEF6CF01089554
S11313C0462F4770405D4193B3E00FD0C9F7F6CF85
S11313D0462F4F70405D4A3318F0495D31FD40524D
S11313E0419302D0A9F7EACFB4E0A69597958795E3
S11313F077956795BA95C9F70097610571050895C2
S11314009B01AC010A2E069457954795379527956D
S1131410BA95C9F7620F731F841F951FA01D089505
S1131420052E97FB1EF400940E94270A57FD07D04F
S11314300E94790A07FC03D04EF40C94270A5095B5
S11314404095309521953F4F4F4F5F4F08959095AC
S11314508095709561957F4F8F4F9F4F08950E949F
S11314609B0AA59F900DB49F900DA49F800D911D84
S113147011240895B7FF0C942F0A0E942F0A821B8F
S1131480930B08952F923F924F925F926F927F92A7
S11314908F929F92AF92BF92CF92DF92EF92FF9280
S11314A00F931F93CF93DF93CDB7DEB7CA1BDB0B2C
S11314B00FB6F894DEBF0FBECDBF09942A883988D1
S11314C048885F846E847D848C849B84AA84B984D8
S11314D0C884DF80EE80FD800C811B81AA81B981E4
S11314E0CE0FD11D0FB6F894DEBF0FBECDBFED01F8
S11314F00895A1E21A2EAA1BBB1BFD010DC0AA1F51
S1131500BB1FEE1FFF1FA217B307E407F50720F068
S1131510A21BB30BE40BF50B661F771F881F991FE3
S11315201A9469F760957095809590959B01AC012C
S1131530BD01CF010895A29FB001B39FC001A39F35
S1131540700D811D1124911DB29F700D811D1124F8
S10B1550911D0895F894FFCFEA
S1131558010000000000A402200053746172746941
S11315686E67205352414D20746573742E2E2E0AD3
S11315780D0057726974652070686173652065721F
S1131588726F723A206578745F72616D5B2534649A
S11315985D203D2025303258202873686F756C64AF
S11315A82062652025303258290A0D00526574726C
S11315B8696576616C207068617365206572726F05
S11315C8723A206578745F72616D5B2534645D20BE
S11315D83D2025303258202873686F756C6420626A
S11315E8652025303258290A0D005352414D207484
S11315F865737420636F6D706C65746564207769B6
S11316087468200A0D253464206572726F72732021
S1131618696E2077726974652070686173652061EA
S11316286E64200A0D253464206572726F7273200B
S1131638696E2072657472696576616C2070686180
S113164873650A0D0074696D657220696E7465723C
S1131658727570743A2025692C200048656C6C6F8B
S11316682C20776F726C64210A0D0054696D6572C1
S113167820696E697469616C697A6564001B63002A
S1131688783A20256909793A2025690A0D536C6945
S1131698646572206C6566743A20256909536C691F
S11316A86465722072696768743A2025690A0D4274
S11316B87574746F6E206C6566743A202569200908
S11316C8427574746F6E2072696768743A2025696C
S11116D80A0D416E676C653A2025690A0D0003
S9030000FC
