S00F00006279676765726E2E7372656327
S11300000C9491020C94BA020C94AE020C94AE02BD
S11300100C94AE020C94AE020C94AE020C94AE029C
S11300200C94AE020C94AE020C94AE020C94AE028C
S11300300C94AE020C94AE020C94480C0C94AE02D8
S11300400C94AE020C94AE020C94AE020C94AE026C
S11300500C94AE020C94AE020C94AE020C94AE025C
S11300600C94AE020C94AE020C94AE020C94AE024C
S1130070084AD73B3BCE016E84BCBFFDC12F3D6C0B
S113008074319ABD56833DDA3D00C77F11BED9E471
S1130090BB4C3E916BAAAABE000000803F000A0A36
S11300A00A010A1E011E3C0A010A0A010A1E001E58
S11300B01E0A140A010A010A010A011E011E1E0A6F
S11300C0140114011428500A010A0A0A1E011E3CD4
S11300D00A010A0A010A011E1E1E0A140A010A0163
S11300E00A0A011E1E1E0A141414285028D20100E4
S11300F000D20100009F010000000000009F0100E9
S113010000BA02000000000000BA0200006E020003
S113011000D201000000000000D20100009F010095
S113012000000000009F0100006E020000000000BB
S1130130006E0200002A0200000B020000D201003F
S1130140002A020000000000002A02000000000053
S1130150002A020000000000002A02000000000043
S1130160002A020000000000006E0200000B0200E2
S113017000D20100009F010000000000009F010068
S113018000000000009F0100006E0200002A02002F
S113019000D201000000000000D20100009F010015
S11301A0009F010000BA02000000000000BA020033
S11301B0006E020000D201000000000000D2010025
S11301C0009F010000000000009F010000000000EB
S11301D0009F0100000B0200002A0200000B020035
S11301E000D20100002A020000000000002A0200E0
S11301F000000000002A0200002A020000000000A3
S1130200002A0200006E0200000B020000D201006E
S1130210009F010000000000009F0100006E02002A
S1130220002A02000000000000000000000000009E
S11302300000065F5F0600000000070700070700D4
S113024000147F7F147F7F1400242E6B6B3A1200FE
S113025000466630180C666200307A4F5D377A4883
S1130260000407030000000000001C3E634100007E
S1130270000041633E1C000000082A3E1C1C3E2A6C
S11302800808083E3E0808000000A0E060000000E6
S1130290000808080808080000000060600000006A
S11302A0006030180C060301003E7F594D7F3E006C
S11302B00042427F7F40400000627359496F6600EC
S11302C000226349497F360000181C16137F7F10F3
S11302D000276745457D3900003C7E4B4979300055
S11302E000036371190F070000367F49497F360008
S11302F000064F49693F1E000000006C6C000000BE
S11303000000A0EC6C00000000081C3663410000F3
S1130310001414141414140000004163361C080063
S113032000020351590F0600003E7F415D5D1F1E10
S1130330007C7E13137E7C0000417F7F49497F3619
S1130340001C3E634141632200417F7F41637F1C67
S113035000417F7F495D416300417F7F491D010367
S1130360001C3E6341517372007F7F08087F7F0049
S11303700000417F7F41000000307040417F3F0119
S113038000417F7F081C776300417F7F414060709C
S1130390007F7F060C067F7F007F7F060C187F7F1F
S11303A0001C3E6341633E1C00417F7F49090F06E8
S11303B0001E3F21717F5E0000417F7F19396F4627
S11303C00026674D597B32000003417F7F410300C3
S11303D0007F7F40407F7F00001F3F60603F1F0021
S11303E0007F7F3018307F7F0063771C081C7763A1
S11303F000074F78784F0700006773594D476371C2
S113040000007F7F41410000000103060C183060AA
S1130410000041417F7F000000080C0603060C0821
S113042000808080808080808000000307040000BA
S113043000207454543C784000413F7F44447C384D
S113044000387C44446C280000307848493F7F40A1
S113045000387C54545C180000487E7F4903020035
S11304600098BCA4A4F87C0400417F7F08047C7835
S11304700000447D7D4000000040C484FD7D0000F8
S113048000417F7F10386C440000417F7F400000B2
S1130490007C7C0C180C7C78007C7C04047C780048
S11304A000387C44447C38000084FCF8A4243C18C4
S11304B000183C24A4F8FC8400447C78441C1800F4
S11304C000485C54547424000000043E7F4424001B
S11304D0003C7C40403C7C40001C3C60603C1C0078
S11304E0003C7C6030607C3C00446C3810386C44C8
S11304F0009CBCA0A0FC7C00004C64745C4C6400B8
S11305000008083E774141000000000077770000B2
S1130510004141773E080800000203010302030181
S1130520000011241FBECFEFD4E0DEBFCDBF13E027
S1130530A0E0B1E0EEE9F8E202C005900D92A0322D
S1130540B107D9F724E0A0E2B3E001C01D92AF35B2
S1130550B207E1F70E94C9020C944D140C940000F8
S1130560309808958460809300142899FECF809178
S1130570001408951F920F920FB60F9211248F93B7
S113058081E0809323038F910F900FBE0F901F90F3
S11305901895CF93DF93CDB7DEB72B970FB6F894AA
S11305A0DEBF0FBECDBF0E94ED0B87E595E09A87B5
S11305B0898783E08B878DE0898386E18A8381E262
S11305C08B8386EA91E09F938F930E941B1089EBA3
S11305D091E09F938F930E941B102FEF8FE797E07A
S11305E0215080409040E1F700C000000F900F9030
S11305F00F900F900EE213E080912D038823C1F039
S1130600F8941DBC1CBC0E944E098CE393E00E942C
S11306100A0C0E94800C80912203811106C084E29E
S113062093E00E94050A0E94180B10922D037894FF
S1130630D801ED91FC918081853091F028F48330CC
S113064041F0843049F017C0863071F0873081F072
S113065012C00E94FA070FC081E00E945A070BC023
S113066082E00E945A0707C081E00E94870703C006
S113067082E00E9487070E943809BECF40E06CE206
S113068083E00E94940408950F931F93CF938C01E9
S11306908091200390912103019663E070E00E9411
S11306A0610F282F392F8093200390932103213049
S11306B03105E9F02230310589F1232B09F044C0DA
S11306C0F801408551854295440F407E62E380EEF7
S11306D00E949404F80160857185769567957695F6
S11306E067957695679581E30E947C042DC0F80197
S11306F0408551854295440F407E62E480EE0E941D
S11307009404F8016085718576956795769567956B
S11307107695679581E40E947C0416C0F8014085B3
S113072051854295440F407E62E580EE0E94940418
S1130730F8016085718576956795769567957695C8
S1130740679581E50E947C048091200390912103A8
S11307508130910561F08230910581F0892BA1F4FB
S1130760F801428565E38FE00E9494040DC0F8010E
S1130770428565E48FE00E94940406C0F801428536
S113078065E58FE00E949404F8018285882361F175
S1130790C0E080912003909121038130910571F094
S11307A082309105A1F0892BD1F4F801EC0FF11DF1
S11307B0608186E38C0F0E947C0411C0F801EC0F69
S11307C0F11D608186E48C0F0E947C0408C0F8014E
S11307D0EC0FF11D608186E58C0F0E947C04CF5FD5
S11307E0F80182858C13D5CF809120030E94BE042A
S11307F0CF911F910F910895EF92FF920F931F9342
S1130800CF937C0182E60E946604C82F81E60E9491
S11308106604C295C695C77028E0829FC001112462
S11308208C0F911DF7019187808785E60E946604ED
S11308308F70F70182878285882381F0C0E00C2FB6
S113084010E086E68C0F0E946604F701E00FF11FAA
S11308508083CF5FF70182858C13F1CFCF911F91F5
S11308600F91FF90EF900895CF93DF93CDB7DEB74C
S11308702B970FB6F894DEBF0FBECDBF81E090E09A
S11308809A87898786E08B87ECE3F3E0808189830C
S113089081818A83E2E3F3E080818B8381818C838D
S11308A0E4E2F3E080818D8381818E83CE01019621
S11308B00E9444032B960FB6F894DEBF0FBECDBF43
S11308C0DF91CF9108950E941F050895CF93C82FFB
S11308D060E084E00E942B0C83E00E94220C8C2FA9
S11308E00E94220C0E94260CC82F61E084E00E9422
S11308F02B0C8C2FCF910895CF93DF93D82FC62F35
S113090060E084E00E942B0C82E00E94220C8D2F78
S11309100E94220C8C2F0E94220C61E084E00E9431
S11309202B0CDF91CF9108951F93CF93DF93D82F92
S1130930162FC42F60E084E00E942B0C85E00E94F7
S1130940220C812F0E94220C8D2F0E94220C8C2FAE
S11309500E94220C61E084E00E942B0CDF91CF9175
S11309601F91089560E084E00E942B0C80EC0E94AB
S1130970220C61E084E00E942B0C0895CF93C82FD1
S113098060E084E00E942B0CC13041F018F0C230CA
S113099049F00BC081E80E94220C07C082E80E9443
S11309A0220C03C084E80E94220C61E084E00E94CF
S11309B02B0CCF910895CF93C82F0E94B2048EE0E0
S11309C00E946604807E803869F01F928F9383EEC4
S11309D091E09F938F930E941B100F900F900F90A4
S11309E00F902BC04C2F4C606FE08EEE0E9494044D
S11309F041E06BE28FEF0E94940440E660E680E6FB
S1130A000E9494042FEF8FEF92E021508040904099
S1130A10E1F700C000C08EE00E946604807EC81723
S1130A2061F01F928F938EEF91E09F938F930E94BA
S1130A301B100F900F900F900F90CF9108950E946C
S1130A40190C80E00E94DB048BB780648BBF85B7F0
S1130A50826085BF85B78E7F85BF81B3847081BB7B
S1130A602FEF8FEF92E0215080409040E1F700C0DB
S1130A7000C08EE00E946604089510922203E8E20A
S1130A80F3E0A4E3B3E08DE293E011921D92E81742
S1130A90F907D9F708950F931F93CF93DF931F920C
S1130AA0CDB7DEB74AE0BE016F5F7F4F83E090E0D1
S1130AB00E94AB0F0E94690B0E948A0B0EE213E0A6
S1130AC0F8018081918102960E94C50B83E00E9407
S1130AD0C10BCE0101960E94C50B86E091E00E94F5
S1130AE0BC08FFEF2FE787E0F15020408040E1F79A
S1130AF000C0000080E090E00E94BC089FEFEFE798
S1130B00F7E09150E040F040E1F700C000004AE017
S1130B10BE016F5F7F4F82E090E00E94AB0F0E94A6
S1130B20690B0E948A0BF8018081918102960E94D0
S1130B30C50B83E00E94C10BCE0101960E94C50B38
S1130B4086E091E00E94BC08FFEF2FE787E0F150B8
S1130B5020408040E1F700C0000080E090E00E9467
S1130B60BC089FEFEFE7F7E09150E040F040E1F779
S1130B7000C000004AE0BE016F5F7F4F81E090E05B
S1130B800E94AB0F0E94690B0E948A0BF8018081BE
S1130B90918102960E94C50B83E00E94C10BCE0195
S1130BA001960E94C50B86E091E00E94BC08FFEF0D
S1130BB02FE787E0F15020408040E1F700C00000BB
S1130BC080E090E00E94BC089FEFEFE7F7E09150CF
S1130BD0E040F040E1F700C000000E94690B0E9471
S1130BE08A0BF8018081918102960E94C50B83E0F3
S1130BF00E94C10B8EE192E00E94C50B87E194E054
S1130C000E94BC08FFEF2FE787E0F15020408040AE
S1130C10E1F700C0000080E090E00E94BC089FEF74
S1130C20EFE7F7E09150E040F040E1F700C000004A
S1130C300F90DF91CF911F910F910895CF93DF9380
S1130C40CDB7DEB72B970FB6F894DEBF0FBECDBF7E
S1130C5082E090E09A8789871B86CE0101960E94E4
S1130C6044032B960FB6F894DEBF0FBECDBFDF91C1
S1130C70CF910895F8940E944B0581E0809322035C
S1130C80E9E3F3E08AE08083128283E681830E94B1
S1130C901E0678940895809123038823D9F0F8944C
S1130CA081E292E09F938F930E941B101092230382
S1130CB08EE393E00E94FC030E943E03AEE3B3E0A4
S1130CC08C91E9E3F3E0808311968C91828378948C
S1130CD00F900F9008950F931F93CF93DF9300D03D
S1130CE000D0CDB7DEB7182F0E94690B0E948A0B83
S1130CF080912E0390912F0302960E94C50B83E0EE
S1130D000E94C10B113019F0123049F139C082E34D
S1130D1092E00E94C50B09E313E0F80180814AE0E8
S1130D20BE016F5F7F4F90E00E94AB0FCE01019632
S1130D300E94C50B85E00E94C10B8AE392E00E94E9
S1130D40C50BF80182814AE0BE016D5F7F4F90E0E0
S1130D500E94AB0FCE0103960E94C50B11C081E423
S1130D6092E00E94C50B80913B034AE0BE016D5F97
S1130D707F4F90E00E94AB0FCE0103960E94C50BFB
S1130D800F900F900F900F90DF91CF911F910F91C3
S1130D900895CF93DF93CDB7DEB72B970FB6F894B2
S1130DA0DEBF0FBECDBF83E090E09A8789871B86A4
S1130DB0CE0101960E9444032B960FB6F894DEBF31
S1130DC00FBECDBFDF91CF910895CF93C82FF89474
S1130DD00E94C9060E94690B0E948A0B83E00E944C
S1130DE0C10B8CE492E00E94C50B84E00E94C10B0D
S1130DF086E592E00E94C50B0E947A0810922203B5
S1130E000E946B0AC13051F0C23009F050C03091D9
S1130E103B0380913403831748F533C03091390381
S1130E2080912803831758F0E9E2F3E081E090E031
S1130E3021912317B0F4843091051CF00DC080E09B
S1130E4090E0ECE2F3E044E050E04150510922919B
S1130E50218384179507CCF3FC01E85DFC4F3083B4
S1130E6026C001968530910519F721C0E5E3F3E02A
S1130E7081E090E021912317B0F4843091051CF0B7
S1130E800DC080E090E0E8E3F3E044E050E041503E
S1130E9051092291218384179507CCF3FC01EC5C62
S1130EA0FC4F308304C001968530910519F778947E
S1130EB0CF910895CF93C82F80912203811102C04E
S1130EC00E943A0680913303882321F01092220372
S1130ED00E946B0A0E9434040E944B068C2F0E94CD
S1130EE06B06C13019F0C23049F00FC080913B034A
S1130EF08A3059F481E00E94E50607C080913903E5
S1130F008A3018F482E00E94E506CF910895AF92EA
S1130F10BF92CF92DF92EF92FF920F931F93CF93E2
S1130F20DF9300D0CDB7DEB7082F0E94690B0E9473
S1130F308A0B80912E0390912F0302960E94C50B79
S1130F400F2EF8E2AF2EF3E0BF2EF02D0F2EF4E3B8
S1130F50CF2EF3E0DF2EF02D13E0E12CF12C812FC6
S1130F600E94C10B80E692E00E94C50B8FEFE81A45
S1130F70F80A4AE0BE016F5F7F4FC7010E94AB0FC2
S1130F80CE0101960E94C50B8EE392E00E94C50B30
S1130F90013019F0023059F013C0F50180814AE0A4
S1130FA0BE016F5F7F4F90E00E94AB0F09C0F60156
S1130FB080814AE0BE016F5F7F4F90E00E94AB0FDB
S1130FC0CE0101960E94C50B1F5FFFEFAF1ABF0A47
S1130FD08FEFC81AD80A183011F60F900F90DF91CE
S1130FE0CF911F910F91FF90EF90DF90CF90BF9022
S1130FF0AF9008958F929F92AF92BF92CF92DF925B
S1131000EF92FF920F931F93CF93DF93F8940E9474
S11310108A0B0E94690B0DEE10E00F2EFEE9EF2EF5
S1131020F0E0FF2EF02DC6E0D1E00F2EF9E2CF2E36
S1131030F2E0DF2EF02DB12C0F2EF4E1AF2EF02DC7
S1131040B11002C00E94690B4E01E881F9818081D0
S1131050882341F08B2D0E94C10BB3948881998120
S11310600E94C50BD401ED91FC91229601900020C1
S1131070E9F7329780818E3209F4B12CF801659139
S1131080749180E090E00E94D108F7018491A89EB9
S1131090C0011124092E000CAA0BBB0B0097A1055B
S11310A0B10551F0ECECF4E03197F1F700C0000029
S11310B00197A109B109B1F70C5F1F4FFFEFEF1AB8
S11310C0FF0A0C151D0509F0BBCF60E070E0CB01F1
S11310D00E94D1080E946B0A7894DF91CF911F91EE
S11310E00F91FF90EF90DF90CF90BF90AF909F90C3
S11310F08F9008956BE072E080E090E00E94D10848
S11311002FEF8FE797E0215080409040E1F700C037
S1131110000068E871E080E090E00E94D1082FEFC1
S11311208FE797E0215080409040E1F700C0000035
S113113067E371E080E090E00E94D1082FEF8FE731
S113114097E0215080409040E1F700C0000066E045
S113115071E080E090E00E94D1082FEF8FE797E0E4
S1131160215080409040E1F700C0000060E070E052
S1131170CB010E94D1080895BC0180E090E00E9458
S1131180D1080895B89A8FEF81BF80E883BF83B7F1
S1131190886083BF83B7806183BF83B7887F83BF41
S11311A008959B01AC01672B682B692B21F483B74D
S11311B0887F83BF089560E070E885E290E00E9434
S11311C0750FDA01C901213061E036074105510587
S11311D0A8F1689412F8B695A795979587951694F3
S11311E0D1F7813061E09607A105B10548F1DA0134
S11311F0C901689415F8B695A7959795879516949F
S1131200D1F7813061E09607A105B105D8F0BB277D
S1131210A52F942F832F813061E09607A105B10596
S113122098F0DA01C901072E7AE0B695A79597954B
S113123087957A95D1F7702D35E007C031E005C068
S113124032E003C033E001C034E023B7287F23BF7A
S113125023B7232B23BF815081BF089585B78F7E89
S113126085BF84B78F7D84BF86B78F7786BF089587
S113127088B1886888B985B7806285BF889585B745
S11312808F7D85BF089580E00E94B20280934A0357
S113129081E00E94B202809349030895CF92DF92C5
S11312A0EF92FF92CF93DF9380E00E94B202C82FA7
S11312B081E00E94B202E82F60914A03C61780F4CD
S11312C070E02C2F30E0261B370B44E6429FC00110
S11312D0439F900D11240E94610F6093240314C056
S11312E0462F50E02C2F30E0241B350B64E6629F20
S11312F0C001639F900D11246FEF70E0641B750BA8
S11313000E94610F6093240320914903E21788F43B
S1131310622F70E04E2F50E0461B570B24E6249FAB
S1131320C001259F900D11240E94610F6093250335
S113133013C030E04E2F50E0421B530B64E6649F11
S1131340C001659F900D11246FEF70E0621B730B59
S11313500E94610F60932503C4E2D3E06881062EE6
S1131360000C770B880B990B0E94C80D6B017C0154
S11313706981062E000C770B880B990B0E94C80D0F
S1131380A70196010E94BF0C20E030E044EB53E437
S11313900E94830E20E030E040E05FE30E94830E71
S11313A023EC35EF48E450E40E941E0D0E94900D9A
S11313B07B836A83DF91CF91FF90EF90DF90CF9092
S11313C00895FC01808194E0980F993020F4918174
S11313D09C5F993090F085302CF081818F5C83364E
S11313E038F40DC08C3F24F481818F5C833648F03F
S11313F081818C3F44F082E0089584E0089581E087
S1131400089580E0089583E008950E94E109909191
S11314103103943009F05CC08130E1F160F1823035
S1131420C9F0833009F054C0EEE2F3E09281492F11
S113143050E00190F081E02D20A130E021503109ED
S11314404217530724F49F5F9093300341C01092D6
S113145030033EC090913003992321F09150909332
S1131460300336C0EEE2F3E0A081B18190969C9106
S1131470915092832DC0E0912E03F0912F03228985
S113148033892115310521F1EEE2F3E03183208324
S113149012821EC0AEE2B3E02D913C9111971296D8
S11314A09C91E92FF0E03A96EE0FFF1FE20FF31F35
S11314B00190F081E02D90A1911103C091819923B5
S11314C039F0AEE2B3E01196FC93EE9312961C92BF
S11314D08093310308950F931F93CF93DF938AE092
S11314E0E8EDF2E0ADE4B3E001900D928A95E1F706
S11314F08AE0E2EEF2E0AEE6B3E001900D928A9566
S1131500E1F78CE0ECEEF2E0AFE8B3E001900D928D
S11315108A95E1F786E0E8EFF2E0A0EBB3E0019012
S11315200D928A95E1F787E0EEEFF2E0A1EDB3E0EA
S113153001900D928A95E1F787E0E5E0F3E0A2EFF0
S1131540B3E001900D928A95E1F78AE0ECE0F3E0D4
S1131550A3E1B4E001900D928A95E1F78AE0E6E117
S1131560F3E0A4E3B4E001900D928A95E1F76BE413
S113157073E0FB0180E090E021E0808383309105FB
S113158014F0218301C011820196B196883091052F
S1131590A1F7EBE4F3E083E080A382E080938C0383
S11315A08093AD031092CE031092EF0310921004B7
S11315B01092310410925204138A128A03E514E043
S11315C041E051E218C0549FF0011124E55BFC4F47
S11315D0E993F993B38BA28B4F5F2F5F3F4F9096A4
S11315E08C91909790E0281739076CF36F5D7F4FCB
S11315F06017710759F0DB0190968C9190978823BE
S1131600A9F3EB01649620E030E0DDCF84E293E0BF
S11316100E94050AEEE2F3E08BE493E09183808379
S1131620128284E08383DF91CF911F910F910895FB
S1131630FF920F931F93CF93DF930E94690B0E9435
S11316408A0BCEE2D3E08881998102960E94C50B71
S1131650E881F98180A1882351F16894FF24F1F88D
S1131660C0E0D0E00EE213E08F2D0E94C10BD80140
S11316708D919C91FE013A96EE0FFF1FE80FF91F22
S11316808081918102960E94C50BF801828190E0CD
S11316908C179D0711F40E947F0B2196F394D801B7
S11316A0ED91FC9180A190E0C817D907ECF2DF918D
S11316B0CF911F910F91FF9008958055E0E0F0E1E4
S11316C08083862F8F70808362956F7060616083E2
S11316D008951F93CF93DF9310E0C0E0D2E160E060
S11316E0812F0E945D0B80E890E018820197E9F752
S11316F01F5F1830A1F7DF91CF911F910895E0E0AB
S1131700F2E188E180839CE390839EE79083808369
S11317108083089560E080E00E945D0B0895E0E01E
S1131720F0E18EEA808381EA80838AED808382E11E
S1131730808388EC808388EA80838FE3808385EDCF
S1131740808380E8808381E8808380E5808389EDDD
S1131750808381E2808380E2808382E080838BEDDA
S1131760808380E380838DEA8083108284EA80838F
S113177086EA80838FEA80830E94690B0E948A0B29
S1131780089560E00E945D0B0895CF93DF93DC0120
S11317908C9181111AC01EC0EC91F0E0B097EE0F4D
S11317A0FF1FEE0FFF1FEE0FFF1FE20FF31FE75D9A
S11317B0FD4FE491E8832F5F3F4F2830310561F7F7
S11317C011968C91811103C005C0C0E0D2E120E0E4
S11317D030E0E2CFDF91CF910895F8940E94A50CF8
S11317E08FE190E00E94940C0E94B0020E94430991
S11317F00E94670C0E948F0B0E94570C0E942E09B6
S11318000E946B0A0E9463040E94C2080E943D0564
S113181078940895CF93DF9382E00E94B202CCE3E0
S1131820D3E0888383E00E94B2028983DF91CF9161
S1131830089587B3806A87BBBC9A8DB181658DB9E1
S1131840C49A08958FB9779BFECF08951FB8779BEC
S1131850FECF8FB10895662369F048B321E030E0EC
S1131860B90102C0660F771F8A95E2F7CB01842B7A
S113187088BB089548B321E030E0B90102C0660F87
S1131880771F8A95E2F7CB018095842388BB08955E
S11318901F920F920FB60F9211248F9381E08093C1
S11318A02D038F910F900FBE0F901F90189589B73D
S11318B0806289BF1DBC1CBC80E38FBD85E08EBDEA
S11318C080EE91E099BD88BD10922D03089536B342
S11318D026B347B3327081E090E0BC0102C0660FCA
S11318E0771F3A95E2F7247002C0880F991F2A9552
S11318F0E2F7862B972B80959095842387BB0895D8
S113190086B3E2E3F3E086958170808386B382FB3D
S1131910882780F9818308955D9BFECF8CB9089553
S11319205F9BFECF8CB1089590BD89B988E18AB9D7
S11319308EE880BD60E97CE08CE89CE00E94D00FDA
S11319409093540480935304089585B7806885BFA9
S113195080B7886080BF08950E94330E60F080E8ED
S113196091E009F49EEF0E943A0E28F040E851E01D
S113197071F45EEF0CC00C94090E0C94740EE92FF4
S1131980E0780E94520E40F3092E052AB1F326177F
S113199037074807590738F00E2E07F8E02569F095
S11319A0E025E0640AC0EF6307F8009407FADB015E
S11319B0B9019D01DC01CA01AD01EF930E94350D0F
S11319C00E94410E0E94EF0C5F91552339F02BEDDC
S11319D03FE049E450FD49EC0C94F50E0895DF9383
S11319E0DD27B92FBF7740E85FE3161617064807CF
S11319F05B0718F4D92F0E947B0E9F938F937F93DC
S1131A006F930E94F00EE0E7F0E00E940C0E0E943B
S1131A10410E2F913F914F915F910E94960EDD23CD
S1131A2051F09058A2EA2AED3FE049EC5FE3D07808
S1131A305D270E940C0FDF910C94410E0E94320D21
S1131A400C94410E0E943A0E58F00E94330E40F05E
S1131A5029F45F3F29F00C94030E51110C94750E78
S1131A600C94090E0E94520E68F39923B1F3552386
S1131A7091F3951B550BBB27AA276217730784079D
S1131A8038F09F5F5F4F220F331F441FAA1FA9F333
S1131A9035D00E2E3AF0E0E832D091505040E69521
S1131AA0001CCAF72BD0FE2F29D0660F771F881F82
S1131AB0BB1F261737074807AB07B0E809F0BB0B75
S1131AC0802DBF01FF2793585F4F3AF09E3F510589
S1131AD078F00C94030E0C94750E5F3FE4F3983E7B
S1131AE0D4F3869577956795B795F7959F5FC9F772
S1131AF0880F911D9695879597F90895E1E0660FF3
S1131B00771F881FBB1F621773078407BA0720F06B
S1131B10621B730B840BBA0BEE1F88F7E0950895D4
S1131B200E94970D6894B1110C94750E08950E944B
S1131B305A0E88F09F5798F0B92F9927B751B0F0F3
S1131B40E1F0660F771F881F991F1AF0BA95C9F73D
S1131B5014C0B13091F00E94740EB1E008950C9459
S1131B60740E672F782F8827B85F39F0B93FCCF30C
S1131B70869577956795B395D9F73EF490958095BA
S1131B80709561957F4F8F4F9F4F0895E89409C0DA
S1131B9097FB3EF490958095709561957F4F8F4F9C
S1131BA09F4F9923A9F0F92F96E9BB279395F695B2
S1131BB0879577956795B795F111F8CFFAF4BB0F30
S1131BC011F460FF1BC06F5F7F4F8F4F9F4F16C094
S1131BD0882311F096E911C0772321F09EE8872F1E
S1131BE0762F05C0662371F096E8862F70E060E0DA
S1131BF02AF09A95660F771F881FDAF7880F969553
S1131C00879597F9089597F99F6780E870E060E0F9
S1131C1008959FEF80EC0895DF93CF931F930F9364
S1131C20FF92EF92DF927B018C01689406C0DA2E5A
S1131C30EF010E94960EFE01E894A591259135913D
S1131C4045915591A6F3EF010E940C0FFE019701F7
S1131C50A801DA9469F7DF90EF90FF900F911F913C
S1131C60CF91DF91089500240A94161617061806DA
S1131C700906089500240A9412161306140605068C
S1131C800895092E0394000C11F4882352F0BB0F1D
S1131C9040F4BF2B11F460FF04C06F5F7F4F8F4F80
S1131CA09F4F089557FD9058440F551F59F05F3FBB
S1131CB071F04795880F97FB991F61F09F3F79F06A
S1131CC087950895121613061406551FF2CF4695EC
S1131CD0F1DF08C0161617061806991FF1CF86956E
S1131CE07105610508940895E894BB276627772752
S1131CF0CB0197F908959B01AC0160E070E080E8A6
S1131D009FE30C941E0D0E94960E0C94410E0E94AB
S1131D10330E38F00E943A0E20F0952311F00C9403
S1131D20030E0C94090E11240C94750E0E94520E8D
S1131D3070F3959FC1F3950F50E0551F629FF0011A
S1131D40729FBB27F00DB11D639FAA27F00DB11D33
S1131D50AA1F649F6627B00DA11D661F829F2227BC
S1131D60B00DA11D621F739FB00DA11D621F839F43
S1131D70A00D611D221F749F3327A00D611D231F19
S1131D80849F600D211D822F762F6A2F11249F5767
S1131D9050409AF0F1F088234AF0EE0FFF1FBB1F6A
S1131DA0661F771F881F91505040A9F79E3F510529
S1131DB080F00C94030E0C94750E5F3FE4F3983E90
S1131DC0D4F3869577956795B795F795E7959F5FD3
S1131DD0C1F7FE2B880F911D9695879597F9089565
S1131DE09B01AC010C94830E5058BB27AA270E9478
S1131DF00C0F0C94410E0E94330E38F00E943A0EE0
S1131E0020F039F49F3F19F426F40C94090E0EF4D3
S1131E10E095E7FB0C94030EE92F0E94520E58F351
S1131E20BA17620773078407950720F079F4A6F5BB
S1131E300C94740E0EF4E0950B2EBA2FA02D0B010A
S1131E40B90190010C01CA01A0011124FF27591BFB
S1131E5099F0593F50F4503E68F11A16F040A22F01
S1131E60232F342F4427585FF3CF46953795279572
S1131E70A795F0405395C9F77EF41F16BA0B620B71
S1131E80730B840BBAF09150A1F0FF0FBB1F661FB8
S1131E90771F881FC2F70EC0BA0F621F731F841FFB
S1131EA048F4879577956795B795F7959E3F08F021
S1131EB0B0CF9395880F08F09927EE0F97958795E3
S1131EC0089597FB072E16F4009407D077FD09D0E8
S1131ED00E94970F07FC05D03EF4909581959F4F83
S1131EE00895709561957F4F0895A1E21A2EAA1B5B
S1131EF0BB1BFD010DC0AA1FBB1FEE1FFF1FA217B6
S1131F00B307E407F50720F0A21BB30BE40BF50BB2
S1131F10661F771F881F991F1A9469F7609570953B
S1131F20809590959B01AC01BD01CF010895AA1B3A
S1131F30BB1B51E107C0AA1FBB1FA617B70710F0B0
S1131F40A61BB70B881F991F5A95A9F780959095E2
S1131F50BC01CD010895BB274A3031F4992322F402
S1131F60BDE2909581959F4F0C94B70FBB27FB0161
S1131F705527AA27880F991FAA1FA41710F0A41B7E
S1131F8083955051B9F7A05DAA3308F0A95DA193D8
S1131F90009779F7B111B1931192CB010C946C13A2
S1131FA00F931F93CF93DF93009731F4611571055D
S1131FB019F480E090E03AC08B01EC016EE070E02F
S1131FC081E090E00E941212FC01892B91F380E8D9
S1131FD083830115110571F01387028781E88383D8
S1131FE08091550490915604892B21F4F093560462
S1131FF0E09355042097C9F0D187C087838182601C
S113200083838091570490915804892B71F4F09341
S11320105804E09357048091590490915A04892BF1
S113202021F4F0935A04E0935904CF01DF91CF9146
S11320301F910F910895A0E0B0E0E1E2F0E10C946B
S11320402614AE014B5F5F4FFA0161917191AF01AC
S113205080915704909158040E943110E2E00C944E
S11320604214ABE0B0E0E7E3F0E10C9416146C0129
S11320707B018A01FC0117821682838181FFCCC116
S1132080CE0101963C01F6019381F70193FD859100
S113209093FF81917F01882309F4BAC1853239F411
S11320A093FD859193FF81917F01853229F4B601D7
S11320B090E00E947C13E7CF912C212C312CFFE17E
S11320C0F315D8F08B3279F038F4803279F083321A
S11320D0A1F4232D20611DC08D3261F0803369F499
S11320E0232D216016C0832D8260382EE32DE460F9
S11320F03E2E2AC0F32DF8601DC037FC2DC020ED04
S1132100280F2A3040F08E32B9F436FC81C1232DD9
S11321102064322E19C036FE06C08AE0989E200D37
S11321201124922E11C0EAE02E9E200D1124222E9D
S1132130F32DF0623F2E08C08C3621F4832D806885
S1132140382E02C0883641F4F70193FD859193FF40
S113215081917F018111B3CF982F9F7D9554933046
S113216028F40C5F1F4F9FE399830DC0833631F031
S1132170833771F0833509F059C021C0F80180819B
S113218089830E5F1F4F88248394912C530113C0BD
S11321902801F2E04F0E511CF801A080B18036FEF8
S11321A003C0692D70E002C06FEF7FEFC5010E948C
S11321B061134C018201F32DFF773F2E16C02801D5
S11321C022E0420E511CF801A080B18036FE03C00B
S11321D0692D70E002C06FEF7FEFC5010E944F13BD
S11321E04C01F32DF0683F2E820133FC1BC0822D7D
S11321F090E088169906B0F4B60180E290E00E945F
S11322007C132A94F4CFF50137FC859137FE819134
S11322105F01B60190E00E947C1321102A9421E012
S1132220821A91088114910471F7E8C0843611F080
S1132230893641F5F80137FE07C0608171818281DA
S113224093810C5F1F4F08C060817181072E000CC1
S1132250880B990B0E5F1F4FF32DFF763F2E97FFD0
S113226009C090958095709561957F4F8F4F9F4FD2
S1132270F0683F2E2AE030E0A3010E94B813882EB4
S1132280861845C0853731F4232D2F7EB22E2AE0DF
S113229030E025C0932D997FB92E8F36C1F018F404
S11322A0883579F0B5C0803719F0883721F0B0C08F
S11322B0E92FE061BE2EB4FE0DC0FB2DF460BF2EED
S11322C009C034FE0AC0292F2660B22E06C028E0B9
S11322D030E005C020E130E002C020E132E0F80146
S11322E0B7FE07C060817181828193810C5F1F4FAB
S11322F006C06081718180E090E00E5F1F4FA301F2
S11323000E94B813882E8618FB2DFF773F2E36FEC9
S11323100DC0232D2E7FA22E891458F434FE0BC039
S113232032FC09C0832D8E7EA82E05C0B82CA32CA8
S113233003C0B82C01C0B92CA4FE0FC0FE01E80DE7
S1132340F11D8081803321F49A2D997EA92E09C034
S1132350A2FE06C0B394B39404C08A2D867809F013
S1132360B394A3FC11C0A0FE06C0B21488F4280CD8
S1132370922C9B180EC0B21460F4B60180E290E077
S11323800E947C13B394F7CFB21418F42B1802C034
S1132390982C212CA4FE10C0B60180E390E00E948A
S11323A07C13A2FE17C0A1FC03C088E790E002C022
S11323B088E590E0B6010CC08A2D867859F0A1FE1C
S11323C002C08BE201C080E2A7FC8DE2B60190E07E
S11323D00E947C13891438F4B60180E390E00E94D3
S11323E07C139A94F7CF8A94F301E80DF11D808150
S11323F0B60190E00E947C138110F5CF222009F4ED
S113240042CEB60180E290E00E947C132A94F6CF7B
S1132410F6018681978102C08FEF9FEF2B96E2E150
S11324200C9432140F931F93CF93DF93869F8001F4
S1132430879F100D969F100D1124C8010E942E1223
S1132440EC01009729F0A80160E070E00E945A13A3
S1132450CE01DF91CF911F910F9108950F931F9398
S1132460CF93DF938230910510F482E090E0E09105
S11324705D04F0915E0420E030E0A0E0B0E030972D
S113248019F1408151810281138148175907C8F01D
S11324908417950769F4109731F012960C931297EC
S11324A013961C9327C000935D0410935E0422C00E
S11324B02115310519F04217530718F49A01BD018B
S11324C0EF01DF01F801DBCF21153105F9F0281BFD
S11324D0390B2430310580F48A819B8161157105A3
S11324E021F0FB019383828304C090935E04809364
S11324F05D04FE01329644C0FE01E20FF31F819396
S1132500919322503109398328833AC020915B0486
S113251030915C04232B41F420910201309103019A
S113252030935C0420935B042091000130910101FD
S11325302115310541F42DB73EB740910401509166
S11325400501241B350BE0915B04F0915C04E21758
S1132550F307A0F42E1B3F0B2817390778F0AC01C2
S11325604E5F5F4F2417350748F04E0F5F1F50939F
S11325705C0440935B048193919302C0E0E0F0E03B
S1132580CF01DF91CF911F910F910895CF93DF93E6
S1132590009709F481C0FC01329713821282A09142
S11325A05D04B0915E04109781F420813181820F23
S11325B0931F20915B0430915C042817390751F56F
S11325C0F0935C04E0935B0467C0ED0120E030E02D
S11325D0CE17DF0740F44A815B819E014115510506
S11325E0F1F0EA01F5CFD383C28340815181840F96
S11325F0951FC817D90759F488819981840F951FAD
S11326000296918380838A819B819383828321159F
S1132610310529F4F0935E04E0935D043DC0E901C3
S1132620FB83EA8349915991C40FD51FEC17FD0729
S113263061F480819181840F951F0296E901998349
S11326408883828193819B838A83E0E0F0E0129601
S11326508D919C911397009719F0FD01DC01F7CF40
S11326608D919C9111979D012E5F3F4F820F931F77
S113267020915B0430915C042817390769F4309782
S113268029F410925E0410925D0402C01382128237
S1132690B0935C04A0935B04DF91CF910895FC0197
S11326A00590615070400110D8F7809590958E0F79
S11326B09F1F0895DC0101C06D9341505040E0F725
S11326C00895FC016150704001900110D8F7809585
S11326D090958E0F9F1F0895DC01FC01672F719167
S11326E07723E1F7329704C07C916D9370836291F4
S11326F0AE17BF07C8F308950F931F93CF93DF93CB
S1132700FB01238121FD03C08FEF9FEF2CC022FF2B
S113271016C046815781248135814217530744F4FA
S1132720A081B1819D012F5F3F4F318320838C9322
S1132730268137812F5F3F4F3783268314C08B0157
S1132740EC01FB010084F185E02D0995892BE1F66C
S1132750D80116968D919C911797019617969C9384
S11327608E931697CE01DF91CF911F910F9108950B
S1132770FA01AA27283051F1203181F1E8946F93AE
S11327806E7F6E5F7F4F8F4F9F4FAF4FB1E03ED054
S1132790B4E03CD0670F781F891F9A1FA11D680FF2
S11327A0791F8A1F911DA11D6A0F711D811D911D25
S11327B0A11D20D009F468943F912AE0269F11249A
S11327C03019305D3193DEF6CF010895462F4770FE
S11327D0405D4193B3E00FD0C9F7F6CF462F4F7059
S11327E0405D4A3318F0495D31FD4052419302D0B7
S11327F0A9F7EACFB4E0A69597958795779567955D
S1132800BA95C9F700976105710508959B01AC015C
S11328100A2E06945795479537952795BA95C9F783
S1132820620F731F841F951FA01D08952F923F925E
S11328304F925F926F927F928F929F92AF92BF92CC
S1132840CF92DF92EF92FF920F931F93CF93DF9378
S1132850CDB7DEB7CA1BDB0B0FB6F894DEBF0FBED5
S1132860CDBF09942A88398848885F846E847D8422
S11328708C849B84AA84B984C884DF80EE80FD8024
S11328800C811B81AA81B981CE0FD11D0FB6F8949A
S1112890DEBF0FBECDBFED010895F894FFCF5B
S113289E00005F0420006702E2016E02E201E20121
S11328AE7502E2017B0280026702E2016E02E2011E
S11328BEE2018402E2017B02E2018902E201E20109
S11328CE6702E2016E02E201E201E2018F02E2011D
S11328DEE2019402E201E201E201E2019C02E20160
S11328EEA102E201E201A902E2016702E2016E0223
S11328FEE201AE02E2017B02B402E2016702E201EE
S113290E6E02E201E201E201B902BE02E201E2015B
S113291EE2016702E2016E02E201E201C702E20194
S113292EE2017202CD02E201E2019C02E201D20254
S113293EA902E201E2015374617274696E67207038
S113294E726F6772616D0A0D002D2D2D2D2D2D2D9B
S113295E2D2D2D2D2D2D2D2D2D2D2D2D2D2D2D2D95
S113296E2D2D2D2D2D2D2D2D2D2D2D2D2D2D2D2D85
S113297E0A0D004E6F7420696E20636F6E66696770
S113298E206D6F64652C20092025690A0D004E6F99
S113299E7420696E20636F7272656374206D6F6448
S11329AE653A204D6F64653A2025690A0D00476F1C
S11329BE004D65737361676520726563656976653D
S11329CE640053636F72653A200054696D653A2052
S11329DE004169722074696D653A200047616D6526
S11329EE206F766572004D617962652048533F0011
S11329FE53636F726520004E657665722000676FB3
S1132A0E6E6E612000676976652000796F7520000F
S1132A1E75702E006C65742000646F776E2E0072D4
S1132A2E756E200061726F756E642000616E642095
S1132A3E006465736572742000796F752E006D6184
S1132A4E6B6520006372792E007361792000676FC5
S1132A5E6F646279652E0074656C6C20006C696518
S1132A6E20006875727420004D61696E206D656E6C
S1132A7E7500506C61792067616D650048696768FF
S1132A8E2073636F726573004D75736963004761DC
S1132A9E6D6520310047616D6520320047616D65BB
S1132AAE20312048530047616D6520322048530081
S9030000FC
