S00F00006279676765726E2E7372656327
S11300000C94CB010C94F4010C94E8010C94E801D9
S11300100C94E8010C94E8010C94E8010C94E801B8
S11300200C94E8010C94E8010C94E8010C94E801A8
S11300300C94E8010C94E8010C9423080C94E80156
S11300400C94E8010C94E8010C94E8010C94E80188
S11300500C94E8010C94E8010C94E8010C94E80178
S11300600C94E8010C94E8010C94E8010C94E80168
S1130070084AD73B3BCE016E84BCBFFDC12F3D6C0B
S113008074319ABD56833DDA3D00C77F11BED9E471
S1130090BB4C3E916BAAAABE000000803F0000004A
S11300A000000000000000065F5F0600000000077B
S11300B0070007070000147F7F147F7F1400242E9D
S11300C06B6B3A120000466630180C666200307A98
S11300D04F5D377A48000407030000000000001C4D
S11300E03E63410000000041633E1C000000082AFA
S11300F03E1C1C3E2A0808083E3E0808000000A0DA
S1130100E06000000000080808080808000000007B
S11301106060000000006030180C060301003E7FA0
S1130120594D7F3E000042427F7F40400000627391
S113013059496F660000226349497F360000181C44
S113014016137F7F1000276745457D3900003C7EEC
S11301504B4979300000036371190F070000367FA3
S113016049497F360000064F49693F1E00000000E0
S11301706C6C0000000000A0EC6C00000000081C87
S113018036634100000014141414141400000041D8
S113019063361C080000020351590F0600003E7F1D
S11301A0415D5D1F1E007C7E13137E7C0000417F39
S11301B07F49497F36001C3E634141632200417FF1
S11301C07F41637F1C00417F7F495D416300417F24
S11301D07F491D0103001C3E6341517372007F7F00
S11301E008087F7F000000417F7F410000003070DD
S11301F040417F3F0100417F7F081C776300417FBE
S11302007F41406070007F7F060C067F7F007F7F08
S1130210060C187F7F001C3E6341633E1C00417F37
S11302207F49090F06001E3F21717F5E0000417F58
S11302307F19396F460026674D597B320000034110
S11302407F7F410300007F7F40407F7F00001F3F8E
S113025060603F1F00007F7F3018307F7F0063772E
S11302601C081C776300074F78784F0700006773FA
S1130270594D47637100007F7F4141000000010335
S1130280060C183060000041417F7F000000080C1C
S11302900603060C08008080808080808080000037
S11302A0030704000000207454543C784000413F8C
S11302B07F44447C3800387C44446C280000307807
S11302C048493F7F4000387C54545C180000487E05
S11302D07F490302000098BCA4A4F87C0400417F79
S11302E07F08047C780000447D7D4000000040C409
S11302F084FD7D000000417F7F10386C4400004184
S11303007F7F400000007C7C0C180C7C78007C7C97
S113031004047C780000387C44447C38000084FC6D
S1130320F8A4243C1800183C24A4F8FC8400447C61
S113033078441C180000485C5454742400000004E1
S11303403E7F442400003C7C40403C7C40001C3CFC
S113035060603C1C00003C7C6030607C3C00446C71
S11303603810386C44009CBCA0A0FC7C00004C6499
S1130370745C4C64000008083E77414100000000B2
S11303800077770000004141773E0808000002032F
S113039001030203010011241FBECFEFD4E0DEBF2E
S11303A0CDBF12E0A0E0B1E0E4EFFFE102C00590B0
S11303B00D92A63CB107D9F724E0A6ECB2E001C047
S11303C01D92A334B207E1F70E9403020C94F80FC4
S11303D00C94000030980895846080930014289948
S11303E0FECF8091001408951F920F920FB60F92C2
S11303F011248F9381E08093C6028F910F900FBEDA
S11304000F901F901895CF93DF93CDB7DEB72B973E
S11304100FB6F894DEBF0FBECDBF0E94980787E5E4
S113042095E09A87898783E08B878DE0898386E1CD
S11304308A8381E28B8386E091E09F938F930E946D
S1130440D60B89E191E09F938F930E94D60B2FEFF7
S11304508FE797E0215080409040E1F700C0000012
S113046080E00E9419040F900F900F900F9003E406
S113047011E00E94B8048091C6028823A1F01F9362
S11304800F930E94D60B1092C60285ED92E00E9453
S1130490640340E050E06CE270E083E090E00E948E
S11304A0CA030F900F900E9485050E94D207E1CFE6
S11304B0CF92DF92EF92FF920F931F93CF938C0111
S11304C084E591E09F938F930E94D60B8091C7029D
S11304D09091C802019663E070E00E94630B282F9C
S11304E0392F8093C7029093C8020F900F90213048
S11304F0310581F12230310509F446C0232B09F07E
S11305005CC0F801408551854295440F407E50E01F
S113051062E370E080EE90E00E94CA03F801608517
S1130520718576956795769567957695679581E358
S11305300E94B203F801808591859F938F9389E689
S113054091E09F938F930E94D60B0F900F900F9082
S11305500F9033C0F801408551854295440F407E89
S113056050E062E470E080EE90E00E94CA03F8017B
S11305706085718576956795769567957695679587
S113058081E40E94B20319C0F80140855185429567
S1130590440F407E50E062E570E080EE90E00E94FF
S11305A0CA03F80160857185769567957695679598
S11305B07695679581E50E94B2038091C702909178
S11305C0C80281309105E9F08230910521F1892B2F
S11305D059F5F80182851F928F938EE791E09F93DE
S11305E08F930E94D60BF801428550E065E370E0DA
S11305F08FE090E00E94CA030F900F900F900F902D
S113060013C0F801428550E065E470E08FE090E0AB
S11306100E94CA0309C0F801428550E065E570E014
S11306208FE090E00E94CA03F8018285882309F4D0
S11306303FC0C0E00F2EFFE9CF2EF1E0DF2EF02DFA
S11306408091C7029091C80281309105D9F082301F
S1130650910509F1892B39F57801EC0EF11CF701AC
S113066080811F928F93DF92CF920E94D60BF70165
S1130670608186E38C0F0E94B2030F900F900F905D
S11306800F9011C0F801EC0FF11D608186E48C0F0E
S11306900E94B20308C0F801EC0FF11D608186E5E9
S11306A08C0F0E94B203CF5FF80182858C13C8CFF0
S11306B08091C7020E94FC03CF911F910F91FF907C
S11306C0EF90DF90CF900895EF92FF920F931F93D6
S11306D0CF937C0182E60E949C03C82F81E60E948E
S11306E09C03C295C695C77028E0829FC00111245F
S11306F08C0F911DF7019187808785E60E949C03EA
S11307008F70F70182878285882381F0C0E00C2FE7
S113071010E086E68C0F0E949C03F701E00FF11FA6
S11307208083CF5FF70182858C13F1CFCF911F9126
S11307300F91FF90EF900895CF93C82F60E084E06D
S11307400E94060883E00E94FD078C2F0E94FD078B
S11307500E940108C82F61E084E00E9406088C2FE3
S1130760CF910895CF93DF93D82FC62F60E084E014
S11307700E94060882E00E94FD078D2F0E94FD075B
S11307808C2F0E94FD0761E084E00E940608DF913F
S1130790CF9108951F93CF93DF93D82F162FC42F93
S11307A060E084E00E94060885E00E94FD07812F36
S11307B00E94FD078D2F0E94FD078C2F0E94FD07CC
S11307C061E084E00E940608DF91CF911F910895B3
S11307D060E084E00E94060886EB91E09F938F938B
S11307E00E94D60B80EC0E94FD0761E084E00E9429
S11307F006080F900F900895CF93C82F60E084E00F
S11308000E940608C13041F018F0C23049F00BC014
S113081081E80E94FD0707C082E80E94FD0703C02B
S113082084E80E94FD0761E084E00E940608CF91FD
S11308300895CF93DF93C82F0E94E8038EE00E94AF
S11308409C03807E803869F01F928F9387EC91E03F
S11308509F938F930E94D60B0F900F900F900F9041
S113086038C04C2F4C606FE08EEE0E94CA0341E00A
S11308706BE28FEF0E94CA0340E660E680E60E94C6
S1130880CA032FEF8FEF92E0215080409040E1F7B0
S113089000C000C08EE00E949C03D82FD07ECD17EC
S11308A061F01F92DF9382EE91E09F938F930E94F9
S11308B0D60B0F900F900F900F901F92DF9382E052
S11308C092E09F938F930E94D60B0F900F900F90FE
S11308D00F90DF91CF9108950E94F40780E40E9465
S11308E019048BB780648BBF85B7826085BF85B7D9
S11308F08E7F85BF81B3847081BB2FEF8FEF92E031
S1130900215080409040E1F700C000C081E192E0B6
S11309109F938F930E94D60B8EE00E949C031F929C
S11309208F938AE292E09F938F930E94D60B0F904D
S11309300F900F900F900F900F90089581E087BB58
S11309408FEF81BF80E883BF83B7886083BF83B79D
S1130950806183BF83B7887F83BF089585B78F7E07
S113096085BF84B78F7D84BF86B78F7786BF089590
S113097088B1886888B985B7806285BF889585B74E
S11309808F7D85BF089580E00E94EC018093E10291
S113099081E00E94EC018093E0020895CF92DF92FF
S11309A0EF92FF92CF93DF9380E00E94EC01C82F77
S11309B081E00E94EC01E82F6091E102C61780F407
S11309C070E02C2F30E0261B370B44E6429FC00119
S11309D0439F900D11240E94630B6093C90214C0BD
S11309E0462F50E02C2F30E0241B350B64E6629F29
S11309F0C001639F900D11246FEF70E0641B750BB1
S1130A000E94630B6093C9022091E002E21788F40C
S1130A10622F70E04E2F50E0461B570B24E6249FB4
S1130A20C001259F900D11240E94630B6093CA029C
S1130A3013C030E04E2F50E0421B530B64E6649F1A
S1130A40C001659F900D11246FEF70E0621B730B62
S1130A500E94630B6093CA02C9ECD2E06881062E3F
S1130A60000C770B880B990B0E94CA096B017C015F
S1130A706981062E000C770B880B990B0E94CA091A
S1130A80A70196010E94C10820E030E044EB53E442
S1130A900E94850A20E030E040E05FE30E94850A7E
S1130AA023EC35EF48E450E40E9420090E949209A7
S1130AB07B836A83DF91CF91FF90EF90DF90CF909B
S1130AC00895FC01808194E0980F993020F491817D
S1130AD09C5F993090F085302CF081818F5C833657
S1130AE038F40DC08C3F24F481818F5C833648F048
S1130AF081818C3F44F082E0089584E0089581E090
S1130B00089580E0089583E00895CF93DF93CDB7EF
S1130B10DEB72B970FB6F894DEBF0FBECDBF81E0D2
S1130B2090E09A87898782E08B87E9ECF2E0808104
S1130B30898381818A83CE0101960E9458022B9673
S1130B400FB6F894DEBF0FBECDBFDF91CF910895ED
S1130B500F931F93CF93DF9385E392E09F938F933B
S1130B600E94D60BC2EED2E08AE0EAE4F2E0DE01B3
S1130B7001900D928A95E1F78AE0E4E5F2E0A1E0C4
S1130B80B3E001900D928A95E1F78CE0EEE5F2E096
S1130B90A0E2B3E001900D928A95E1F786E0EAE6DF
S1130BA0F2E0AFE3B3E001900D928A95E1F787E0BC
S1130BB0E0E7F2E0AEE5B3E001900D928A95E1F74B
S1130BC087E0E7E7F2E0ADE7B3E001900D928A95A4
S1130BD0E1F788E0EEE7F2E0ACE9B3E001900D92D2
S1130BE08A95E1F788E0E6E8F2E0ABEBB3E0019048
S1130BF00D928A95E1F788E0EEE8F2E0AAEDB3E021
S1130C0001900D928A95E1F788E0E6E9F2E0A9EF18
S1130C10B3E001900D928A95E1F788E0EEE9F2E005
S1130C20A8E1B4E001900D928A95E1F783E08E8FFC
S1130C3082E08DAF85E080933E0310925D031092B5
S1130C407C0310929B031092BA031092D903109262
S1130C50F8031092170410923604198A188ABE01F8
S1130C6007E314E00F900F9041E05FE118C0549F38
S1130C70F0011124EE51FD4FE993F993B18BA08B50
S1130C804F5F2F5F3F4F5E968C915E9790E02817E1
S1130C9039076CF3615E7F4F6017710759F0DB0110
S1130CA05E968C915E978823A9F3EB01629620E00F
S1130CB030E0DDCFEDECF2E082EE92E091838083D0
S1130CC0128284E08383DF91CF911F910F91089565
S1130CD00E9461059091D002943009F058C081308F
S1130CE0E1F160F18230C9F0833009F050C0EDECDD
S1130CF0F2E09281492F50E00190F081E02D268DA1
S1130D0030E0215031094217530724F49F5F909338
S1130D10CF023DC01092CF023AC09091CF029923E6
S1130D2021F091509093CF0232C0EDECF2E0A0811B
S1130D30B1815E969C919150928329C0E091CD023D
S1130D40F091CE02208931892115310501F1EDECB4
S1130D50F2E03183208312821AC0ADECB2E02D910F
S1130D603C91119712969C911297E92FF0E03996D5
S1130D70EE0FFF1FE20FF31F0190F081E02D968D1F
S1130D80992329F01196FC93EE9312961C9280936A
S1130D90D00208950F931F93CF93DF930E941407FB
S1130DA00E943507CDECD2E0888199810E947007BA
S1130DB0E881F981868D882331F1C0E0D0E00DEC23
S1130DC012E0CE0102960E946C07D8018D919C918D
S1130DD0FE013996EE0FFF1FE80FF91F8081918104
S1130DE00E947007F801828190E08C179D0711F42E
S1130DF00E942A072196D801ED91FC91868D90E0FE
S1130E00C817D907F4F2DF91CF911F910F9108957C
S1130E108055E0E0F0E18083862F8F7080836295B7
S1130E206F706061608308951F93CF93DF9310E028
S1130E30C0E0D2E160E0812F0E94080780E890E0E2
S1130E4018820197E9F71F5F1830A1F7DF91CF915E
S1130E501F910895E0E0F2E188E180839CE39083B0
S1130E609EE7908380838083089560E080E00E9401
S1130E7008070895E0E0F0E18EEA808381EA808348
S1130E808AED808382E1808388EC808388EA808392
S1130E908FE3808385ED808380E8808381E880838D
S1130EA080E5808389ED808381E2808380E2808392
S1130EB082E080838BED808380E380838DEA80836E
S1130EC0108284EA808386EA80838FEA80830E948A
S1130ED014070E943507089560E00E9408070895EA
S1130EE0CF93DF93DC018C9181111AC01EC0EC9169
S1130EF0F0E0B097EE0FFF1FEE0FFF1FEE0FFF1F86
S1130F00E20FF31FE256FF4FE491E8832F5F3F4F58
S1130F102830310561F711968C91811103C005C009
S1130F20C0E0D2E120E030E0E2CFDF91CF9108953C
S1130F30F8940E94A7088FE190E00E9496080E940E
S1130F40EA010E94C3040E9469080E943A0786EAE3
S1130F5092E09F938F930E94D60B0E945B080E949D
S1130F60AE040E94A80587EB92E09F938F930E94A2
S1130F70D60B0E946C040E949E0478940F900F90EC
S1130F800F900F900895CF93DF9382E00E94EC01BD
S1130F90C3EDD2E0888383E00E94EC018983DF9172
S1130FA0CF910895CF93DF93CDB7DEB72B970FB6CC
S1130FB0F894DEBF0FBECDBF82E090E09A878987A8
S1130FC08B87E3EDF2E08081898381818A83CE017E
S1130FD001960E9458022B960FB6F894DEBF0FBEFE
S1130FE0CDBFDF91CF91089587B3806A87BBBC9A48
S1130FF08DB181658DB9C49A08958FB9779BFECF61
S113100008951FB8779BFECF8FB10895662369F0CA
S113101048B321E030E0B90102C0660F771F8A951A
S1131020E2F7CB01842B88BB089548B321E030E07C
S1131030B90102C0660F771F8A95E2F7CB0180954C
S1131040842388BB08951F920F920FB60F92112428
S11310502F933F934F935F936F937F938F939F93BC
S1131060AF93BF93EF93FF93F8941DBC1CBC89EC22
S113107092E00E94CE0483ED92E00E94C30781EDCA
S113108092E00E94820889EC92E00E9468060E9425
S1131090CA067894FF91EF91BF91AF919F918F9180
S11310A07F916F915F914F913F912F910F900FBE60
S11310B00F901F90189589B7806289BF1DBC1CBC16
S11310C080E38FBD85E08EBD80EF90E099BD88BD43
S11310D0089536B326B347B3327081E090E0BC0183
S11310E002C0660F771F3A95E2F7247002C0880F9A
S11310F0991F2A95E2F7862B972B80959095842348
S113110087BB089586B3E1EDF2E086958170808314
S113111086B382FB882780F9818308955D9BFECF87
S11311208CB908955F9BFECF8CB1089590BD89B9A9
S113113088E18AB98EE880BD62E978E08EE898E0BB
S11311400E948B0B9093380480933704089585B7DD
S1131150806885BF80B7886080BF08950E94350A83
S113116060F080E891E009F49EEF0E943C0A28F0C8
S113117040E851E071F45EEF0CC00C940B0A0C943F
S1131180760AE92FE0780E94540A40F3092E052AD2
S1131190B1F3261737074807590738F00E2E07F81A
S11311A0E02569F0E025E0640AC0EF6307F80094E5
S11311B007FADB01B9019D01DC01CA01AD01EF931E
S11311C00E9437090E94430A0E94F1085F91552347
S11311D039F02BED3FE049E450FD49EC0C94F70A5B
S11311E00895DF93DD27B92FBF7740E85FE3161634
S11311F0170648075B0718F4D92F0E947D0A9F93AE
S11312008F937F936F930E94F20AE0E7F0E00E94CD
S11312100E0A0E94430A2F913F914F915F910E94C1
S1131220980ADD2351F09058A2EA2AED3FE049ECF8
S11312305FE3D0785D270E940E0BDF910C94430A84
S11312400E9434090C94430A0E943C0A58F00E94FC
S1131250350A40F029F45F3F29F00C94050A511136
S11312600C94770A0C940B0A0E94540A68F399238D
S1131270B1F3552391F3951B550BBB27AA2762178E
S11312807307840738F09F5F5F4F220F331F441F9B
S1131290AA1FA9F335D00E2E3AF0E0E832D09150CF
S11312A05040E695001CCAF72BD0FE2F29D0660FBC
S11312B0771F881FBB1F261737074807AB07B0E8FF
S11312C009F0BB0B802DBF01FF2793585F4F3AF005
S11312D09E3F510578F00C94050A0C94770A5F3F01
S11312E0E4F3983ED4F3869577956795B795F7958B
S11312F09F5FC9F7880F911D9695879597F9089573
S1131300E1E0660F771F881FBB1F6217730784070E
S1131310BA0720F0621B730B840BBA0BEE1F88F71D
S1131320E09508950E9499096894B1110C94770A84
S113133008950E945C0A88F09F5798F0B92F992766
S1131340B751B0F0E1F0660F771F881F991F1AF0AC
S1131350BA95C9F714C0B13091F00E94760AB1E091
S113136008950C94760A672F782F8827B85F39F090
S1131370B93FCCF3869577956795B395D9F73EF445
S113138090958095709561957F4F8F4F9F4F0895ED
S1131390E89409C097FB3EF490958095709561950B
S11313A07F4F8F4F9F4F9923A9F0F92F96E9BB27C1
S11313B09395F695879577956795B795F111F8CF3D
S11313C0FAF4BB0F11F460FF1BC06F5F7F4F8F4FA8
S11313D09F4F16C0882311F096E911C0772321F09E
S11313E09EE8872F762F05C0662371F096E8862F36
S11313F070E060E02AF09A95660F771F881FDAF78D
S1131400880F9695879597F9089597F99F6780E8CF
S113141070E060E008959FEF80EC0895DF93CF9330
S11314201F930F93FF92EF92DF927B018C016894DC
S113143006C0DA2EEF010E94980AFE01E894A591F5
S11314402591359145915591A6F3EF010E940E0B1C
S1131450FE019701A801DA9469F7DF90EF90FF90FD
S11314600F911F91CF91DF91089500240A941616CD
S1131470170618060906089500240A94121613067E
S1131480140605060895092E0394000C11F488230C
S113149052F0BB0F40F4BF2B11F460FF04C06F5F28
S11314A07F4F8F4F9F4F089557FD9058440F551FFE
S11314B059F05F3F71F04795880F97FB991F61F0D2
S11314C09F3F79F087950895121613061406551F49
S11314D0F2CF4695F1DF08C0161617061806991FB5
S11314E0F1CF86957105610508940895E894BB27AA
S11314F066277727CB0197F908959B01AC0160E03B
S113150070E080E89FE30C9420090E94980A0C94F0
S1131510430A0E94350A38F00E943C0A20F09523C1
S113152011F00C94050A0C940B0A11240C94770AFC
S11315300E94540A70F3959FC1F3950F50E0551F14
S1131540629FF001729FBB27F00DB11D639FAA2714
S1131550F00DB11DAA1F649F6627B00DA11D661F63
S1131560829F2227B00DA11D621F739FB00DA11D84
S1131570621F839FA00D611D221F749F3327A00D3E
S1131580611D231F849F600D211D822F762F6A2FDA
S113159011249F5750409AF0F1F088234AF0EE0F3F
S11315A0FF1FBB1F661F771F881F91505040A9F76C
S11315B09E3F510580F00C94050A0C94770A5F3F16
S11315C0E4F3983ED4F3869577956795B795F795A8
S11315D0E7959F5FC1F7FE2B880F911D9695879520
S11315E097F908959B01AC010C94850A5058BB27C8
S11315F0AA270E940E0B0C94430A0E94350A38F065
S11316000E943C0A20F039F49F3F19F426F40C940C
S11316100B0A0EF4E095E7FB0C94050AE92F0E94EF
S1131620540A58F3BA17620773078407950720F022
S113163079F4A6F50C94760A0EF4E0950B2EBA2FE5
S1131640A02D0B01B90190010C01CA01A0011124C4
S1131650FF27591B99F0593F50F4503E68F11A1670
S1131660F040A22F232F342F4427585FF3CF469501
S113167037952795A795F0405395C9F77EF41F1623
S1131680BA0B620B730B840BBAF09150A1F0FF0FED
S1131690BB1F661F771F881FC2F70EC0BA0F621FD9
S11316A0731F841F48F4879577956795B795F795C9
S11316B09E3F08F0B0CF9395880F08F09927EE0F5E
S11316C097958795089597FB072E16F4009407D0F5
S11316D077FD09D00E94770B07FC05D03EF4909566
S11316E081959F4F0895709561957F4F0895AA1B2A
S11316F0BB1B51E107C0AA1FBB1FA617B70710F0F9
S1131700A61BB70B881F991F5A95A9F7809590952A
S1131710BC01CD0108950F931F93CF93DF930097DE
S113172031F46115710519F480E090E03AC08B0141
S1131730EC016EE070E081E090E00E94CD0DFC01D0
S1131740892B91F380E883830115110571F01387C8
S1131750028781E883838091390490913A04892B2C
S113176021F4F0933A04E09339042097C9F0D18727
S1131770C08783818260838380913B0490913C0481
S1131780892B71F4F0933C04E0933B0480913D0475
S113179090913E04892B21F4F0933E04E0933D04A0
S11317A0CF01DF91CF911F910F910895A0E0B0E098
S11317B0ECEDFBE00C94D10FAE014B5F5F4FFA01EF
S11317C061917191AF0180913B0490913C040E941E
S11317D0EC0BE2E00C94ED0FABE0B0E0E2EFFBE0E9
S11317E00C94C10F6C017B018A01FC0117821682E3
S11317F0838181FFCCC1CE0101963C01F601938126
S1131800F70193FD859193FF81917F01882309F46A
S1131810BAC1853239F493FD859193FF81917F019B
S1131820853229F4B60190E00E94270FE7CF912C6E
S1131830212C312CFFE1F315D8F08B3279F038F4F8
S1131840803279F08332A1F4232D20611DC08D32C2
S113185061F0803369F4232D216016C0832D8260EA
S1131860382EE32DE4603E2E2AC0F32DF8601DC00F
S113187037FC2DC020ED280F2A3040F08E32B9F409
S113188036FC81C1232D2064322E19C036FE06C0D9
S11318908AE0989E200D1124922E11C0EAE02E9E1B
S11318A0200D1124222EF32DF0623F2E08C08C3619
S11318B021F4832D8068382E02C0883641F4F70164
S11318C093FD859193FF81917F018111B3CF982F6F
S11318D09F7D9554933028F40C5F1F4F9FE39983A9
S11318E00DC0833631F0833771F0833509F059C068
S11318F021C0F801808189830E5F1F4F882483945F
S1131900912C530113C02801F2E04F0E511CF80131
S1131910A080B18036FE03C0692D70E002C06FEF75
S11319207FEFC5010E941C0F4C018201F32DFF774C
S11319303F2E16C0280122E0420E511CF801A0805F
S1131940B18036FE03C0692D70E002C06FEF7FEFF7
S1131950C5010E940A0F4C01F32DF0683F2E82014D
S113196033FC1BC0822D90E088169906B0F4B601B2
S113197080E290E00E94270F2A94F4CFF50137FC0F
S1131980859137FE81915F01B60190E00E94270F97
S113199021102A9421E0821A91088114910471F78C
S11319A0E8C0843611F0893641F5F80137FE07C0E6
S11319B060817181828193810C5F1F4F08C06081B7
S11319C07181072E000C880B990B0E5F1F4FF32DAE
S11319D0FF763F2E97FF09C090958095709561958D
S11319E07F4F8F4F9F4FF0683F2E2AE030E0A301D6
S11319F00E94630F882E861845C0853731F4232D45
S1131A002F7EB22E2AE030E025C0932D997FB92E87
S1131A108F36C1F018F4883579F0B5C0803719F0E5
S1131A20883721F0B0C0E92FE061BE2EB4FE0DC0AE
S1131A30FB2DF460BF2E09C034FE0AC0292F266096
S1131A40B22E06C028E030E005C020E130E002C03C
S1131A5020E132E0F801B7FE07C060817181828124
S1131A6093810C5F1F4F06C06081718180E090E01C
S1131A700E5F1F4FA3010E94630F882E8618FB2D53
S1131A80FF773F2E36FE0DC0232D2E7FA22E891404
S1131A9058F434FE0BC032FC09C0832D8E7EA82E70
S1131AA005C0B82CA32C03C0B82C01C0B92CA4FECB
S1131AB00FC0FE01E80DF11D8081803321F49A2DC1
S1131AC0997EA92E09C0A2FE06C0B394B39404C0A3
S1131AD08A2D867809F0B394A3FC11C0A0FE06C039
S1131AE0B21488F4280C922C9B180EC0B21460F423
S1131AF0B60180E290E00E94270FB394F7CFB214AE
S1131B0018F42B1802C0982C212CA4FE10C0B60186
S1131B1080E390E00E94270FA2FE17C0A1FC03C03F
S1131B2088E790E002C088E590E0B6010CC08A2DF9
S1131B30867859F0A1FE02C08BE201C080E2A7FCC6
S1131B408DE2B60190E00E94270F891438F4B601A3
S1131B5080E390E00E94270F9A94F7CF8A94F301D0
S1131B60E80DF11D8081B60190E00E94270F8110DD
S1131B70F5CF222009F442CEB60180E290E00E9423
S1131B80270F2A94F6CFF6018681978102C08FEF42
S1131B909FEF2B96E2E10C94DD0F0F931F93CF93ED
S1131BA0DF93869F8001879F100D969F100D11244F
S1131BB0C8010E94E90DEC01009729F0A80160E03A
S1131BC070E00E94150FCE01DF91CF911F910F910C
S1131BD008950F931F93CF93DF938230910510F4F0
S1131BE082E090E0E0914104F091420420E030E092
S1131BF0A0E0B0E0309719F1408151810281138156
S1131C0048175907C8F08417950769F4109731F0FD
S1131C1012960C93129713961C9327C000934104B9
S1131C201093420422C02115310519F042175307BD
S1131C3018F49A01BD01EF01DF01F801DBCF211592
S1131C403105F9F0281B390B2430310580F48A81E1
S1131C509B816115710521F0FB019383828304C08C
S1131C609093420480934104FE01329644C0FE01E5
S1131C70E20FF31F81939193225031093983288312
S1131C803AC020913F0430914004232B41F4209129
S1131C900201309103013093400420933F042091CA
S1131CA00001309101012115310541F42DB73EB7F2
S1131CB04091040150910501241B350BE0913F0430
S1131CC0F0914004E217F307A0F42E1B3F0B2817F2
S1131CD0390778F0AC014E5F5F4F2417350748F0A1
S1131CE04E0F5F1F5093400440933F0481939193A0
S1131CF002C0E0E0F0E0CF01DF91CF911F910F919E
S1131D000895CF93DF93009709F481C0FC013297C3
S1131D1013821282A0914104B0914204109781F47D
S1131D2020813181820F931F20913F043091400420
S1131D302817390751F5F0934004E0933F0467C036
S1131D40ED0120E030E0CE17DF0740F44A815B81EB
S1131D509E0141155105F1F0EA01F5CFD383C28309
S1131D6040815181840F951FC817D90759F4888180
S1131D709981840F951F0296918380838A819B8128
S1131D80938382832115310529F4F0934204E0936F
S1131D9041043DC0E901FB83EA8349915991C40F91
S1131DA0D51FEC17FD0761F480819181840F951F85
S1131DB00296E90199838883828193819B838A8334
S1131DC0E0E0F0E012968D919C911397009719F042
S1131DD0FD01DC01F7CF8D919C9111979D012E5F40
S1131DE03F4F820F931F20913F04309140042817E6
S1131DF0390769F4309729F410924204109241048F
S1131E0002C013821282B0934004A0933F04DF9176
S1131E10CF910895FC010590615070400110D8F7EE
S1131E20809590958E0F9F1F0895DC0101C06D93DE
S1131E3041505040E0F70895FC016150704001901A
S1131E400110D8F7809590958E0F9F1F08950F93DA
S1131E501F93CF93DF93FB01238121FD03C08FEFF9
S1131E609FEF2CC022FF16C0468157812481358103
S1131E704217530744F4A081B1819D012F5F3F4F66
S1131E80318320838C93268137812F5F3F4F3783A3
S1131E90268314C08B01EC01FB010084F185E02D45
S1131EA00995892BE1F6D80116968D919C91179787
S1131EB0019617969C938E931697CE01DF91CF913E
S1131EC01F910F910895FA01AA27283051F120316A
S1131ED081F1E8946F936E7F6E5F7F4F8F4F9F4FBA
S1131EE0AF4FB1E03ED0B4E03CD0670F781F891FFC
S1131EF09A1FA11D680F791F8A1F911DA11D6A0FCA
S1131F00711D811D911DA11D20D009F468943F917C
S1131F102AE0269F11243019305D3193DEF6CF017B
S1131F200895462F4770405D4193B3E00FD0C9F741
S1131F30F6CF462F4F70405D4A3318F0495D31FDAE
S1131F404052419302D0A9F7EACFB4E0A695979501
S1131F50879577956795BA95C9F7009761057105D7
S1131F6008959B01AC010A2E069457954795379521
S1131F702795BA95C9F7620F731F841F951FA01D7B
S1131F8008952F923F924F925F926F927F928F9219
S1131F909F92AF92BF92CF92DF92EF92FF920F93F4
S1131FA01F93CF93DF93CDB7DEB7CA1BDB0B0FB6FE
S1131FB0F894DEBF0FBECDBF09942A8839884888BB
S1131FC05F846E847D848C849B84AA84B984C88451
S1131FD0DF80EE80FD800C811B81AA81B981CE0F48
S1131FE0D11D0FB6F894DEBF0FBECDBFED0108952D
S1071FF0F894FFCF8F
S1131FF40000430420005374617274696E67207096
S1132004726F6772616D0A0D002D2D2D2D2D2D2DEE
S11320142D2D2D2D2D2D2D2D2D2D2D2D2D2D2D2DE8
S11320242D2D2D2D2D2D2D2D2D2D2D2D2D2D2D2DD8
S11320340A0D004D65737361676520726563656994
S1132044766564005472616E736D697474696E6745
S1132054206D6573736167650053656E64696E67AB
S11320642077686F6C652069643A202569000A0D3D
S11320747472616E736D697474696E6720646174DB
S113208461206C656E6774683A2025690A0D0074D2
S113209472616E736D697474696E672064617461CE
S11320A43A20256909004265666F72652073706978
S11320B4207772697465004E6F7420696E20636FB3
S11320C46E666967206D6F64652C20092025690A92
S11320D40D004E6F7420696E20636F7272656374B1
S11320E4206D6F64653A204D6F64653A2025690A52
S11320F40D004D6F6465207365743A2025690A0DDB
S113210400616674657220777269746520746F2047
S113211463616E6374726C0A0D00446174613A20E5
S113212425690A0D00746869735F696E69742069AE
S11321346E6974696174696E67004D61696E206DBE
S1132144656E7500506C61792067616D650048693E
S113215467682073636F726573004D7573696300F8
S113216447616D6520310047616D6520320053631A
S11321746F726520310053636F72652032005363BC
S11321846F726520330053636F72652034005363A8
S11321946F72652035004166746572206F6C6564E6
S11321A4696E69740A0D0046696E69736865642012
S10921B474686973000069
S9030000FC
