S00F00006279676765726E2E7372656327
S11300000C94CB010C94E8010C94E8010C94E801E5
S11300100C94E8010C94E8010C94E8010C94E801B8
S11300200C94E8010C94E8010C94E8010C94E801A8
S11300300C94E8010C94E8010C94BA070C94E801C0
S11300400C94E8010C94E8010C94E8010C94E80188
S11300500C94E8010C94E8010C94E8010C94E80178
S11300600C94E8010C94E8010C94E8010C94E80168
S1130070084AD73B3BCE016E84BCBFFDC12F3D6C0B
S113008074319ABD56833DDA3D00C77F11BED9E471
S1130090BB4C3E916BAAAABE000000803F0000004A
S11300A000000000000000065F5F0600000000077B
S11300B0070007070000147F7F147F7F1400242E9D
S11300C06B6B3A120000466630180C666200307A98
S11300D04F5D377A48000407030000000000001C4D
S11300E03E63410000000041633E1C000000082AFA
S11300F03E1C1C3E2A0808083E3E0808000000A0DA
S1130100E06000000000080808080808000000007B
S11301106060000000006030180C060301003E7FA0
S1130120594D7F3E000042427F7F40400000627391
S113013059496F660000226349497F360000181C44
S113014016137F7F1000276745457D3900003C7EEC
S11301504B4979300000036371190F070000367FA3
S113016049497F360000064F49693F1E00000000E0
S11301706C6C0000000000A0EC6C00000000081C87
S113018036634100000014141414141400000041D8
S113019063361C080000020351590F0600003E7F1D
S11301A0415D5D1F1E007C7E13137E7C0000417F39
S11301B07F49497F36001C3E634141632200417FF1
S11301C07F41637F1C00417F7F495D416300417F24
S11301D07F491D0103001C3E6341517372007F7F00
S11301E008087F7F000000417F7F410000003070DD
S11301F040417F3F0100417F7F081C776300417FBE
S11302007F41406070007F7F060C067F7F007F7F08
S1130210060C187F7F001C3E6341633E1C00417F37
S11302207F49090F06001E3F21717F5E0000417F58
S11302307F19396F460026674D597B320000034110
S11302407F7F410300007F7F40407F7F00001F3F8E
S113025060603F1F00007F7F3018307F7F0063772E
S11302601C081C776300074F78784F0700006773FA
S1130270594D47637100007F7F4141000000010335
S1130280060C183060000041417F7F000000080C1C
S11302900603060C08008080808080808080000037
S11302A0030704000000207454543C784000413F8C
S11302B07F44447C3800387C44446C280000307807
S11302C048493F7F4000387C54545C180000487E05
S11302D07F490302000098BCA4A4F87C0400417F79
S11302E07F08047C780000447D7D4000000040C409
S11302F084FD7D000000417F7F10386C4400004184
S11303007F7F400000007C7C0C180C7C78007C7C97
S113031004047C780000387C44447C38000084FC6D
S1130320F8A4243C1800183C24A4F8FC8400447C61
S113033078441C180000485C5454742400000004E1
S11303403E7F442400003C7C40403C7C40001C3CFC
S113035060603C1C00003C7C6030607C3C00446C71
S11303603810386C44009CBCA0A0FC7C00004C6499
S1130370745C4C64000008083E77414100000000B2
S11303800077770000004141773E0808000002032F
S113039001030203010011241FBECFEFD4E0DEBF2E
S11303A0CDBF12E0A0E0B1E0EAEAFFE102C00590AF
S11303B00D92A836B107D9F723E0A8E6B2E001C050
S11303C01D92AF3FB207E1F70E94F4010C94D30FE2
S11303D00C94000030980895846080930014289948
S11303E0FECF809100140895CF93DF93CDB7DEB78D
S11303F02B970FB6F894DEBF0FBECDBF0E945107F6
S113040087E595E09A87898783E08B878DE08983E8
S113041086E18A8381E28B8386E091E09F938F93C8
S11304200E94A10B89E191E09F938F930E94A10BFD
S11304302FEF8FE797E0215080409040E1F700C014
S1130440000080E00E94AD030F900F900F900F907A
S11304500FE612E00E947F04D801ED91FC918081A7
S11304608430C1F781E090E00E946C04F3CF0F93D5
S11304701F93CF938C018091680290916902019639
S113048063E070E00E94090B282F392F80936802E3
S1130490909369022130310501F122303105B9F11F
S11304A0232B09F04DC0F801408551854295440F36
S11304B0407E50E062E370E080EE90E00E945E03D4
S11304C0F80160857185769567957695679576953B
S11304D0679581E30E94460333C0F8014085518546
S11304E04295440F407E50E062E470E080EE90E07C
S11304F00E945E03F801608571857695679576950F
S113050067957695679581E40E94460319C0F801C2
S1130510408551854295440F407E50E062E570E08D
S113052080EE90E00E945E03F80160857185769507
S11305306795769567957695679581E50E9446035C
S113054080916802909169028130910579F082303E
S11305509105B1F0892BE9F4F801428550E065E397
S113056070E08FE090E00E945E0313C0F8014285C2
S113057050E065E470E08FE090E00E945E0309C003
S1130580F801428550E065E570E08FE090E00E945C
S11305905E03F8018285882361F1C0E080916802DE
S11305A0909169028130910571F082309105A1F03A
S11305B0892BD1F4F801EC0FF11D608186E38C0FD7
S11305C00E94460311C0F801EC0FF11D608186E41E
S11305D08C0F0E94460308C0F801EC0FF11D6081E6
S11305E086E58C0F0E944603CF5FF80182858C1349
S11305F0D5CF809168020E949003CF911F910F91F3
S11306000895CF93DF93CDB7DEB72B970FB6F89449
S1130610DEBF0FBECDBF81E090E09A87898786E078
S11306208B87E5E7F2E08081898381818A83E3E730
S1130630F2E080818B8381818C83EBE6F2E0808120
S11306408D8381818E83CE0101960E9437022B9681
S11306500FB6F894DEBF0FBECDBFDF91CF910895E2
S1130660CF93C82F60E084E00E949D0783E00E943E
S113067094078C2F0E9494070E949807C82F61E06A
S113068084E00E949D078C2FCF910895CF93DF9330
S1130690D82FC62F60E084E00E949D0782E00E946C
S11306A094078D2F0E9494078C2F0E94940761E079
S11306B084E00E949D07DF91CF9108951F93CF930B
S11306C0DF93D82F162FC42F60E084E00E949D078B
S11306D085E00E949407812F0E9494078D2F0E9429
S11306E094078C2F0E94940761E084E00E949D0788
S11306F0DF91CF911F91089560E084E00E949D07EF
S113070083E491E09F938F930E94A10B80EC0E945D
S1130710940761E084E00E949D070F900F90089574
S1130720CF93C82F60E084E00E949D07C13041F060
S113073018F0C23049F00BC081E80E94940707C04A
S113074082E80E94940703C084E80E94940761E051
S113075084E00E949D07CF910895CF93DF93C82F23
S11307600E947C038EE00E943003807E803869F012
S11307701F928F9384E591E09F938F930E94A10B26
S11307800F900F900F900F9038C04C2F4C606FE07B
S11307908EEE0E945E0341E06BE28FEF0E945E03E7
S11307A040E660E680E60E945E032FEF8FEF92E062
S11307B0215080409040E1F700C000C08EE00E94CC
S11307C03003D82FD07ECD1761F01F92DF938FE6D0
S11307D091E09F938F930E94A10B0F900F900F9025
S11307E00F901F92DF938FE891E09F938F930E9465
S11307F0A10B0F900F900F900F90DF91CF91089560
S11308000E948B0780E40E94AD038BB780648BBF8A
S113081085B7826085BF85B78E7F85BF81B38470BD
S113082081BB2FEF8FEF92E0215080409040E1F7A1
S113083000C000C08EE991E09F938F930E94A10BAA
S11308408EE00E9430031F928F9387EB91E09F9379
S11308508F930E94A10B0F900F900F900F900F9009
S11308600F90089510928202089581E0809382028D
S1130870E3E8F2E08AE08083128288E781830895C6
S1130880CF93DF9300D0CDB7DEB783ED91E09F9394
S11308908F930E94A10B0E94CD060E94EE068091C8
S11308A06F029091700202960E94290783E090E003
S11308B00E942507809183024AE0BE016F5F7F4F4B
S11308C090E00E94310B0E9429070F900F900F9027
S11308D00F90DF91CF91089580918202811102C01F
S11308E00E9435040E940103089585B78F7E85BF59
S11308F084B78F7D84BF86B78F7786BF089588B10C
S1130900886888B985B7806285BF889585B78F7DEB
S113091085BF089580E00E94EC018093870281E006
S11309200E94EC01809386020895CF92DF92EF92A9
S1130930FF92CF93DF9380E00E94EC01C82F81E007
S11309400E94EC01E82F60918702C61780F470E0E2
S11309502C2F30E0261B370B44E6429FC001439FF7
S1130960900D11240E94090B60936B0214C0462F52
S113097050E02C2F30E0241B350B64E6629FC0014D
S1130980639F900D11246FEF70E0641B750B0E9440
S1130990090B60936B0220918602E21788F4622FA0
S11309A070E04E2F50E0461B570B24E6249FC001F5
S11309B0259F900D11240E94090B60936C0213C0B3
S11309C030E04E2F50E0421B530B64E6649FC0019D
S11309D0659F900D11246FEF70E0621B730B0E94F2
S11309E0090B60936C02CBE6D2E06881062E000C02
S11309F0770B880B990B0E9470096B017C0169814C
S1130A00062E000C770B880B990B0E947009A70126
S1130A1096010E94670820E030E044EB53E40E9412
S1130A202B0A20E030E040E05FE30E942B0A23EC35
S1130A3035EF48E450E40E94C6080E9438097B83DD
S1130A406A83DF91CF91FF90EF90DF90CF9008956C
S1130A50FC01808194E0980F993020F491819C5F8F
S1130A60993090F085302CF081818F5C833638F496
S1130A700DC08C3F24F481818F5C833648F08181E2
S1130A808C3F44F082E0089584E0089581E0089565
S1130A9080E0089583E008950E94280590917202F1
S1130AA0943009F05CC08130E1F160F18230C9F02A
S1130AB0833009F054C0EFE6F2E09281492F50E010
S1130AC00190F081E02D20A130E02150310942173E
S1130AD0530724F49F5F9093710241C010927102F6
S1130AE03EC090917102992321F09150909371022C
S1130AF036C0EFE6F2E0A081B18190969C919150CE
S1130B0092832DC0E0916F02F091700222893389A3
S1130B102115310521F1EFE6F2E0318320831282C1
S1130B201EC0AFE6B2E02D913C91119712969C91B4
S1130B30E92FF0E03A96EE0FFF1FE20FF31F01904A
S1130B40F081E02D90A1911103C09181992339F096
S1130B50AFE6B2E01196FC93EE9312961C9280934A
S1130B60720208950F931F93CF93DF938AE0EDED04
S1130B70F1E0AAE8B2E001900D928A95E1F78AE0EB
S1130B80E7EEF1E0ABEAB2E001900D928A95E1F76D
S1130B908CE0E1EFF1E0ACECB2E001900D928A95CB
S1130BA0E1F786E0EDEFF1E0ADEEB2E001900D92F9
S1130BB08A95E1F787E0E3E0F2E0AEE0B3E001908C
S1130BC00D928A95E1F787E0EAE0F2E0AFE2B3E064
S1130BD001900D928A95E1F788E0E1E1F2E0A0E569
S1130BE0B3E001900D928A95E1F788E0E9E1F2E043
S1130BF0A1E7B3E001900D928A95E1F788E0E1E284
S1130C00F2E0A2E9B3E001900D928A95E1F788E061
S1130C10E9E2F2E0A3EBB3E001900D928A95E1F7EB
S1130C2088E0E1E3F2E0A4EDB3E001900D928A954F
S1130C30E1F768E872E0FB0180E090E021E0808366
S1130C408430910514F0218301C011820196B1967C
S1130C508B309105A1F7E8E8F2E083E080A382E01D
S1130C608093C90285E08093EA0210920B031092EC
S1130C702C0310924D0310926E0310928F03109266
S1130C80B0031092D1031092F203138A128A03EF75
S1130C9013E041E051E218C0549FF0011124E857D9
S1130CA0FD4FE993F993B38BA28B4F5F2F5F3F4FB7
S1130CB090968C91909790E0281739076CF36F5DAC
S1130CC07F4F6017710759F0DB0190968C919097D4
S1130CD08823A9F3EB01649620E030E0DDCF8BE6B6
S1130CE092E00E944C05EFE6F2E088E892E09183FE
S1130CF08083128284E08383DF91CF911F910F91CF
S1130D0008950F931F93CF93DF930E94CD060E9403
S1130D10EE06CFE6D2E08881998102960E942907E7
S1130D20E881F98180A1882339F1C0E0D0E00FE6A1
S1130D3012E0CE0102960E942507D8018D919C9164
S1130D40FE013A96EE0FFF1FE80FF91F8081918193
S1130D5002960E942907F801828190E08C179D0772
S1130D6011F40E94E3062196D801ED91FC9180A133
S1130D7090E0C817D907ECF2DF91CF911F910F9142
S1130D8008958055E0E0F0E18083862F8F708083A2
S1130D9062956F706061608308951F93CF93DF93B2
S1130DA010E0C0E0D2E160E0812F0E94C10680E83B
S1130DB090E018820197E9F71F5F1830A1F7DF91DF
S1130DC0CF911F910895E0E0F2E188E180839CE3F4
S1130DD090839EE7908380838083089560E080E021
S1130DE00E94C1060895E0E0F0E18EEA808381EA82
S1130DF080838AED808382E1808388EC808388EA23
S1130E0080838FE3808385ED808380E8808381E81D
S1130E10808380E5808389ED808381E2808380E222
S1130E20808382E080838BED808380E380838DEAFE
S1130E308083108284EA808386EA80838FEA8083B9
S1130E400E94CD060E94EE06089560E00E94C1064D
S1130E500895CF93DF93DC018C9181111AC01EC0D9
S1130E60EC91F0E0B097EE0FFF1FEE0FFF1FEE0FB7
S1130E70FF1FE20FF31FE256FF4FE491E8832F5F59
S1130E803F4F2830310561F711968C91811103C0D1
S1130E9005C0C0E0D2E120E030E0E2CFDF91CF91A5
S1130EA00895F8940E944D088FE190E00E943C0858
S1130EB00E94EA010E948A040E940F080E94F3061D
S1130EC089E392E09F938F930E94A10B0E940108F3
S1130ED00E9475040E94B2058AE492E09F938F9366
S1130EE00E94A10B0E9400040E94320478940F9087
S1130EF00F900F900F900895CF93DF9382E00E949C
S1130F00EC01C5E7D2E0888383E00E94EC01898389
S1130F10DF91CF91089587B3806A87BBBC9A8DB166
S1130F2081658DB9C49A08958FB9779BFECF0895D2
S1130F301FB8779BFECF8FB10895662369F048B33D
S1130F4021E030E0B90102C0660F771F8A95E2F70D
S1130F50CB01842B88BB089548B321E030E0B9016C
S1130F6002C0660F771F8A95E2F7CB018095842330
S1130F7088BB08951F920F920FB60F9211242F93DE
S1130F803F934F935F936F937F938F939F93AF930D
S1130F90BF93EF93FF93F8941DBC1CBC8BE692E0C7
S1130FA00E94950485E792E00E947C0783E792E023
S1130FB00E9428088091820281110FC088E592E086
S1130FC09F938F930E94A10B8BE692E00E944C05A5
S1130FD00E9481060F900F9002C00E9440047894F2
S1130FE0FF91EF91BF91AF919F918F917F916F91FD
S1130FF05F914F913F912F910F900FBE0F901F90D3
S1131000189589B7806289BF1DBC1CBC80E38FBD65
S113101085E08EBD80EE91E099BD88BD089536B31C
S113102026B347B3327081E090E0BC0102C0660F82
S1131030771F3A95E2F7247002C0880F991F2A950A
S1131040E2F7862B972B80959095842387BB089590
S113105086B3E3E7F2E086958170808386B382FBF2
S1131060882780F9818308955D9BFECF8CB908950C
S11310705F9BFECF8CB1089590BD89B988E18AB990
S11310808EE880BD68E378E084E398E00E94560B24
S11310909093F4038093F303089585B7806885BF24
S11310A080B7886080BF08950E94DB0960F080E803
S11310B091E009F49EEF0E94E20928F040E851E033
S11310C071F45EEF0CC00C94B1090C941C0AE92F66
S11310D0E0780E94FA0940F3092E052AB1F3261795
S11310E037074807590738F00E2E07F8E02569F04E
S11310F0E025E0640AC0EF6307F8009407FADB0117
S1131100B9019D01DC01CA01AD01EF930E94DD0824
S11311100E94E9090E9497085F91552339F02BED4D
S11311203FE049E450FD49EC0C949D0A0895DF9397
S1131130DD27B92FBF7740E85FE316161706480787
S11311405B0718F4D92F0E94230A9F938F937F93F0
S11311506F930E94980AE0E7F0E00E94B4090E94AD
S1131160E9092F913F914F915F910E943E0ADD233F
S113117051F09058A2EA2AED3FE049EC5FE3D078C1
S11311805D270E94B40ADF910C94E9090E94DA08F1
S11311900C94E9090E94E20958F00E94DB0940F02E
S11311A029F45F3F29F00C94AB0951110C941D0AEA
S11311B00C94B1090E94FA0968F39923B1F35523F9
S11311C091F3951B550BBB27AA2762177307840756
S11311D038F09F5F5F4F220F331F441FAA1FA9F3EC
S11311E035D00E2E3AF0E0E832D091505040E695DA
S11311F0001CCAF72BD0FE2F29D0660F771F881F3B
S1131200BB1F261737074807AB07B0E809F0BB0B2D
S1131210802DBF01FF2793585F4F3AF09E3F510541
S113122078F00C94AB090C941D0A5F3FE4F3983EEC
S1131230D4F3869577956795B795F7959F5FC9F72A
S1131240880F911D9695879597F90895E1E0660FAB
S1131250771F881FBB1F621773078407BA0720F024
S1131260621B730B840BBA0BEE1F88F7E09508958D
S11312700E943F096894B1110C941D0A08950E94BC
S1131280020A88F09F5798F0B92F9927B751B0F008
S1131290E1F0660F771F881F991F1AF0BA95C9F7F6
S11312A014C0B13091F00E941C0AB1E008950C946E
S11312B01C0A672F782F8827B85F39F0B93FCCF321
S11312C0869577956795B395D9F73EF49095809573
S11312D0709561957F4F8F4F9F4F0895E89409C093
S11312E097FB3EF490958095709561957F4F8F4F55
S11312F09F4F9923A9F0F92F96E9BB279395F6956B
S1131300879577956795B795F111F8CFFAF4BB0FE8
S113131011F460FF1BC06F5F7F4F8F4F9F4F16C04C
S1131320882311F096E911C0772321F09EE8872FD6
S1131330762F05C0662371F096E8862F70E060E092
S11313402AF09A95660F771F881FDAF7880F96950B
S1131350879597F9089597F99F6780E870E060E0B2
S113136008959FEF80EC0895DF93CF931F930F931D
S1131370FF92EF92DF927B018C01689406C0DA2E13
S1131380EF010E943E0AFE01E894A5912591359152
S113139045915591A6F3EF010E94B40AFE0197010D
S11313A0A801DA9469F7DF90EF90FF900F911F91F5
S11313B0CF91DF91089500240A9416161706180693
S11313C00906089500240A94121613061406050645
S11313D00895092E0394000C11F4882352F0BB0FD6
S11313E040F4BF2B11F460FF04C06F5F7F4F8F4F39
S11313F09F4F089557FD9058440F551F59F05F3F74
S113140071F04795880F97FB991F61F09F3F79F022
S113141087950895121613061406551FF2CF4695A4
S1131420F1DF08C0161617061806991FF1CF869526
S11314307105610508940895E894BB27662777270A
S1131440CB0197F908959B01AC0160E070E080E85E
S11314509FE30C94C6080E943E0A0C94E9090E947A
S1131460DB0938F00E94E20920F0952311F00C9476
S1131470AB090C94B10911240C941D0A0E94FA09B9
S113148070F3959FC1F3950F50E0551F629FF001D3
S1131490729FBB27F00DB11D639FAA27F00DB11DEC
S11314A0AA1F649F6627B00DA11D661F829F222775
S11314B0B00DA11D621F739FB00DA11D621F839FFC
S11314C0A00D611D221F749F3327A00D611D231FD2
S11314D0849F600D211D822F762F6A2F11249F5720
S11314E050409AF0F1F088234AF0EE0FFF1FBB1F23
S11314F0661F771F881F91505040A9F79E3F5105E2
S113150080F00C94AB090C941D0A5F3FE4F3983E01
S1131510D4F3869577956795B795F795E7959F5F8B
S1131520C1F7FE2B880F911D9695879597F908951D
S11315309B01AC010C942B0A5058BB27AA270E948C
S1131540B40A0C94E9090E94DB0938F00E94E2090C
S113155020F039F49F3F19F426F40C94B1090EF4E9
S1131560E095E7FB0C94AB09E92F0E94FA0958F3C4
S1131570BA17620773078407950720F079F4A6F574
S11315800C941C0A0EF4E0950B2EBA2FA02D0B011F
S1131590B90190010C01CA01A0011124FF27591BB4
S11315A099F0593F50F4503E68F11A16F040A22FBA
S11315B0232F342F4427585FF3CF4695379527952B
S11315C0A795F0405395C9F77EF41F16BA0B620B2A
S11315D0730B840BBAF09150A1F0FF0FBB1F661F71
S11315E0771F881FC2F70EC0BA0F621F731F841FB4
S11315F048F4879577956795B795F7959E3F08F0DA
S1131600B0CF9395880F08F09927EE0F979587959B
S1131610089597FB072E16F4009407D077FD09D0A0
S11316200E941D0B07FC05D03EF4909581959F4FB9
S11316300895709561957F4F0895AA1BBB1B51E1D6
S113164007C0AA1FBB1FA617B70710F0A61BB70B2E
S1131650881F991F5A95A9F780959095BC01CD01D3
S11316600895BB274A3031F4992322F4BDE29095C2
S113167081959F4F0C943D0BBB27FB015527AA274F
S1131680880F991FAA1FA41710F0A41B839550510B
S1131690B9F7A05DAA3308F0A95DA193009779F783
S11316A0B111B1931192CB010C94F20E0F931F93CD
S11316B0CF93DF93009731F46115710519F480E03D
S11316C090E03AC08B01EC016EE070E081E090E0C4
S11316D00E94980DFC01892B91F380E88383011506
S11316E0110571F01387028781E883838091F503E4
S11316F09091F603892B21F4F093F603E093F5031C
S11317002097C9F0D187C0878381826083838091C9
S1131710F7039091F803892B71F4F093F803E093A5
S1131720F7038091F9039091FA03892B21F4F09344
S1131730FA03E093F903CF01DF91CF911F910F9149
S11317400895A0E0B0E0E7EAFBE00C94AC0FAE0132
S11317504B5F5F4FFA0161917191AF018091F70383
S11317609091F8030E94B70BE2E00C94C80FABE031
S1131770B0E0EDEBFBE00C949C0F6C017B018A0163
S1131780FC0117821682838181FFCCC1CE010196B0
S11317903C01F6019381F70193FD859193FF8191BB
S11317A07F01882309F4BAC1853239F493FD859108
S11317B093FF81917F01853229F4B60190E00E9464
S11317C0020FE7CF912C212C312CFFE1F315D8F037
S11317D08B3279F038F4803279F08332A1F4232DFE
S11317E020611DC08D3261F0803369F4232D2160A6
S11317F016C0832D8260382EE32DE4603E2E2AC06D
S1131800F32DF8601DC037FC2DC020ED280F2A30C1
S113181040F08E32B9F436FC81C1232D2064322E7F
S113182019C036FE06C08AE0989E200D1124922E1F
S113183011C0EAE02E9E200D1124222EF32DF06219
S11318403F2E08C08C3621F4832D8068382E02C0C8
S1131850883641F4F70193FD859193FF81917F01CF
S11318608111B3CF982F9F7D9554933028F40C5F4A
S11318701F4F9FE399830DC0833631F0833771F096
S1131880833509F059C021C0F801808189830E5F36
S11318901F4F88248394912C530113C02801F2E034
S11318A04F0E511CF801A080B18036FE03C0692D93
S11318B070E002C06FEF7FEFC5010E94E70E4C019C
S11318C08201F32DFF773F2E16C0280122E0420E3D
S11318D0511CF801A080B18036FE03C0692D70E070
S11318E002C06FEF7FEFC5010E94D50E4C01F32DAE
S11318F0F0683F2E820133FC1BC0822D90E08816D5
S11319009906B0F4B60180E290E00E94020F2A9496
S1131910F4CFF50137FC859137FE81915F01B60163
S113192090E00E94020F21102A9421E0821A91086B
S11319308114910471F7E8C0843611F0893641F5B9
S1131940F80137FE07C060817181828193810C5F49
S11319501F4F08C060817181072E000C880B990B02
S11319600E5F1F4FF32DFF763F2E97FF09C0909512
S11319708095709561957F4F8F4F9F4FF0683F2EF4
S11319802AE030E0A3010E943E0F882E861845C04D
S1131990853731F4232D2F7EB22E2AE030E025C086
S11319A0932D997FB92E8F36C1F018F4883579F0CC
S11319B0B5C0803719F0883721F0B0C0E92FE06155
S11319C0BE2EB4FE0DC0FB2DF460BF2E09C034FE44
S11319D00AC0292F2660B22E06C028E030E005C0D8
S11319E020E130E002C020E132E0F801B7FE07C098
S11319F060817181828193810C5F1F4F06C0608179
S1131A00718180E090E00E5F1F4FA3010E943E0FA2
S1131A10882E8618FB2DFF773F2E36FE0DC0232D12
S1131A202E7FA22E891458F434FE0BC032FC09C058
S1131A30832D8E7EA82E05C0B82CA32C03C0B82CF1
S1131A4001C0B92CA4FE0FC0FE01E80DF11D808178
S1131A50803321F49A2D997EA92E09C0A2FE06C0D6
S1131A60B394B39404C08A2D867809F0B394A3FC8C
S1131A7011C0A0FE06C0B21488F4280C922C9B1846
S1131A800EC0B21460F4B60180E290E00E94020F2E
S1131A90B394F7CFB21418F42B1802C0982C212C4D
S1131AA0A4FE10C0B60180E390E00E94020FA2FEE3
S1131AB017C0A1FC03C088E790E002C088E590E06D
S1131AC0B6010CC08A2D867859F0A1FE02C08BE2C3
S1131AD001C080E2A7FC8DE2B60190E00E94020FF3
S1131AE0891438F4B60180E390E00E94020F9A94BE
S1131AF0F7CF8A94F301E80DF11D8081B60190E0DF
S1131B000E94020F8110F5CF222009F442CEB601C3
S1131B1080E290E00E94020F2A94F6CFF6018681BB
S1131B20978102C08FEF9FEF2B96E2E10C94B80FE0
S1131B300F931F93CF93DF93869F8001879F100D90
S1131B40969F100D1124C8010E94B40DEC0100975A
S1131B5029F0A80160E070E00E94E00ECE01DF9160
S1131B60CF911F910F9108950F931F93CF93DF93FC
S1131B708230910510F482E090E0E091FD03F09151
S1131B80FE0320E030E0A0E0B0E0309719F140819E
S1131B9051810281138148175907C8F084179507AA
S1131BA069F4109731F012960C93129713961C93C4
S1131BB027C00093FD031093FE0322C021153105B5
S1131BC019F04217530718F49A01BD01EF01DF0120
S1131BD0F801DBCF21153105F9F0281B390B24302E
S1131BE0310580F48A819B816115710521F0FB0127
S1131BF09383828304C09093FE038093FD03FE01CC
S1131C00329644C0FE01E20FF31F81939193225058
S1131C103109398328833AC02091FB033091FC03B6
S1131C20232B41F420910201309103013093FC03F2
S1131C302093FB032091000130910101211531050E
S1131C4041F42DB73EB74091040150910501241B86
S1131C50350BE091FB03F091FC03E217F307A0F4CA
S1131C602E1B3F0B2817390778F0AC014E5F5F4FEE
S1131C702417350748F04E0F5F1F5093FC03409321
S1131C80FB038193919302C0E0E0F0E0CF01DF9188
S1131C90CF911F910F910895CF93DF93009709F48B
S1131CA081C0FC01329713821282A091FD03B0918E
S1131CB0FE03109781F420813181820F931F2091BC
S1131CC0FB033091FC032817390751F5F093FC030B
S1131CD0E093FB0367C0ED0120E030E0CE17DF079F
S1131CE040F44A815B819E0141155105F1F0EA01FE
S1131CF0F5CFD383C28340815181840F951FC817C8
S1131D00D90759F488819981840F951F029691838C
S1131D1080838A819B81938382832115310529F4F1
S1131D20F093FE03E093FD033DC0E901FB83EA83E6
S1131D3049915991C40FD51FEC17FD0761F48081B7
S1131D409181840F951F0296E9019983888382818A
S1131D5093819B838A83E0E0F0E012968D919C91BD
S1131D601397009719F0FD01DC01F7CF8D919C9139
S1131D7011979D012E5F3F4F820F931F2091FB030C
S1131D803091FC032817390769F4309729F410922D
S1131D90FE031092FD0302C013821282B093FC036F
S1131DA0A093FB03DF91CF910895FC01059061504E
S1131DB070400110D8F7809590958E0F9F1F08955D
S1131DC0DC0101C06D9341505040E0F70895FC01DF
S1131DD06150704001900110D8F7809590958E0F56
S1131DE09F1F0895DC01FC01672F71917723E1F7B0
S1131DF0329704C07C916D9370836291AE17BF07D4
S1131E00C8F308950F931F93CF93DF93FB012381AE
S1131E1021FD03C08FEF9FEF2CC022FF16C0468127
S1131E205781248135814217530744F4A081B1813D
S1131E309D012F5F3F4F318320838C93268137810F
S1131E402F5F3F4F3783268314C08B01EC01FB01C6
S1131E500084F185E02D0995892BE1F6D8011696C9
S1131E608D919C911797019617969C938E93169734
S1131E70CE01DF91CF911F910F910895FA01AA2706
S1131E80283051F1203181F1E8946F936E7F6E5FB9
S1131E907F4F8F4F9F4FAF4FB1E03ED0B4E03CD067
S1131EA0670F781F891F9A1FA11D680F791F8A1F4A
S1131EB0911DA11D6A0F711D811D911DA11D20D0B1
S1131EC009F468943F912AE0269F11243019305D6B
S1131ED03193DEF6CF010895462F4770405D41935C
S1131EE0B3E00FD0C9F7F6CF462F4F70405D4A33A9
S1131EF018F0495D31FD4052419302D0A9F7EACF71
S1131F00B4E0A6959795879577956795BA95C9F79F
S1131F1000976105710508959B01AC010A2E069492
S1131F205795479537952795BA95C9F7620F731F4B
S1131F30841F951FA01D08952F923F924F925F9288
S1131F406F927F928F929F92AF92BF92CF92DF92C5
S1131F50EF92FF920F931F93CF93DF93CDB7DEB72A
S1131F60CA1BDB0B0FB6F894DEBF0FBECDBF0994BE
S1131F702A88398848885F846E847D848C849B8415
S1131F80AA84B984C884DF80EE80FD800C811B8123
S1131F90AA81B981CE0FD11D0FB6F894DEBF0FBE52
S10D1FA0CDBFED010895F894FFCFC2
S1131FAA0000FF0320005374617274696E67207025
S1131FBA726F6772616D0A0D002D2D2D2D2D2D2D39
S1131FCA2D2D2D2D2D2D2D2D2D2D2D2D2D2D2D2D33
S1131FDA2D2D2D2D2D2D2D2D2D2D2D2D2D2D2D2D23
S1131FEA0A0D004265666F72652073706920777204
S1131FFA697465004E6F7420696E20636F6E66693A
S113200A67206D6F64652C20092025690A0D004E2E
S113201A6F7420696E20636F7272656374206D6FCA
S113202A64653A204D6F64653A2025690A0D004DAE
S113203A6F6465207365743A2025690A0D00616628
S113204A74657220777269746520746F2063616E97
S113205A6374726C0A0D00446174613A2025690A3A
S113206A0D004D65737361676520726563656976F2
S113207A65640047616D65206F6C6564004D616934
S113208A6E206D656E7500506C61792067616D65AF
S113209A00486967682073636F726573004D7573CE
S11320AA69630047616D6520310047616D652032BF
S11320BA0053636F726520310053636F7265203277
S11320CA0053636F726520330053636F7265203463
S11320DA0053636F72652035004166746572206F20
S11320EA6C6564696E69740A0D0046696E69736881
S11320FA656420746869730047616D65206E6F7446
S10B210A20616374697665002D
S9030000FC
