S00F00006279676765726E2E7372656327
S11300000C9491020C94BA020C94AE020C94AE02BD
S11300100C94AE020C94AE020C94AE020C94AE029C
S11300200C94AE020C94AE020C94AE020C94AE028C
S11300300C94AE020C94AE020C94B60C0C94AE026A
S11300400C94AE020C94AE020C94AE020C94AE026C
S11300500C94AE020C94AE020C94AE020C94AE025C
S11300600C94AE020C94AE020C94AE020C94AE024C
S1130070084AD73B3BCE016E84BCBFFDC12F3D6C0B
S113008074319ABD56833DDA3D00C77F11BED9E471
S1130090BB4C3E916BAAAABE000000803F000A0A36
S11300A00A010A1E011E3C0A010A0A010A1E001E58
S11300B01E0A140A010A010A010A011E011E1E0A6F
S11300C0140114011428500A010A0A0A1E011E3CD4
S11300D00A010A0A010A011E1E1E0A140A010A0163
S11300E00A0A011E1E1E0A141414285028D20100E4
S11300F000D20100009F010000000000009F0100E9
S113010000BA02000000000000BA0200006E020003
S113011000D201000000000000D20100009F010095
S113012000000000009F0100006E020000000000BB
S1130130006E0200002A0200000B020000D201003F
S1130140002A020000000000002A02000000000053
S1130150002A020000000000002A02000000000043
S1130160002A020000000000006E0200000B0200E2
S113017000D20100009F010000000000009F010068
S113018000000000009F0100006E0200002A02002F
S113019000D201000000000000D20100009F010015
S11301A0009F010000BA02000000000000BA020033
S11301B0006E020000D201000000000000D2010025
S11301C0009F010000000000009F010000000000EB
S11301D0009F0100000B0200002A0200000B020035
S11301E000D20100002A020000000000002A0200E0
S11301F000000000002A0200002A020000000000A3
S1130200002A0200006E0200000B020000D201006E
S1130210009F010000000000009F0100006E02002A
S1130220002A02000000000000000000000000009E
S11302300000065F5F0600000000070700070700D4
S113024000147F7F147F7F1400242E6B6B3A1200FE
S113025000466630180C666200307A4F5D377A4883
S1130260000407030000000000001C3E634100007E
S1130270000041633E1C000000082A3E1C1C3E2A6C
S11302800808083E3E0808000000A0E060000000E6
S1130290000808080808080000000060600000006A
S11302A0006030180C060301003E7F594D7F3E006C
S11302B00042427F7F40400000627359496F6600EC
S11302C000226349497F360000181C16137F7F10F3
S11302D000276745457D3900003C7E4B4979300055
S11302E000036371190F070000367F49497F360008
S11302F000064F49693F1E000000006C6C000000BE
S11303000000A0EC6C00000000081C3663410000F3
S1130310001414141414140000004163361C080063
S113032000020351590F0600003E7F415D5D1F1E10
S1130330007C7E13137E7C0000417F7F49497F3619
S1130340001C3E634141632200417F7F41637F1C67
S113035000417F7F495D416300417F7F491D010367
S1130360001C3E6341517372007F7F08087F7F0049
S11303700000417F7F41000000307040417F3F0119
S113038000417F7F081C776300417F7F414060709C
S1130390007F7F060C067F7F007F7F060C187F7F1F
S11303A0001C3E6341633E1C00417F7F49090F06E8
S11303B0001E3F21717F5E0000417F7F19396F4627
S11303C00026674D597B32000003417F7F410300C3
S11303D0007F7F40407F7F00001F3F60603F1F0021
S11303E0007F7F3018307F7F0063771C081C7763A1
S11303F000074F78784F0700006773594D476371C2
S113040000007F7F41410000000103060C183060AA
S1130410000041417F7F000000080C0603060C0821
S113042000808080808080808000000307040000BA
S113043000207454543C784000413F7F44447C384D
S113044000387C44446C280000307848493F7F40A1
S113045000387C54545C180000487E7F4903020035
S11304600098BCA4A4F87C0400417F7F08047C7835
S11304700000447D7D4000000040C484FD7D0000F8
S113048000417F7F10386C440000417F7F400000B2
S1130490007C7C0C180C7C78007C7C04047C780048
S11304A000387C44447C38000084FCF8A4243C18C4
S11304B000183C24A4F8FC8400447C78441C1800F4
S11304C000485C54547424000000043E7F4424001B
S11304D0003C7C40403C7C40001C3C60603C1C0078
S11304E0003C7C6030607C3C00446C3810386C44C8
S11304F0009CBCA0A0FC7C00004C64745C4C6400B8
S11305000008083E774141000000000077770000B2
S1130510004141773E080800000203010302030181
S1130520000011241FBECFEFD4E0DEBFCDBF12E028
S1130530A0E0B1E0EAE7F9E202C005900D92A43D23
S1130540B107D9F724E0A4EDB2E001C01D92A331B4
S1130550B207E1F70E94C9020C94BB140C9400008A
S1130560309808958460809300142899FECF809178
S1130570001408951F920F920FB60F9211248F93B7
S113058081E08093D7028F910F900FBE0F901F9040
S11305901895CF93DF93CDB7DEB72B970FB6F894AA
S11305A0DEBF0FBECDBF0E94EF0B80E190E09A87C3
S11305B089871B86CE0101960E944B0386EA91E04F
S11305C09F938F930E94891089EB91E09F938F935F
S11305D00E9489102FEF8FE797E0215080409040D0
S11305E0E1F700C000000F900F900F900F9002EE03
S11305F012E0AFEFB7E11197F1F700C0000080916E
S1130600E102882381F0F8941DBC1CBC0E945009AF
S113061080EF92E00E94780C0E94EE0C1092E102AE
S11306201DBC1CBC7894D801ED91FC91808185306F
S113063091F028F4833041F0843049F017C08630BB
S113064071F0873081F012C00E94FF070FC081E073
S11306500E9454070BC082E00E94540707C081E047
S11306600E948C0703C082E00E948C078091D6020E
S1130670811108C088ED92E00E94070A0E941A0BBB
S11306801DBC1CBC0E943D09B4CF40E06CE283E079
S11306900E949D0408950F931F93CF938C01809122
S11306A0D4029091D502019663E070E00E94CF0FCE
S11306B0282F392F8093D4029093D502213031050D
S11306C0E9F02230310589F1232B09F044C0F80107
S11306D0408551854295440F407E62E380EE0E943E
S11306E09D04F80160857185769567957695679583
S11306F07695679581E30E9485042DC0F8014085B5
S113070051854295440F407E62E480EE0E949D0430
S1130710F8016085718576956795769567957695E8
S1130720679581E40E94850416C0F80140855185CF
S11307304295440F407E62E580EE0E949D04F801DC
S113074060857185769567957695679576956795B5
S113075081E50E9485048091D4029091D502813074
S1130760910561F08230910581F0892BA1F4F801A3
S1130770428565E38FE00E949D040DC0F801428527
S113078065E48FE00E949D0406C0F801428565E59A
S11307908FE00E949D04F8018285882361F1C0E006
S11307A08091D4029091D5028130910571F082300C
S11307B09105A1F0892BD1F4F801EC0FF11D6081B2
S11307C086E38C0F0E94850411C0F801EC0FF11D23
S11307D0608186E48C0F0E94850408C0F801EC0F48
S11307E0F11D608186E58C0F0E948504CF5FF801BE
S11307F082858C13D5CF8091D4020E94C704CF91F7
S11308001F910F910895EF92FF920F931F93CF932F
S11308107C0182E60E946F04C82F81E60E946F0467
S1130820C295C695C77028E0829FC00111248C0F21
S1130830911DF7019187808785E60E946F048F7070
S1130840F70182878285882381F0C0E00C2F10E0B5
S113085086E68C0F0E946F04F701E00FF11F80837E
S1130860CF5FF70182858C13F1CFCF911F910F9148
S1130870FF90EF900895CF93DF93CDB7DEB72B971A
S11308800FB6F894DEBF0FBECDBF81E090E09A872B
S1130890898786E08B87E0EFF2E08081898381811C
S11308A08A83E6EEF2E080818B8381818C83E8ED9C
S11308B0F2E080818D8381818E83CE0101960E9436
S11308C04B032B960FB6F894DEBF0FBECDBFDF915E
S11308D0CF9108950E9418051092D7020895CF93DE
S11308E0C82F60E084E00E94990C83E00E94900C81
S11308F08C2F0E94900C0E94940CC82F61E084E01D
S11309000E94990C8C2FCF910895CF93DF93D82F09
S1130910C62F60E084E00E94990C82E00E94900C53
S11309208D2F0E94900C8C2F0E94900C61E084E02B
S11309300E94990CDF91CF9108951F93CF93DF9379
S1130940D82F162FC42F60E084E00E94990C85E014
S11309500E94900C812F0E94900C8D2F0E94900C6D
S11309608C2F0E94900C61E084E00E94990CDF912E
S1130970CF911F91089560E084E00E94990C80EC6F
S11309800E94900C61E084E00E94990C0895CF933A
S1130990C82F60E084E00E94990CC13041F018F047
S11309A0C23049F00BC081E80E94900C07C082E875
S11309B00E94900C03C084E80E94900C61E084E0E3
S11309C00E94990CCF9108951F93CF93DF931F92A8
S11309D0CDB7DEB7182F0E94BB048EE00E946F04CF
S11309E089838981807E8038F1F4412F4C606FE0E7
S11309F08EEE0E949D0441E06BE28FEF0E949D0405
S1130A0040E660E680E60E949D042FEF8FEF92E0BF
S1130A10215080409040E1F700C000C08EE00E9469
S1130A206F04898389810F90DF91CF911F9108957D
S1130A30CF93DF931F92CDB7DEB70E94870C80E07F
S1130A400E94E4048BB780648BBF85B7826085BF46
S1130A5085B78E7F85BF81B3847081BB2FEF8FEF05
S1130A6092E0215080409040E1F700C000C08EE049
S1130A700E946F0489830F90DF91CF9108951092A3
S1130A80D602ECEDF2E0A8EEB2E081EE92E0119233
S1130A901D92E817F907D9F708950F931F93CF9381
S1130AA0DF931F92CDB7DEB74AE0BE016F5F7F4F81
S1130AB083E090E00E9419100E946B0B0E948C0B43
S1130AC002EE12E0F8018081918102960E94C70B28
S1130AD083E00E94C30BCE0101960E94C70B86E0FF
S1130AE091E00E94C108FFEF2FE787E0F15020401A
S1130AF08040E1F700C0000080E090E00E94C1085F
S1130B009FEFEFE7F7E09150E040F040E1F700C0DD
S1130B1000004AE0BE016F5F7F4F82E090E00E94D8
S1130B2019100E946B0B0E948C0BF801808191813B
S1130B3002960E94C70B83E00E94C30BCE0101966C
S1130B400E94C70B86E091E00E94C108FFEF2FE7E7
S1130B5087E0F15020408040E1F700C0000080E0D1
S1130B6090E00E94C1089FEFEFE7F7E09150E0406A
S1130B70F040E1F700C000004AE0BE016F5F7F4F24
S1130B8081E090E00E9419100E946B0B0E948C0B74
S1130B90F8018081918102960E94C70B83E00E9434
S1130BA0C30BCE0101960E94C70B86E091E00E9420
S1130BB0C108FFEF2FE787E0F15020408040E1F7C4
S1130BC000C0000080E090E00E94C1089FEFEFE7C2
S1130BD0F7E09150E040F040E1F700C000000E94CF
S1130BE06B0B0E948C0BF8018081918102960E940C
S1130BF0C70B83E00E94C30B83EE91E00E94C70BF6
S1130C0087E194E00E94C108FFEF2FE787E0F150ED
S1130C1020408040E1F700C0000080E090E00E94A6
S1130C20C1089FEFEFE7F7E09150E040F040E1F7B3
S1130C3000C000000F90DF91CF911F910F91089594
S1130C40CF93DF93CDB7DEB72B970FB6F894DEBF03
S1130C500FBECDBF82E090E09A8789871B86CE01C4
S1130C6001960E944B032B960FB6F894DEBF0FBE7D
S1130C70CDBFDF91CF910895F8940E944D0581E096
S1130C808093D602EDEEF2E08AE08083128283E65E
S1130C9081830E942006789408958091D702882346
S1130CA099F0F8941092D70282EF92E00E94030424
S1130CB00E944503A2EFB2E08C91EDEEF2E0808356
S1130CC011968C918283789408950F931F93CF93F8
S1130CD0DF9300D000D0CDB7DEB7182F0E946B0B86
S1130CE00E948C0B8091E2029091E30202960E9492
S1130CF0C70B83E00E94C30B113019F0123049F185
S1130D0039C086EE91E00E94C70B0DEE12E0F801A7
S1130D1080814AE0BE016F5F7F4F90E00E9419100E
S1130D20CE0101960E94C70B85E00E94C30B8EEE94
S1130D3091E00E94C70BF80182814AE0BE016D5F19
S1130D407F4F90E00E941910CE0103960E94C70BBA
S1130D5011C085EF91E00E94C70B8091EF024AE039
S1130D60BE016D5F7F4F90E00E941910CE01039683
S1130D700E94C70B0F900F900F900F90DF91CF91AF
S1130D801F910F910895CF93DF93CDB7DEB72B97C3
S1130D900FB6F894DEBF0FBECDBF83E090E09A8714
S1130DA089871B86CE0101960E944B032B960FB6B2
S1130DB0F894DEBF0FBECDBFDF91CF910895CF93DE
S1130DC0C82FF8940E94C3060E946B0B0E948C0BE0
S1130DD083E00E94C30B80E092E00E94C70B84E092
S1130DE00E94C30B8AE092E00E94C70B0E947F0816
S1130DF01092D60278940E946D0AC13051F0C2302C
S1130E0009F050C03091EF028091E802831748F551
S1130E1033C03091ED028091DC02831758F0EDED80
S1130E20F2E081E090E021912317B0F48430910541
S1130E301CF00DC080E090E0E0EEF2E044E050E011
S1130E40415051092291218384179507CCF3FC0169
S1130E50E452FD4F308326C001968530910519F781
S1130E6021C0E9EEF2E081E090E021912317B0F493
S1130E70843091051CF00DC080E090E0ECEEF2E0CF
S1130E8044E050E041505109229121838417950791
S1130E90CCF3FC01E851FD4F308304C0019685304A
S1130EA0910519F7CF910895CF93C82F8091D60259
S1130EB081110DC00E94C3062FEF8FE791E02150EE
S1130EC080409040E1F700C000C00E943C06809141
S1130ED0E702882321F01092D6020E946D0A0E9434
S1130EE03B040E944D068C2F0E946506C13019F008
S1130EF0C23049F00FC08091EF028A3059F481E08A
S1130F000E94DF0607C08091ED028A3018F482E067
S1130F100E94DF06CF910895AF92BF92CF92DF92E5
S1130F20EF92FF920F931F93CF93DF9300D0CDB72F
S1130F30DEB7082F0E946B0B0E948C0B8091E2029B
S1130F409091E30202960E94C70B0F2EFCEDAF2E88
S1130F50F2E0BF2EF02D0F2EF8EECF2EF2E0DF2EB2
S1130F60F02D13E0E12CF12C812F0E94C30B84E1BE
S1130F7092E00E94C70B8FEFE81AF80A4AE0BE011C
S1130F806F5F7F4FC7010E941910CE0101960E9426
S1130F90C70B82EF91E00E94C70B013019F00230B9
S1130FA059F013C0F50180814AE0BE016F5F7F4FA5
S1130FB090E00E94191009C0F60180814AE0BE0148
S1130FC06F5F7F4F90E00E941910CE0101960E943E
S1130FD0C70B1F5FFFEFAF1ABF0A8FEFC81AD80AFB
S1130FE0183011F60F900F90DF91CF911F910F9150
S1130FF0FF90EF90DF90CF90BF90AF9008958F92C5
S11310009F92AF92BF92CF92DF92EF92FF920F9393
S11310101F93CF93DF93F8940E948C0B0E946B0B69
S11310200DEE10E00F2EFEE9EF2EF0E0FF2EF02D76
S1131030C6E0D1E00F2EF9E2CF2EF2E0DF2EF02D44
S1131040B12C0F2EF4E1AF2EF02DB11002C00E948E
S11310506B0B4E01E881F9818081882341F08B2D4F
S11310600E94C30BB394888199810E94C70BD40159
S1131070ED91FC91229601900020E9F7329780814E
S11310808E3209F4B12CF8016591749180E090E0FE
S11310900E94D608F7018491A89EC0011124092E4C
S11310A0000CAA0BBB0B0097A105B10551F0ECECA9
S11310B0F4E03197F1F700C000000197A109B109EC
S11310C0B1F70C5F1F4FFFEFEF1AFF0A0C151D0558
S11310D009F0BBCF60E070E0CB010E94D6080E940B
S11310E06D0A7894DF91CF911F910F91FF90EF904B
S11310F0DF90CF90BF90AF909F908F9008956BE05A
S113110072E080E090E00E94D6082FEF8FE797E02E
S1131110215080409040E1F700C0000068E871E091
S113112080E090E00E94D6082FEF8FE797E02150EF
S113113080409040E1F700C0000067E371E080E088
S113114090E00E94D6082FEF8FE797E0215080406F
S11311509040E1F700C0000066E071E080E090E0BC
S11311600E94D6082FEF8FE797E0215080409040EF
S1131170E1F700C0000060E070E0CB010E94D608F7
S11311800895BC0180E090E00E94D6080895B89AC2
S11311908FEF81BF80E883BF83B7886083BF83B745
S11311A0806183BF83B7887F83BF08959B01AC01AF
S11311B0672B682B692B21F483B7887F83BF08953D
S11311C060E070E885E290E00E94E30FDA01C90173
S11311D0213061E0360741055105A8F1689412F801
S11311E0B695A795979587951694D1F7813061E0C8
S11311F09607A105B10548F1DA01C901689415F80B
S1131200B695A795979587951694D1F7813061E0A7
S11312109607A105B105D8F0BB27A52F942F832FDE
S1131220813061E09607A105B10598F0DA01C901A2
S1131230072E7AE0B695A795979587957A95D1F775
S1131240702D35E007C031E005C032E003C033E063
S113125001C034E023B7287F23BF23B7232B23BF48
S1131260815081BF089585B78F7E85BF84B78F7DF8
S113127084BF86B78F7786BF089585B7806285BFA0
S1131280889585B78F7D85BF089580E00E94B2025E
S11312908093FE0281E00E94B2028093FD020895D1
S11312A0CF92DF92EF92FF92CF93DF9380E00E9480
S11312B0B202C82F81E00E94B202E82F6091FE02C0
S11312C0C61780F470E02C2F30E0261B370B44E661
S11312D0429FC001439F900D11240E94CF0F609341
S11312E0D80214C0462F50E02C2F30E0241B350BBD
S11312F064E6629FC001639F900D11246FEF70E05C
S1131300641B750B0E94CF0F6093D8022091FD02DD
S1131310E21788F4622F70E04E2F50E0461B570B03
S113132024E6249FC001259F900D11240E94CF0F15
S11313306093D90213C030E04E2F50E0421B530B90
S113134064E6649FC001659F900D11246FEF70E007
S1131350621B730B0E94CF0F6093D902C8EDD2E0D9
S11313606881062E000C770B880B990B0E94360EB1
S11313706B017C016981062E000C770B880B990B9D
S11313800E94360EA70196010E942D0D20E030E048
S113139044EB53E40E94F10E20E030E040E05FE3D0
S11313A00E94F10E23EC35EF48E450E40E948C0DCA
S11313B00E94FE0D7B836A83DF91CF91FF90EF90B3
S11313C0DF90CF900895FC01808194E0980F9930CC
S11313D020F491819C5F993090F085302CF08181CC
S11313E08F5C833638F40DC08C3F24F481818F5C8C
S11313F0833648F081818C3F44F082E0089584E094
S1131400089581E0089580E0089583E008950E949E
S1131410E3099091E502943009F05CC08130E1F178
S113142060F18230C9F0833009F054C0E2EEF2E09A
S11314309281492F50E00190F081E02D20A130E00D
S1131440215031094217530724F49F5F9093E4021B
S113145041C01092E4023EC09091E402992321F02D
S113146091509093E40236C0E2EEF2E0A081B181A3
S113147090969C91915092832DC0E091E202F0915C
S1131480E302228933892115310521F1E2EEF2E0EC
S11314903183208312821EC0A2EEB2E02D913C91D2
S11314A0119712969C91E92FF0E03A96EE0FFF1FE8
S11314B0E20FF31F0190F081E02D90A1911103C080
S11314C09181992339F0A2EEB2E01196FC93EE9348
S11314D012961C928093E50208950F931F93CF9365
S11314E0DF938AE0ECE8F2E0A1E0B3E001900D9232
S11314F08A95E1F78AE0E6E9F2E0A2E2B3E001903E
S11315000D928A95E1F78CE0E0EAF2E0A3E4B3E01F
S113151001900D928A95E1F786E0ECEAF2E0A4E608
S1131520B3E001900D928A95E1F787E0E2EBF2E0F7
S1131530A5E8B3E001900D928A95E1F787E0E9EB25
S1131540F2E0A6EAB3E001900D928A95E1F78AE011
S1131550E0ECF2E0A7ECB3E001900D928A95E1F79C
S11315608AE0EAECF2E0A8EEB3E001900D928A95ED
S1131570E1F76FEF72E0FB0180E090E021E080830F
S11315808330910514F0218301C011820196B19634
S113159088309105A1F7EFEFF2E083E080A382E0C9
S11315A08093400380936103109282031092A303FB
S11315B01092C4031092E50310920604138A128A4F
S11315C007E014E041E051E218C0549FF0011124F7
S11315D0E150FD4FE993F993B38BA28B4F5F2F5FDB
S11315E03F4F90968C91909790E0281739076CF3B1
S11315F06F5D7F4F6017710759F0DB0190968C91F6
S113160090978823A9F3EB01649620E030E0DDCFC6
S113161088ED92E00E94070AE2EEF2E08FEF92E09A
S113162091838083128284E08383DF91CF911F9121
S11316300F910895FF920F931F93CF93DF930E940E
S11316406B0B0E948C0BC2EED2E0888199810296CA
S11316500E94C70BE881F98180A1882351F1689425
S1131660FF24F1F8C0E0D0E002EE12E08F2D0E94DA
S1131670C30BD8018D919C91FE013A96EE0FFF1F8A
S1131680E80FF91F8081918102960E94C70BF8012F
S1131690828190E08C179D0711F40E94810B2196A2
S11316A0F394D801ED91FC9180A190E0C817D9077B
S11316B0ECF2DF91CF911F910F91FF900895805527
S11316C0E0E0F0E18083862F8F70808362956F70F5
S11316D06061608308951F93CF93DF9310E0C0E0AF
S11316E0D2E160E0812F0E945F0B80E890E01882D5
S11316F00197E9F71F5F1830A1F7DF91CF911F9190
S11317000895E0E0F2E188E180839CE390839EE722
S1131710908380838083089560E080E00E945F0B63
S11317200895E0E0F0E18EEA808381EA80838AED27
S1131730808382E1808388EC808388EA80838FE3DE
S1131740808385ED808380E8808381E8808380E5E1
S1131750808389ED808381E2808380E2808382E0DC
S113176080838BED808380E380838DEA8083108285
S113177084EA808386EA80838FEA80830E946B0BED
S11317800E948C0B089560E00E945F0B0895CF9334
S1131790DF93DC018C9181111AC01EC0EC91F0E042
S11317A0B097EE0FFF1FEE0FFF1FEE0FFF1FE20FAC
S11317B0F31FE75DFD4FE491E8832F5F3F4F28302F
S11317C0310561F711968C91811103C005C0C0E009
S11317D0D2E120E030E0E2CFDF91CF910895F89498
S11317E00E94130D2FEF8FE791E02150804090402D
S11317F0E1F700C000C08FE190E00E94020D2FEFDE
S11318008FE791E0215080409040E1F700C000C094
S11318100E946A042FEF8FE791E0215080409040AE
S1131820E1F700C000C00E94B0022FEF8FE791E003
S1131830215080409040E1F700C000C00E9445095B
S11318402FEF8FE791E0215080409040E1F700C0F6
S113185000C00E94D50C2FEF8FE791E0215080400B
S11318609040E1F700C000C00E94910B2FEF8FE77A
S113187091E0215080409040E1F700C000C00E94F8
S1131880C50C2FEF8FE791E0215080409040E1F7A5
S113189000C000C00E9433092FEF8FE791E0215070
S11318A080409040E1F700C000C00E946D0A2FEF15
S11318B08FE791E0215080409040E1F700C000C0E4
S11318C00E94C7082FEF8FE791E02150804090409D
S11318D0E1F700C000C00E943F052FEF8FE791E0C1
S11318E0215080409040E1F700C000C078940895F2
S11318F0CF93DF9382E00E94B202C0EFD2E08883EC
S113190083E00E94B2028983DF91CF91089587B367
S1131910806A87BBBC9A8DB181658DB9C49A0895DC
S11319208FB9779BFECF08951FB8779BFECF8FB1F9
S11319300895662369F048B321E030E0B90102C09C
S1131940660F771F8A95E2F7CB01842B88BB089535
S113195048B321E030E0B90102C0660F771F8A95D1
S1131960E2F7CB018095842388BB08951F920F92E0
S11319700FB60F9211248F9381E08093E1028F912F
S11319800F900FBE0F901F90189589B7806289BF82
S11319901DBC1CBC80E38FBD85E08EBD80EE91E054
S11319A099BD88BD1092E102089536B326B347B3BA
S11319B0327081E090E0BC0102C0660F771F3A9557
S11319C0E2F7247002C0880F991F2A95E2F7862B4C
S11319D0972B80959095842387BB089586B3E6EE74
S11319E0F2E086958170808386B382FB882780F934
S11319F0818308955D9BFECF8CB908955F9BFECFD4
S1131A008CB1089590BD89B988E18AB98EE880BD0A
S1131A106EEF7CE08AEF9CE00E943E1090930804F5
S1131A2080930704089585B7806885BF80B7886070
S1131A3080BF08950E94A10E60F080E891E009F44F
S1131A409EEF0E94A80E28F040E851E071F45EEF8A
S1131A500CC00C94770E0C94E20EE92FE0780E94EF
S1131A60C00E40F3092E052AB1F32617370748079D
S1131A70590738F00E2E07F8E02569F0E025E064F8
S1131A800AC0EF6307F8009407FADB01B9019D016E
S1131A90DC01CA01AD01EF930E94A30D0E94AF0EB9
S1131AA00E945D0D5F91552339F02BED3FE049E431
S1131AB050FD49EC0C94630F0895DF93DD27B92F93
S1131AC0BF7740E85FE31616170648075B0718F46C
S1131AD0D92F0E94E90E9F938F937F936F930E9457
S1131AE05E0FE0E7F0E00E947A0E0E94AF0E2F91A5
S1131AF03F914F915F910E94040FDD2351F0905864
S1131B00A2EA2AED3FE049EC5FE3D0785D270E942A
S1131B107A0FDF910C94AF0E0E94A00D0C94AF0EBF
S1131B200E94A80E58F00E94A10E40F029F45F3FD5
S1131B3029F00C94710E51110C94E30E0C94770E51
S1131B400E94C00E68F39923B1F3552391F3951BBA
S1131B50550BBB27AA2762177307840738F09F5FCA
S1131B605F4F220F331F441FAA1FA9F335D00E2E37
S1131B703AF0E0E832D091505040E695001CCAF7A4
S1131B802BD0FE2F29D0660F771F881FBB1F261767
S1131B9037074807AB07B0E809F0BB0B802DBF013E
S1131BA0FF2793585F4F3AF09E3F510578F00C940D
S1131BB0710E0C94E30E5F3FE4F3983ED4F38695E4
S1131BC077956795B795F7959F5FC9F7880F911D2E
S1131BD09695879597F90895E1E0660F771F881F1A
S1131BE0BB1F621773078407BA0720F0621B730BCD
S1131BF0840BBA0BEE1F88F7E09508950E94050E3A
S1131C006894B1110C94E30E08950E94C80E88F0F4
S1131C109F5798F0B92F9927B751B0F0E1F0660FAC
S1131C20771F881F991F1AF0BA95C9F714C0B130ED
S1131C3091F00E94E20EB1E008950C94E20E672F39
S1131C40782F8827B85F39F0B93FCCF3869577951C
S1131C506795B395D9F73EF4909580957095619505
S1131C607F4F8F4F9F4F0895E89409C097FB3EF430
S1131C7090958095709561957F4F8F4F9F4F9923D5
S1131C80A9F0F92F96E9BB279395F6958795779553
S1131C906795B795F111F8CFFAF4BB0F11F460FF13
S1131CA01BC06F5F7F4F8F4F9F4F16C0882311F06B
S1131CB096E911C0772321F09EE8872F762F05C07F
S1131CC0662371F096E8862F70E060E02AF09A951A
S1131CD0660F771F881FDAF7880F9695879597F90F
S1131CE0089597F99F6780E870E060E008959FEF9A
S1131CF080EC0895DF93CF931F930F93FF92EF929D
S1131D00DF927B018C01689406C0DA2EEF010E94F9
S1131D10040FFE01E894A5912591359145915591C3
S1131D20A6F3EF010E947A0FFE019701A801DA944D
S1131D3069F7DF90EF90FF900F911F91CF91DF91A2
S1131D40089500240A94161617061806090608951D
S1131D5000240A9412161306140605060895092E83
S1131D600394000C11F4882352F0BB0F40F4BF2BF2
S1131D7011F460FF04C06F5F7F4F8F4F9F4F089532
S1131D8057FD9058440F551F59F05F3F71F0479528
S1131D90880F97FB991F61F09F3F79F0879508950D
S1131DA0121613061406551FF2CF4695F1DF08C02C
S1131DB0161617061806991FF1CF86957105610549
S1131DC008940895E894BB2766277727CB0197F9F1
S1131DD008959B01AC0160E070E080E89FE30C94FF
S1131DE08C0D0E94040F0C94AF0E0E94A10E38F0CB
S1131DF00E94A80E20F0952311F00C94710E0C94FF
S1131E00770E11240C94E30E0E94C00E70F3959F7C
S1131E10C1F3950F50E0551F629FF001729FBB27DD
S1131E20F00DB11D639FAA27F00DB11DAA1F649F79
S1131E306627B00DA11D661F829F2227B00DA11D2C
S1131E40621F739FB00DA11D621F839FA00D611DB2
S1131E50221F749F3327A00D611D231F849F600DD3
S1131E60211D822F762F6A2F11249F5750409AF0FC
S1131E70F1F088234AF0EE0FFF1FBB1F661F771F88
S1131E80881F91505040A9F79E3F510580F00C9453
S1131E90710E0C94E30E5F3FE4F3983ED4F3869501
S1131EA077956795B795F795E7959F5FC1F7FE2BF3
S1131EB0880F911D9695879597F908959B01AC011C
S1131EC00C94F10E5058BB27AA270E947A0F0C9449
S1131ED0AF0E0E94A10E38F00E94A80E20F039F433
S1131EE09F3F19F426F40C94770E0EF4E095E7FB6B
S1131EF00C94710EE92F0E94C00E58F3BA176207B2
S1131F0073078407950720F079F4A6F50C94E20E84
S1131F100EF4E0950B2EBA2FA02D0B01B901900100
S1131F200C01CA01A0011124FF27591B99F0593F44
S1131F3050F4503E68F11A16F040A22F232F342F8C
S1131F404427585FF3CF469537952795A795F040DA
S1131F505395C9F77EF41F16BA0B620B730B840BEF
S1131F60BAF09150A1F0FF0FBB1F661F771F881FA7
S1131F70C2F70EC0BA0F621F731F841F48F48795FF
S1131F8077956795B795F7959E3F08F0B0CF9395F1
S1131F90880F08F09927EE0F97958795089597FB7A
S1131FA0072E16F4009407D077FD09D00E9405107F
S1131FB007FC05D03EF4909581959F4F0895709548
S1131FC061957F4F0895A1E21A2EAA1BBB1BFD0148
S1131FD00DC0AA1FBB1FEE1FFF1FA217B307E40704
S1131FE0F50720F0A21BB30BE40BF50B661F771F5C
S1131FF0881F991F1A9469F760957095809590953C
S11320009B01AC01BD01CF010895AA1BBB1B51E18B
S113201007C0AA1FBB1FA617B70710F0A61BB70B54
S1132020881F991F5A95A9F780959095BC01CD01F9
S11320300895BB274A3031F4992322F4BDE29095E8
S113204081959F4F0C942510BB27FB015527AA2788
S1132050880F991FAA1FA41710F0A41B8395505131
S1132060B9F7A05DAA3308F0A95DA193009779F7A9
S1132070B111B1931192CB010C94DA130F931F9306
S1132080CF93DF93009731F46115710519F480E063
S113209090E03AC08B01EC016EE070E081E090E0EA
S11320A00E948012FC01892B91F380E8838301153F
S11320B0110571F01387028781E8838380910904F5
S11320C090910A04892B21F4F0930A04E093090403
S11320D02097C9F0D187C0878381826083838091F0
S11320E00B0490910C04892B71F4F0930C04E0938D
S11320F00B0480910D0490910E04892B21F4F0932C
S11321000E04E0930D04CF01DF91CF911F910F9145
S11321100895A0E0B0E0EFE8F0E10C949414AE016F
S11321204B5F5F4FFA0161917191AF0180910B0494
S113213090910C040E949F10E2E00C94B014ABE068
S1132140B0E0E5EAF0E10C9484146C017B018A01AF
S1132150FC0117821682838181FFCCC1CE010196D6
S11321603C01F6019381F70193FD859193FF8191E1
S11321707F01882309F4BAC1853239F493FD85912E
S113218093FF81917F01853229F4B60190E00E948A
S1132190EA13E7CF912C212C312CFFE1F315D8F071
S11321A08B3279F038F4803279F08332A1F4232D24
S11321B020611DC08D3261F0803369F4232D2160CC
S11321C016C0832D8260382EE32DE4603E2E2AC093
S11321D0F32DF8601DC037FC2DC020ED280F2A30E8
S11321E040F08E32B9F436FC81C1232D2064322EA6
S11321F019C036FE06C08AE0989E200D1124922E46
S113220011C0EAE02E9E200D1124222EF32DF0623F
S11322103F2E08C08C3621F4832D8068382E02C0EE
S1132220883641F4F70193FD859193FF81917F01F5
S11322308111B3CF982F9F7D9554933028F40C5F70
S11322401F4F9FE399830DC0833631F0833771F0BC
S1132250833509F059C021C0F801808189830E5F5C
S11322601F4F88248394912C530113C02801F2E05A
S11322704F0E511CF801A080B18036FE03C0692DB9
S113228070E002C06FEF7FEFC5010E94CF134C01D5
S11322908201F32DFF773F2E16C0280122E0420E63
S11322A0511CF801A080B18036FE03C0692D70E096
S11322B002C06FEF7FEFC5010E94BD134C01F32DE7
S11322C0F0683F2E820133FC1BC0822D90E08816FB
S11322D09906B0F4B60180E290E00E94EA132A94D1
S11322E0F4CFF50137FC859137FE81915F01B6018A
S11322F090E00E94EA1321102A9421E0821A9108A6
S11323008114910471F7E8C0843611F0893641F5DF
S1132310F80137FE07C060817181828193810C5F6F
S11323201F4F08C060817181072E000C880B990B28
S11323300E5F1F4FF32DFF763F2E97FF09C0909538
S11323408095709561957F4F8F4F9F4FF0683F2E1A
S11323502AE030E0A3010E942614882E861845C086
S1132360853731F4232D2F7EB22E2AE030E025C0AC
S1132370932D997FB92E8F36C1F018F4883579F0F2
S1132380B5C0803719F0883721F0B0C0E92FE0617B
S1132390BE2EB4FE0DC0FB2DF460BF2E09C034FE6A
S11323A00AC0292F2660B22E06C028E030E005C0FE
S11323B020E130E002C020E132E0F801B7FE07C0BE
S11323C060817181828193810C5F1F4F06C060819F
S11323D0718180E090E00E5F1F4FA3010E942614DC
S11323E0882E8618FB2DFF773F2E36FE0DC0232D39
S11323F02E7FA22E891458F434FE0BC032FC09C07F
S1132400832D8E7EA82E05C0B82CA32C03C0B82C17
S113241001C0B92CA4FE0FC0FE01E80DF11D80819E
S1132420803321F49A2D997EA92E09C0A2FE06C0FC
S1132430B394B39404C08A2D867809F0B394A3FCB2
S113244011C0A0FE06C0B21488F4280C922C9B186C
S11324500EC0B21460F4B60180E290E00E94EA1368
S1132460B394F7CFB21418F42B1802C0982C212C73
S1132470A4FE10C0B60180E390E00E94EA13A2FE1D
S113248017C0A1FC03C088E790E002C088E590E093
S1132490B6010CC08A2D867859F0A1FE02C08BE2E9
S11324A001C080E2A7FC8DE2B60190E00E94EA132D
S11324B0891438F4B60180E390E00E94EA139A94F8
S11324C0F7CF8A94F301E80DF11D8081B60190E005
S11324D00E94EA138110F5CF222009F442CEB601FE
S11324E080E290E00E94EA132A94F6CFF6018681F6
S11324F0978102C08FEF9FEF2B96E2E10C94A0141A
S11325000F931F93CF93DF93869F8001879F100DB6
S1132510969F100D1124C8010E949C12EC01009793
S113252029F0A80160E070E00E94C813CE01DF9199
S1132530CF911F910F9108950F931F93CF93DF9322
S11325408230910510F482E090E0E0911104F09162
S1132550120420E030E0A0E0B0E0309719F14081AF
S113256051810281138148175907C8F084179507D0
S113257069F4109731F012960C93129713961C93EA
S113258027C0009311041093120422C021153105B1
S113259019F04217530718F49A01BD01EF01DF0146
S11325A0F801DBCF21153105F9F0281B390B243054
S11325B0310580F48A819B816115710521F0FB014D
S11325C09383828304C09093120480931104FE01C8
S11325D0329644C0FE01E20FF31F8193919322507F
S11325E03109398328833AC020910F0430911004B3
S11325F0232B41F420910201309103013093100404
S113260020930F042091000130910101211531051F
S113261041F42DB73EB74091040150910501241BAC
S1132620350BE0910F04F0911004E217F307A0F4C6
S11326302E1B3F0B2817390778F0AC014E5F5F4F14
S11326402417350748F04E0F5F1F50931004409332
S11326500F048193919302C0E0E0F0E0CF01DF9199
S1132660CF911F910F910895CF93DF93009709F4B1
S113267081C0FC01329713821282A0911104B0919F
S11326801204109781F420813181820F931F2091CD
S11326900F04309110042817390751F5F0931004F2
S11326A0E0930F0467C0ED0120E030E0CE17DF07B0
S11326B040F44A815B819E0141155105F1F0EA0124
S11326C0F5CFD383C28340815181840F951FC817EE
S11326D0D90759F488819981840F951F02969183B3
S11326E080838A819B81938382832115310529F418
S11326F0F0931204E09311043DC0E901FB83EA83E3
S113270049915991C40FD51FEC17FD0761F48081DD
S11327109181840F951F0296E901998388838281B0
S113272093819B838A83E0E0F0E012968D919C91E3
S11327301397009719F0FD01DC01F7CF8D919C915F
S113274011979D012E5F3F4F820F931F20910F041D
S1132750309110042817390769F4309729F410923E
S113276012041092110402C013821282B093100456
S1132770A0930F04DF91CF910895FC01059061505F
S113278070400110D8F7809590958E0F9F1F089583
S1132790DC0101C06D9341505040E0F70895FC0105
S11327A06150704001900110D8F7809590958E0F7C
S11327B09F1F0895DC01FC01672F71917723E1F7D6
S11327C0329704C07C916D9370836291AE17BF07FA
S11327D0C8F308950F931F93CF93DF93FB012381D5
S11327E021FD03C08FEF9FEF2CC022FF16C046814E
S11327F05781248135814217530744F4A081B18164
S11328009D012F5F3F4F318320838C932681378135
S11328102F5F3F4F3783268314C08B01EC01FB01EC
S11328200084F185E02D0995892BE1F6D8011696EF
S11328308D919C911797019617969C938E9316975A
S1132840CE01DF91CF911F910F910895FA01AA272C
S1132850283051F1203181F1E8946F936E7F6E5FDF
S11328607F4F8F4F9F4FAF4FB1E03ED0B4E03CD08D
S1132870670F781F891F9A1FA11D680F791F8A1F70
S1132880911DA11D6A0F711D811D911DA11D20D0D7
S113289009F468943F912AE0269F11243019305D91
S11328A03193DEF6CF010895462F4770405D419382
S11328B0B3E00FD0C9F7F6CF462F4F70405D4A33CF
S11328C018F0495D31FD4052419302D0A9F7EACF97
S11328D0B4E0A6959795879577956795BA95C9F7C6
S11328E000976105710508959B01AC010A2E0694B9
S11328F05795479537952795BA95C9F7620F731F72
S1132900841F951FA01D08952F923F924F925F92AE
S11329106F927F928F929F92AF92BF92CF92DF92EB
S1132920EF92FF920F931F93CF93DF93CDB7DEB750
S1132930CA1BDB0B0FB6F894DEBF0FBECDBF0994E4
S11329402A88398848885F846E847D848C849B843B
S1132950AA84B984C884DF80EE80FD800C811B8149
S1132960AA81B981CE0FD11D0FB6F894DEBF0FBE78
S10D2970CDBFED010895F894FFCFE8
S113297A0000130420001B02E2012202E201E20128
S113298A2902E2012F0234021B02E2012202E201BD
S113299AE2013802E2012F02E2013D02E201E20110
S11329AA1B02E2012202E201E201E2014302E20124
S11329BAE2014802E201E201E201E2015002E2011B
S11329CA5502E201E2015D02E2011B02E201220276
S11329DAE2016202E2012F026802E2011B02E20141
S11329EA2202E201E201E2016D027202E201E20163
S11329FAE2011B02E2012202E201E2017B02E2019C
S1132A0AE20126028102E201E2015002E2018602A7
S1132A1A5D02E201E2015374617274696E672070A7
S1132A2A726F6772616D0A0D002D2D2D2D2D2D2DBE
S1132A3A2D2D2D2D2D2D2D2D2D2D2D2D2D2D2D2DB8
S1132A4A2D2D2D2D2D2D2D2D2D2D2D2D2D2D2D2DA8
S1132A5A0A0D00476F0053636F72653A2000546988
S1132A6A6D653A20004169722074696D653A2000E7
S1132A7A47616D65206F766572004D6179626520E4
S1132A8A48533F0053636F726520004E6576657242
S1132A9A2000676F6E6E6120006769766520007991
S1132AAA6F75200075702E006C65742000646F7752
S1132ABA6E2E0072756E200061726F756E6420004E
S1132ACA616E6420006465736572742000796F75A1
S1132ADA2E006D616B6520006372792E0073617933
S1132AEA2000676F6F646279652E0074656C6C20D0
S1132AFA006C696520006875727420004D61696E06
S1132B0A206D656E7500506C61792067616D650092
S1132B1A486967682073636F726573004D757369DA
S1132B2A630047616D6520310047616D652032009D
S1132B3A47616D6520312048530047616D65203235
S1072B4A20485300C8
S9030000FC
